:020000040800F2
:10000000000200209504000831040008ED030008F8
:1000100041040008510400086104000800000000C9
:10002000000000000000000000000000D1030008F4
:100030007104000800000000B503000881040008F6
:1000400031010008310100083101000831010008C8
:1000500031010008310100083101000831010008B8
:1000600031010008310100083101000831010008A8
:100070003101000831010008310100083101000898
:100080003101000831010008310100083101000888
:100090003101000831010008310100083101000878
:1000A0003101000831010008310100083101000868
:1000B000011400080714000831010008310100088C
:1000C0003101000831010008310100083101000848
:1000D000310100085D0800086308000831010008CC
:1000E0003101000831010008310100083101000828
:1000F0003101000831010008310100083101000818
:100100003101000831010008310100083101000807
:1001100031010008310100083101000831010008F7
:1001200031010008310100083101000831010008E7
:1001300000F0A6B900F0B8BA7047000070B50C46E0
:10014000064600F0A1FA094B094A1D682C44944266
:1001500002D8084A944207D20C234FF0FF3533608F
:1001600000F09AFA284670BD1C60F9E700020020F2
:1001700000000120E81000201946104600F0A0BA47
:100180001946104600F0A4BA132303604FF0FF3065
:100190007047132303604FF0FF3070471323036051
:1001A0004FF0FF3070470023022903608CBF00200E
:1001B00001207047134910B50C68002094FAA4F18F
:1001C0008442B1FA81F108BF4FF0FF310E4C0F4B62
:1001D00054F8211018600E4B09681A68A1F1080440
:1001E00094420ED022B110790A2804BF0B2010715E
:1001F0000A22012001F8042C31F9021C054A1C6076
:10020000118010BD8C020020A00200209802002066
:100210009402002090020020092930B503791AD9F0
:10022000092B14D842791A4B00F1080453F82250D4
:100230007DB12D68856053F822502C6043F8224030
:100240000123144A4479A3401468234313600171C5
:1002500030BD8460F2E7092BF9D945790C4B53F88E
:1002600025203AB11468A2420BBF0022246843F84B
:1002700025201460427953F82230002BE7D1012366
:10028000044C03FA02F2236823EA02032360DEE748
:10029000A00200208C02002008B5094B1B681A79C7
:1002A000092A02D95B79834205D900F0F8F918B11F
:1002B0000122044B1A6008BDBDE8084000F072B886
:1002C0009402002098020020002408B500F0DCF918
:1002D000084B094A1B88094D1BB242F82340084AC3
:1002E000214613682868013B1360FFF795FF2C60D7
:1002F00000F054F890020020E00200209402002058
:100300009C02002013444FF0773223F0030310B512
:100310001C1F43F8042C620742BF4FF08832A3F140
:10032000080443F8082C4FF0807344E902030D4B96
:10033000002244F80C3C0323022044E90532012347
:10034000224644E907300B2342F8201D42F8043DC1
:10035000013B032BFAD120466FF0020340F8443DE5
:1003600010BD00BFC90200080548064A064B0168D7
:10037000914201D1984201D3181A70470430F6E730
:1003800000000020FEE7FEE700020020EFF30880F7
:1003900070470000004870470000002000F078F926
:1003A00001DFFEE7024A536843F080535360704711
:1003B00000ED00E0EFF3098020E9F00F40F804EDD4
:1003C00002490968086000F003F800009402002068
:1003D000FFF7F0FE04480068016801C9B1E8F00FBA
:1003E00081F3098800470000940200200D4B0E4A5B
:1003F0000E496846904203D8984201D9002102E094
:1004000009468D46012104207246024202D1EFF3D3
:10041000088001E0EFF309802DE9F00F6B4600F052
:100420006FF800BF580100200000012000020020EA
:1004300008B50249042000F083FC00BF392C0008F5
:1004400008B50249062000F07BFC00BF262C0008FE
:1004500008B50249072000F073FC00BF002A00081D
:1004600008B50249082000F06BFC00BF452C0008CD
:1004700008B50249092000F063FC00BF122A0008F9
:1004800008B502490A2000F05BFC00BF242A0008DE
:100490007047704708B5FFF7FBFF6A46114B1249DA
:1004A000934213D3114A124B12498B4211D30021AC
:1004B000114B124A934211D3FFF7EBFF00F01AFCE5
:1004C00001F0D0FBBDE8084000F074BC43F8041B09
:1004D000E6E752F8040F43F8040BE6E743F8041B81
:1004E000E8E700BF00000020FEE7FEE770300008EC
:1004F000000200208C0200208C020020E810002066
:100500002DE9F04F9A464A4B93469A6B8FB003926F
:100510005A6B9F6A0492DA6A044605921A6BDB6B87
:1005200006920793434B88461A68434B9A4202D07F
:10053000424801F0F1FCB8F1000F4ED000254048D0
:1005400001F0EAFC2E463F4801F0E6FC39463E4801
:1005500001F05AFC05993D4801F056FC06993C48CB
:1005600001F052FC07993B4801F04EFC3A0403D5D8
:100570000399394801F048FC3B0603D504993748F4
:1005800001F042FC364801F0C7FC5946354801F0FD
:100590003BFCB8F1000F1BD1334801F0BDFC3146E4
:1005A000324801F031FC6946314BC91A03D5494242
:1005B000304801F029FC20468268C36801698C46F6
:1005C00041698E46AD46514691E8F00F416800689A
:1005D00001BE2949052000F0B3FBD4E902300890A0
:1005E0002069D4E906690990606919F4007F0A90CE
:1005F0002248D4E9001208BF04F12005CDE90C23FC
:1006000018BF04F124050B9101F086FC089B0B999F
:1006100000931B48DDE90C2301F0F6FBDDE909122C
:10062000CDF800903346174801F0EEFB8BE700BF92
:1006300000ED00E000000020FEE7FEE7322A00089F
:10064000482A00080D2B0008162B0008262B00084E
:10065000362B0008462B0008562B0008662B000896
:10066000762B00087B2B00088D2B0008BE2B000882
:1006700058010020E62B0008132C0008772A0008F8
:10068000922A0008CF2A0008EFF3108072B6704754
:1006900062B6EFF31080704780F310887047EFF375
:1006A0000580C0B270470000024B034A0349002096
:1006B00000F078B804020020390F000820A10700DC
:1006C0000A460146014800F042BC00BF0402002077
:1006D00010B50C460A460146002000F025F82046D9
:1006E00010BD000038B5142343430C4AD458256884
:1006F000AA0608D50A4B616803EBC002C9B253F8D9
:100700003030506898472B0748BF6368054B1B681B
:100710001BB1BDE83840FFF745BE38BD5C2C000872
:10072000A403002098020020012810B50AD8142341
:1007300058430A4B0A441B58914207D11A68520683
:10074000FCD510BD0649032000F0FAFA11F8010BA0
:100750001C682406FCD55860EEE700BF5C2C00083E
:10076000842C0008012810B5044603D90A49032047
:1007700000F0E6FA094B53F8303013B1012000F0D5
:1007800073FC1422064B02FB04346168207CBDE834
:10079000104000F07BBD00BF842C0008A4030020A3
:1007A0005C2C000801282DE9F84304460D46174645
:1007B00003D92649032000F0C3FA4FF01408244E51
:1007C000244A08FB0068D8F80C9042F8307002EB1D
:1007D000C00203215360484600F0CBFB484600F0BE
:1007E0001EFC0B21484600F0F8FB27B10421D8F885
:1007F000080000F0BEFB2046FFF7B4FF14235C4363
:10080000002306EB0408345998F81000E3602361D4
:10081000636100F01FFDB0FBF5F080B2A0608FB106
:10082000012198F811305AB203F01F0301FA03F3C3
:100830000949520941F8223042F22C03E3600020BA
:10084000BDE8F88342F20803F8E700BF842C0008F3
:100850005C2C0008A403002000E100E00020FFF76A
:1008600041BF0120FFF73EBF10B598B1012821D04C
:100870000024164A136923F004031361FFF704FFF1
:10088000BFF34F8F30BFFFF707FFECB1BDE810405B
:1008900000F076BC0E4B1A6842F00E021A605A68DD
:1008A00042F480725A60094A0124136943F0040338
:1008B0001361E3E7064B1A6822F003021A601A6814
:1008C00042F001021A60EEE710BD00BF00ED00E04B
:1008D0000070004008B5FFF7D7FEBDE808400020D3
:1008E000FFF7C2BF002000F039BD000038B5044C4E
:1008F0002568FFF7F7FF2368AB42F9D1184338BDED
:10090000BC030020034B196819B982B2084600F0F5
:1009100005BD7047B403002010B5094A136843B100
:100920009C6881688C4207D303D15C6841688C4223
:1009300002D90360106010BD1A461B68EFE700BFC4
:10094000C00300202DE9F047294E3268B24602F577
:100950008032326032681AB9264B1A6801321A6046
:100960000020254B254C1A681860236884461946D8
:10097000234FDFF880E0DFF88C803A6021B1DEF8A9
:1009800000508E68AE4217D900B12160BCF1000F53
:1009900010D00021CCF800103AB3C3B151685868A8
:1009A00081428CBF19461146084612681B6882B9FD
:1009B00003603960BDE8F0874D68DAF8009005EA19
:1009C00008054D45E0D18C4601200968D6E711465F
:1009D000EAE70BB90260ECE754685D68AC428CBF93
:1009E0001C46144604602046DFE73B60E2E700BF98
:1009F000BC030020B8030020C4030020C003002073
:100A0000C80300200000FFFF01232DE9F041324F11
:100A1000324C3B602368CBB9FFF794FF4FF6FF756C
:100A2000FFF760FFA842FBD000254FF000082368C5
:100A300083B9FFF757FF1430854228D9FFF782FFAB
:100A4000FFF750FF8542FBD30025F0E7FFF74AFF91
:100A50000546EAE75E68FFF745FF854205D8B3B271
:100A6000834202D91B1A132BE3D823685E68FFF771
:100A700039FF854202D8B6B28642F6D823681A6892
:100A8000C3E901882260D3E903209047CFE72368B8
:100A90006BB15E68FFF72AFF063E14308642C6D36C
:100AA000002330463B60BDE8F041FFF72BBFFFF766
:100AB00019FF8542064602D9FFF744FFC4E700F15B
:100AC00014039BB2984204D9FFF70CFF8642FBD96E
:100AD000F2E74FF6FF76E3E7B4030020C8030020F7
:100AE000144A1368834210D11B6813601BB1586805
:100AF0000638FFF707BF4FF6FF70FAE7984219680C
:100B000001D1116070471A460B46002BF6D10A4AF4
:100B100013681BB9094A136833B9704798421968BA
:100B2000EFD01A460B46F4E798421968E9D01A4606
:100B30000B46F1E7C8030020C4030020C0030020D7
:100B400008B50023054A1846054900F019FCBDE820
:100B500008404FF0FF30FFF7D5BE00BF090A00087C
:100B600040420F00F8B504460D46FFF7BFFE0023D4
:100B700023602B1A1E2B07460DD8ADB2FFF7B2FE2D
:100B80008542FBD3FFF7AEFE8542FBD8D4E90330A4
:100B900098470020F8BDFFF777FD636806460BB95C
:100BA000A36813B12046FFF79BFF1D4BA81F1A68CF
:100BB000874288BF0132A2601B68A26865609A42C2
:100BC00005D8184B1A68030C1B049A4206D020461D
:100BD000FFF7A2FE3046FFF75FFDDAE7BFB2B8428B
:100BE0000ED9114B19461A6812B15768BD4213D27B
:100BF00022601C600B689C42ECD1FFF783FEE9E7A2
:100C00000A4A136813B159688D4202D223601460F6
:100C1000E0E71A461B68F5E713461268E4E700BFF1
:100C2000B8030020BC030020C8030020C403002038
:100C300038B50446FFF728FD636805460BB9A3687D
:100C400013B12046FFF74CFF2846BDE83840FFF7B8
:100C500023BDC36870B504460D46CBB1FFF7E8FF6E
:100C60001D2D0DD8FFF73EFE0646FFF73BFE801B0D
:100C700080B28542F9D8D4E90330BDE87040184706
:100C8000FFF734FE29182046BDE87040FFF76ABF21
:100C900070BD00002DE9F04704460E4615461AB90E
:100CA000BDE8F047FFF7D5BFFFF7EEFC63680746E6
:100CB0000BB9A36813B12046FFF712FFDFF830A08D
:100CC000FFF714FEDAF800808146FFF70FFE81453A
:100CD000F6D83618454428BF013520466660A56021
:100CE000FFF71AFE3846BDE8F047FFF7D5BC00BF56
:100CF000B803002070B50E4E0E4D00F09DFA0E4C5C
:100D00000321304600F035F90321284600F031F97F
:100D10000321204600F02DF9304600F080F92846E6
:100D200000F07DF92046BDE8704000F078B900BFC2
:100D300002140140050C01400A10014070470000F8
:100D400008B50F4B0C461A689AB9012203281A609D
:100D500003D171460B4801F057F821460A4801F0CB
:100D600053F800F099F9094801F04EF8084801F0ED
:100D70004BF8FFF789FCFFF7E1FFFFF7ABFD00BF82
:100D8000CC030020962C00089A2C0008C22C0008E6
:100D9000B62C000808B500F0ABFB034801F034F8AE
:100DA00000F084FB002008BDC42C000808B500F04A
:100DB0003FF9FCE71FB50024FFF766FC0D4B0F223F
:100DC0001B684FF4807102930B4B019400930B4806
:100DD0000C2300F03BF80A4B07221B684FF4C0615C
:100DE000CDE90143074B084800930C2300F02EF88F
:100DF000FFF7D4FA18020020AD0D0008D003002040
:100E00001C020020950D0008D004002038B50B7995
:100E1000092B03D908490320FFF792FF4C7901F110
:100E20000802036813B98B60026038BD13F8035CD5
:100E3000AC42F8D31846F4E7842C0008031F53F89B
:100E4000042F9A42FBD0181A704700000F2A2DE990
:100E5000F74F05468B4691469A4633D810F0030368
:100E60000FBF0B46C3F10403ED18CB1A303B23F040
:100E700003031AF0080F05EB030419D12D6003E0FA
:100E800012600432A242FBD30193FFF7FDFB012263
:100E900080462749019B51F8226017B2AEB101325A
:100EA000212AF8D14046FFF7F7FB6FF08A073BE0B5
:100EB0002A46E7E701212046FFF7AEF94046FFF753
:100EC000EBFB31E06FF015072EE041F822402A4697
:100ED000DDE90C01E780FFF715FA0E9B154AA362C6
:100EE0004FF0FF33C4E9073613681AF0010F03F11E
:100EF000010320606562C4F82CB084F80590267167
:100F0000C4E90266C4E90466A6611360D2D10B216C
:100F10002046FFF781F91AF0040FCFD14046FFF7C2
:100F2000BBFB4846FFF7B8F9384603B0BDE8F08F81
:100F3000E00200209C02002038B5054600F082FA4D
:100F4000044605F1100000F005FB204638BDF8B559
:100F500004460D46164600F1100732462946204643
:100F600000F05DFA00B1F8BD0121384600F0C2FA88
:100F7000F3E7FF29F8B504460E4620F00F0500F010
:100F80000F0727D00421C0F38323023B994001209F
:100F900000F07CF90F21FB1004F0070455F8232022
:100FA000A400A14022EA010245F8232055F82310AD
:100FB00006F00F0202FA04F40C4345F82340012323
:100FC0000020EA68BB40182E0CBF134322EA03033B
:100FD000EB60F8BD4FF0FF30FBE738B50D4604215C
:100FE000C0F383230446023B9940012000F04EF9F0
:100FF0000F2024F00F03C4F3C00204F0070453F8D9
:101000002210A400A04021EA000143F8221053F866
:10101000221005FA04F40C4343F8224038BD0123A2
:1010200020F00F0200F00F0003FA00F0106170478B
:10103000F8B50C4D2E6816F47F4F11D1F4B2003480
:1010400018BF0124FFF720FB2B6807469E4202D100
:101050002046FFF709FC3846BDE8F840FFF71CBB07
:101060000224EFE72002002038B5094D04462B5C2E
:10107000FF2B03D107490320FFF762FEFFF704FBB4
:101080002B5D0133DBB22B55BDE83840FFF704BBC5
:1010900020020020842C00082DE9F04F2D4B8BB04E
:1010A0001B882D4A2D492E48ADF8243000F0ACFEA7
:1010B000FFF75AF90546FFF76DF90446FFF766F9A1
:1010C0002A46009023464FF40071264800F09CFE0B
:1010D00001264FF40077DFF89C90DFF89CA0DFF842
:1010E0009CB025EAE57559F826401CB394F80480B5
:1010F000E26A5AF82830606A079317440692FFF7AD
:101100009DFE069AB4F90610101A2268054405924D
:10111000626A079BCDE90302E26A5846029262794D
:10112000019209AAB8F1090FC8BF01320092A26A60
:1011300000F06AFE0136212ED5D10B4BCDE90175A9
:1011400000930A4A19460A4800F05EFE0BB0BDE85B
:10115000F08F00BF072D0008092D00080F2D000893
:10116000142D00085C2D0008E22D0008E42D000875
:10117000E82D0008E0020020082E0008A62D000837
:1011800038B5FFF781FA00231D4D0446AB6000F02F
:101190003BF84FF480636B602B465A6812F00C0FDB
:1011A000FBD11221174A116081221A601A6842F499
:1011B00080321A601A689103FCD55A6822F47C12B6
:1011C0005A605A6842F4E8125A605A6842F400328F
:1011D0005A601A6842F080721A601A689201FCD54F
:1011E0005A6842F002025A605A6802F00C02082A59
:1011F000FAD100F015F82046BDE83840FFF74CBAA8
:101200000010024000200240044B1A6842F0010224
:101210001A601A689207FCD5704700BF00100240A0
:10122000044B5A6812F00C0F1EBF1A6822F001021C
:101230001A6070470010024008B500F0B1F94FF095
:101240008051002000F022F8FFF79AFFBDE8084027
:1012500000F00BB9034A044B00280CBF1046184697
:10126000704700BF0051250200A24A04044A054B02
:10127000002818BF1346044A105C5843704700BF4B
:1012800000A24A0400512502932E000801280AD02A
:1012900004D302280CD0BFF34F8F7047074AD3699D
:1012A0001943D161F7E7054A936919439161F2E760
:1012B000024A536919435161EDE700BF0010024033
:1012C0002DE9F84307460024114A0301D558DFF8F9
:1012D00048802E69EB6808EBC0091E400223A3403A
:1012E000334209D0EA68214622EA0303EB60D9F8C9
:1012F000040058F8373098470134042CEED1054BE0
:101300001B681BB1BDE8F843FFF74CB8BDE8F88394
:10131000982E000898020020D00A0020032910B55A
:1013200016DC0D4B00011C18185863681A4001F1B7
:101330000C0300EB83035A600223026903FA01F1F4
:1013400022EA01020261C3681943C160002010BD96
:101350004FF0FF30FBE700BF982E0008024B000162
:101360001B58586A704700BF982E0008034B0001B5
:101370001A58136843F0010313607047982E000851
:1013800001282DE9F84305460F4630D8194E0401CF
:1013900006EB0408184998F80C9041F8302001EB4E
:1013A000C0014B604846D8F80810FFF76FFF365968
:1013B0000024D8F80430346048467460F362FFF7C4
:1013C00055FFB0FBF7F0012398F80D20013851B21A
:1013D00002F01F02B06273619340084A490928462F
:1013E00042F82130FFF7C2FF2046BDE8F8834FF0F6
:1013F000FF30FAE7982E0008D00A002000E100E054
:101400000020FFF75DBF0120FFF75ABF8268016827
:10141000531C83604368013B1340C85C7047F8B5B8
:1014200005460F46164614461CB1AA68EB689A4258
:1014300001D1301BF8BD2846FFF7E8FF013C07F853
:10144000010BF1E7C26830B584684368121B9A4209
:1014500008D0C2680468551CC5600020013B1340D9
:10146000E15430BD4FF0FF30FBE7704770B50B48DB
:1014700000F052FD0A4E0B4D0021304600F0FCF901
:1014800000202C68FFF76AFF2B689C42F8D144EAE1
:101490000001054800F0B8FCEEE700BFCF2E0008C1
:1014A00080841E00BC030020E32E000810B5002439
:1014B000A4B00B4800F030FD0A4B019402930A4B94
:1014C000062200934FF4C06108230848FFF7BEFCD2
:1014D0002046802204A900F093F8204624B010BDD5
:1014E000B82E0008C82E00086D140008E00A00207D
:1014F000FFF726BB70B504460D46FFF7C5F8236815
:1015000006463BB94FF0FF332360FFF7C5F80125CE
:10151000284670BDC5B10E4B02211D682846FEF756
:101520007BFE236801330AD105F108032360002301
:10153000AB603046FFF7B0F8FEF734FFE7E7294627
:101540002046FFF763FCF4E7FFF7A6F8E0E700BFEB
:101550009402002070B50446FFF796F82568064609
:101560001DB9BDE87040FFF797B86B1C02D100238E
:101570002360F6E7284650F808390B212360FEF770
:101580004BFE236813B94FF0FF33236015F8034C6B
:101590003046FFF781F82046BDE87040FEF77CBE7C
:1015A0000C4B0D4A10B59A60102200210B4C83F8A9
:1015B0002220DA77601801313C2980F80023F9D124
:1015C0001A6942F010021A615A6942F400725A61B3
:1015D00010BD00BF00ED00E00000000800E100E0E9
:1015E00008B53E2000F028FC202000F025FC034B2D
:1015F0001B689868BDE8084000F02ABA2402002061
:101600002DE9F04F83B000AF06460D463A604FF02B
:101610000008FFF7E5FF2C463B6803F1FF39631B29
:101620004B4580F2F98000F00BFB031EC0F2F48002
:101630000D2B01D00A2B1BD184F800800D2000F067
:10164000FBFB0A2000F0F8FBA5420ED000202B4641
:101650008346197820292FD9222901D0272936D16C
:101660005C78F4B96E4800F057FCFFF7B9FFD2E799
:10167000082B01D07F2B10D1A542D0D004F8018CCB
:10168000082000F0D9FB202000F0D6FB082004F150
:10169000FF3B00F0D1FB5C46C1E704F1010B237076
:1016A000F7E75C2C0DD001331C788C42D8D15978E7
:1016B0002029D7D80BF1010B1C78CCB103F8018B92
:1016C000C7E79C78002CCDD001300233ECE71C78C2
:1016D00059785C2C0AD101300029C3D0591C4B1C0D
:1016E00049782229BED02029F1D8E3E71946F6E748
:1016F000BBF1000FB9D04FEA8B030E3323F0070381
:10170000C7F804D0ADEB030DEA46AC464AF82B40CF
:101710009CF8003061460CF1010C002BF8D0222B14
:1017200001D0272B00D101314AF824108C469CF8B7
:1017300000300131002BF9D101345C45E8D1AAF128
:10174000040C10B15CF8041F91B9DAF80090D6B11E
:1017500034462068B8B1494600F029FC00283BD047
:101760000C34F6E75C2B03D123783BB90138ECD07D
:101770000C4611F8013B002BF4D1E2E794F801E0AC
:1017800004F801EBF0E7274CF4B9DAF8001026482A
:1017900000F00DFC002839D1244A2549254800F0E5
:1017A00033FB254800F0B8FBFEB1DFF8889006F166
:1017B0000C040C3454F8181CB9B154F8142C4846D5
:1017C00000F022FBF5E70C3420680028DDD0494604
:1017D00000F0EDFB0028F6D1A468002CD5D05146CE
:1017E0005846A047D7F804D03FE70E4C002CF9D05C
:1017F000DFF840900C340C3454F8181C0029F1D058
:1018000054F8142C484600F0FFFAF4E7DAF8001018
:101810000A4800F0F9FAE5E70C37BD46BDE8F08F5D
:10182000EF2E0008742F0008082F00080D2F000865
:10183000192F0008212F00082B2F0008532F000814
:1018400008B500F043F8002008BD08B5FFF724FCF8
:10185000002008BDFFF77EBE38B504460020FFF724
:101860007DFD0546A4B20020FFF778FD401B80B245
:10187000A042F8D338BD000030B587B004460D460D
:10188000FEF70DFF48B11DB10E490320FFF758FACE
:101890002046FFF7E1FF07B030BD0B4B0090CDE9CC
:1018A0000200012168460493CDF814D0FFF722FE10
:1018B000214601A82A46FFF7EDF901216846FFF706
:1018C00019FEE8E7842C000855180008BFF34F8F75
:1018D0000549064BCA6802F4E0621343CB60BFF3CC
:1018E0004F8F00BFFDE700BF00ED00E00400FA05E8
:1018F0008A892DE9F041054610070C4658D44B68FB
:10190000002B05DC0B6C002B02DC0020BDE8F08115
:10191000E66A002EF9D0002312F480522F68216A63
:101920002B6032D0606DA3895A0705D56368C01A51
:10193000636B0BB1236CC01A00230246E66A216A6E
:101940002846B047431CA38906D129681D2948D8D9
:10195000294ACA40D60744D5002262602269D904C8
:10196000226004D5421C01D12B6803B96065616B0C
:101970002F600029C9D004F14403994202D02846BF
:1019800000F09CF900206063C0E701232846B047BF
:10199000411CC8D12B68002BC5D01D2B01D0162BA4
:1019A00001D12F60B1E7A38943F04003A381ADE7E4
:1019B0000F69002FA9D0930718BF00230E6808BF36
:1019C0004B69A6EB07080F608B60B8F1000F9CDD38
:1019D00043463A46216A2846A66AB047002806DCF4
:1019E000A38943F04003A3814FF0FF308EE7074403
:1019F000A8EB0008E9E700BF0100402038B50B69FB
:101A000005460C46DBB118B183690BB900F072F8DA
:101A10000C4B9C4209D16C68B4F90C307BB1214667
:101A20002846BDE83840FFF763BF074B9C4201D111
:101A3000AC68F1E7054B9C4208BFEC68ECE700207E
:101A400038BD00BFFC2F00081C300008DC2F000848
:101A5000014620B9044B0549186800F0D3B8044B7F
:101A60001868FFF7CBBF00BF3C300008FD19000825
:101A700024020020002310B50446C0E9003383602F
:101A800081814366C281C0E904338361194608221B
:101A90005C3000F00BF9054B24626362044BA362D7
:101AA000044BE362044B236310BD00BF291F0008F1
:101AB0004B1F0008831F0008A71F0008014900F002
:101AC000A1B800BFFD19000870B568254A1E55432E
:101AD0000E4605F1740100F03DF9044640B10021C5
:101AE000C0E900160C30A06005F1680200F0DEF8D5
:101AF000204670BD836910B5044633BBC0E912337C
:101B00000365124B124A1B688262984204BF01238C
:101B1000836100F01FF86060204600F01BF8A060B1
:101B2000204600F017F80022E06004216068FFF70B
:101B3000A1FF01220921A068FFF79CFF02221221C8
:101B4000E068FFF797FF0123A36110BD3C30000858
:101B5000BD1A0008F8B51B4B07461E68B36913B9D8
:101B60003046FFF7C7FF4836D6E90134013B03D5BD
:101B7000336833B13668F7E7B4F90C506DB16834A7
:101B8000F4E704213846FFF79FFF30600028F1D1C9
:101B90000C2304463B602046F8BD0B4B6566C4E948
:101BA0000055A560C4E90335C4E905550822294656
:101BB00004F15C0000F07AF8C4E90D55C4E912554F
:101BC000E9E700BF3C3000080100FFFF2DE9F041CC
:101BD0008846002600F1480414B93046BDE8F0817B
:101BE000D4E90175013F01D52468F5E7AB89012BE4
:101BF00006D9B5F90E30013302D02846C047064356
:101C00006835EFE72DE9F84380468946002600F164
:101C1000480414B93046BDE8F883D4E90175013FA2
:101C200001D52468F5E7AB89012B07D9B5F90E304A
:101C3000013303D029464046C84706436835EEE7DE
:101C4000074B10B51C6824B1A36913B92046FFF7F0
:101C500051FF61682046BDE8104000F073BA00BF34
:101C60002402002070B500250C4E0D4CA41BA410BE
:101C7000A54209D1FEF75EFA00250A4E0A4CA41BC4
:101C8000A410A54205D170BD56F8253098470135FE
:101C9000EEE756F8253098470135F2E77430000832
:101CA00074300008743000087430000803460244A1
:101CB000934200D1704703F8011BF9E738B5054698
:101CC000002943D051F8043C0C1F002BB8BFE41886
:101CD00000F0C8FA1E4A1368104633B963601460F6
:101CE0002846BDE8384000F0BEBAA3420BD92168AF
:101CF0006218934201BF1A685B68521822606360E1
:101D00000460EDE713465A680AB1A242FAD919688D
:101D10005818A0420BD1206801445818824219601B
:101D2000DED110685268014419605A60D8E702D9C0
:101D30000C232B60D4E7206821188A4201BF116868
:101D400052680918216062605C60C9E738BD00BF55
:101D5000E010002070B5CD1C25F0030508350C2DD2
:101D600038BF0C25002D064601DBA94203D90C2300
:101D70003360002070BD00F075FA214A14682146D6
:101D800091B9204C23681BB93046FEF7D7F9206083
:101D900029463046FEF7D2F9431C24D10C233046A5
:101DA000336000F060FAE4E70B685B1B18D40B2B80
:101DB0000FD90B60CC18CD50304600F054FA04F126
:101DC0000B00231D20F00700C31AD3D05A42E25063
:101DD000D0E74B688C4216BF636013600C46EBE79C
:101DE0000C464968CCE7C41C24F00304A04205D08B
:101DF000211A3046FEF7A2F90130CFD02560DBE78B
:101E0000E0100020E41000200FB40A4B13B51C684A
:101E100024B1A36913B92046FFF76CFE05AB049A01
:101E2000A1682046019300F047FA02B0BDE81040D7
:101E300004B070472402002038B5084B05461C68E2
:101E400024B1A36913B92046FFF754FEA2682946BE
:101E50002046BDE8384000F0CDBC00BF2402002081
:101E600070B50E46054618B183690BB9FFF742FEFF
:101E7000AB69AC6813B92846FFF73CFE234B9C4284
:101E800017D16C68A3891B071DD52369DBB1013EFF
:101E9000A36816F8011F013BA360E9B9002B2EDAF5
:101EA00022460A21284600F08DF8013011D00A2080
:101EB00011E0174B9C4201D1AC68E3E7154B9C4203
:101EC00008BFEC68DEE72146284600F0CDF8002880
:101ED000DDD04FF0FF3070BD002B04DAA2699A42CA
:101EE00006DC0A2904D023685A1C22601970CFE747
:101EF0002246284600F066F80130C9D1E9E70A20F9
:101F000023685A1C22601870E5E700BFFC2F000808
:101F10001C300008DC2F0008024B01461868FFF750
:101F20009FBF00BF2402002010B50C46B1F90E106F
:101F3000FEF722F90028ABBF636DA3891B1823F4B9
:101F40008053ACBF6365A38110BD2DE9F0411F46EE
:101F50008B890546DB050C46164605D50223002273
:101F6000B1F90E10FEF715F9A389324623F4805318
:101F7000A381B4F90E103B462846BDE8F041FEF7B8
:101F8000FFB810B50C46B1F90E10FEF702F9431C6C
:101F9000A38915BF606523F4805343F48053A38164
:101FA00018BFA38110BDB1F90E10FEF7EDB810F8FF
:101FB000012B11F8013B012A28BF9A42F7D0D01A11
:101FC00070470000F8B50E461446054618B18369FF
:101FD0000BB9FFF78FFD214B9C422AD16C68A36996
:101FE000A360A3891A072ED5236963B323692068E8
:101FF000F6B2C01A63693746834204DC214628469C
:10200000FFF7FCFC28BBA3680130013BA3602368F9
:102010005A1C22601E706369834204D0A389DB07C7
:1020200019D50A2E17D121462846FFF7E7FC90B1B3
:102030000FE00B4B9C4201D1AC68D0E7094B9C42AE
:1020400008BFEC68CBE72146284600F00DF80028D1
:10205000CCD04FF0FF373846F8BD00BFFC2F00084A
:102060001C300008DC2F0008324B70B51D68064696
:102070000C4625B1AB6913B92846FFF73BFD2E4B43
:102080009C420FD16C68B4F90C309AB215072CD46D
:10209000D00611D40922326043F04003A3814FF0EF
:1020A000FF303EE0254B9C4201D1AC68EBE7244B6E
:1020B0009C4208BFEC68E6E7510712D5616B41B15D
:1020C00004F14403994202D03046FFF7F7FD0023A4
:1020D0006363A38923F02403A3810023636023693E
:1020E0002360A38943F00803A38123694BB9A38923
:1020F00003F42073B3F5007F03D02146304600F08F
:1021000071F8A28912F001030CD00023A360636967
:102110005B42A361236953B9B4F90C3013F080001A
:10212000BAD170BD920758BF6369A360F2E700207F
:10213000F7E700BF24020020FC2F00081C30000835
:10214000DC2F000838B50C46054618B183690BB979
:10215000FFF7D0FC0E4B9C420BD16C686368013BCF
:10216000002B63600FDA21462846BDE8384000F0B6
:1021700077BB084B9C4201D1AC68EFE7064B9C4211
:1021800008BFEC68EAE723685A1C2260187838BD5B
:10219000FC2F00081C300008DC2F000870B50E462C
:1021A000B1F90E1096B0002914461D4607DA002337
:1021B0002B60B3891A0610D44FF480630EE06A4690
:1021C000FDF7ECFF0028F2DB019A02F47042A2F561
:1021D00000535A425A412A60EEE740230020236010
:1021E00016B070BD8B8973B59D0706460C4607D5A2
:1021F00004F14703236023610123636102B070BDD2
:1022000001AB6A46FFF7CAFF009905463046FFF763
:10221000A1FD48B9B4F90C309A05EFD423F00303BB
:1022200043F00203A381E3E70D4BB362A38920606F
:1022300043F08003A381009B20616361019B5BB13C
:10224000B4F90E103046FDF7AEFF28B1A38923F094
:10225000030343F00103A381A3891D43A581CDE7B7
:10226000BD1A000870477047936810B4013B002BFB
:10227000936007DA9469A34201DB0A2902D110BCFA
:10228000FFF7A0BE1368581C10601970084610BCF8
:102290007047F8B506460F461446D518AC4201D132
:1022A000002007E03A4614F8011B3046FFF7DCFF38
:1022B000431CF3D1F8BD00002DE9F04F0C469DB052
:1022C00017461D46064618B183690BB9FFF712FC85
:1022D0007C4B9C4258D17468A38918075ED523694A
:1022E000002B5BD00023099320238DF82930302365
:1022F0004FF0010B8DF82A300395B846454615F886
:10230000013B0BB1252B54D1B8EB070A0BD0534638
:102310003A4621463046FFF7BCFF013000F0C2804C
:10232000099B5344099398F80030002B00F0BA80C1
:1023300000234FF0FF32CDE90523049307938DF876
:1023400053301A93A846052218F8011B5E4800F086
:10235000B3FA049B78BBD90644BF20228DF85320E2
:102360001A0744BF2B228DF853202A782A2A2AD014
:10237000A84600200A25079A414611F8013B303B48
:10238000092B69D960B324E0504B9C4201D1B46859
:10239000A2E74F4B9C4208BFF4689DE721463046B8
:1023A000FFF762FE00289DD04FF0FF301DB0BDE862
:1023B000F08FA846A2E7444A4546801A0BFA00F07F
:1023C00018430490BEE7039A111D12680391002A76
:1023D00001DB079204E0524243F0020307920493A8
:1023E00098F800302E2B0ED198F801302A2B38D1D6
:1023F000039B08F102081A1D1B680392002BB8BF4B
:102400004FF0FF330593334D032298F80010284610
:1024100000F052FA40B14023401B03FA00F0049B45
:1024200008F101080343049398F8001006222A4893
:1024300008F101078DF8281000F03EFA002837D087
:10244000264B1BBB039B073323F00703083303937F
:10245000099B4B44099350E705FB02320120884653
:102460008AE700230A25194608F10108059340462A
:1024700010F8012B303A092A03D9002BC3D005915B
:10248000C1E705FB012101238046F0E703AB009380
:102490002246134B04A93046AFF30080B0F1FF3F52
:1024A0008146D5D1A3895B063FF57EAF09987DE7CC
:1024B00003AB009322460A4B04A9304600F088F88B
:1024C000ECE700BFFC2F0008403000081C3000087B
:1024D000DC2F0008463000084A30000800000000E9
:1024E000932200082DE9F04791461F468A680B6940
:1024F00006469342B8BF1346C9F8003091F843200E
:102500000C46DDF8208012B10133C9F80030236891
:10251000990642BFD9F800300233C9F80030256867
:1025200015F0060507D104F1190AE368D9F800206F
:102530009B1AAB4229DC94F843302268003318BF61
:10254000012392062ED404F1430239463046C04797
:10255000013021D02368E56803F00603042B18BF7F
:102560000025D9F800204FF0000908BFAD1AA36874
:10257000226908BF25EAE5759342C4BF9B1AED188E
:102580001A344D451AD1002008E00123524639463D
:102590003046C047013003D14FF0FF30BDE8F0872F
:1025A0000135C2E73020E11881F843005A1C94F845
:1025B00045102244023382F84310C4E70123224627
:1025C00039463046C0470130E6D009F10109D8E765
:1025D0002DE9F04301F1430C0C46097E85B06E29CC
:1025E0001746064698460C9A00F0B38022D8632915
:1025F00036D00AD8002900F0B980582900F083802D
:1026000004F1420584F8421032E0642901D06929BE
:10261000F6D120681368050603F104012AD51B686A
:102620001160002B03DA2D225B4284F843206F48AF
:102630000A2239E0732900F09D8008D86F2920D044
:102640007029DDD1236843F02003236003E075295E
:1026500017D07829D4D17823654884F8453055E0DF
:10266000136804F14205191D1B68116084F842309B
:1026700001238CE01B6810F0400F116018BF1BB2E3
:10268000CFE713682568181D1060280601D51B6860
:1026900002E06806FBD51B886F2914BF0A220822B6
:1026A0005248002184F843106568002DA560C0F2EF
:1026B0009580216821F004012160002B3DD1002D7F
:1026C00040F08E806546082A0BD12368DB0708D5C9
:1026D000236962689A42DEBF302305F8013C05F1A8
:1026E000FF35ACEB05032361CDF800803B4603AA20
:1026F00021463046FFF7F6FE01304DD14FF0FF3056
:1027000005B0BDE8F083394884F8451013682168A6
:102710001D1D1B6815600A060BD5CA0744BF41F092
:10272000200121601BB9226822F0200222601022C1
:10273000B7E74D0648BF9BB2EFE76546B3FBF2F142
:1027400002FB1133C35C05F8013D0B460029F5D1AE
:10275000B9E713682568181D6169106028061B68B1
:1027600001D5196002E06A06FBD519800023654691
:102770002361B9E71368191D11601D6862680021A3
:10278000284600F099F808B1401B60606368236137
:10279000002384F84330A7E723692A4639463046A8
:1027A000C0470130AAD023689B0713D4E068039B7D
:1027B0009842B8BF1846A3E701234A463946304637
:1027C000C04701309AD00135E368039A9B1AAB42A7
:1027D000F2DCEBE7002504F11909F5E7002BACD199
:1027E000037804F1420584F842306CE75130000868
:1027F0006230000870B50D461446064618B183696C
:102800000BB9FFF777F9134B9C4212D17468A36898
:10281000013B002BA36016DAA269934202DBEBB204
:102820000A2B10D1224629463046BDE87040FFF7FA
:10283000C9BB094B9C4201D1B468E8E7074B9C42F5
:1028400008BFF468E3E72368E8B25A1C22601D70F1
:1028500070BD00BFFC2F00081C300008DC2F0008F2
:1028600038B50C46054618B183690BB9FFF742F934
:102870000E4B9C420DD16C682146284600F034F87E
:1028800088B96368013B636023685A1C226018782A
:1028900038BD074B9C4201D1AC68EDE7054B9C422B
:1028A00008BFEC68E8E74FF0FF30F1E7FC2F0008C5
:1028B0001C300008DC2F000810B5C9B20244904259
:1028C000034601D1002303E01C7801308C42F6D18D
:1028D000184610BD838903F00903092B01D1FFF7C6
:1028E000B7B8002070470000F8B50C46054618B18F
:1028F00083690BB9FFF7FEF83C4B9C420AD16C6828
:102900000023B4F90C20636093B29E060CD54FF0FF
:10291000FF3068E0364B9C4201D1AC68F0E7354BA4
:102920009C4208BFEC68EBE758074AD4D90605D4A7
:10293000092342F040022B60A281E8E71A070BD579
:1029400021462846FFF75AF80028E0D1A389A06065
:1029500023F00803A381A061A38943F00403A381AA
:1029600023691BB921462846FFF73CFCB4F90C70DB
:10297000BEB2B3070FD00123A3811F4B1F491868B4
:1029800006F00906FFF722F9092EA78103D1214697
:102990002846FEF7ADFF2269666A22606369216AF4
:1029A0002846B047002860601EDC18BF0022B4F93A
:1029B0000C3016BF626043F0200343F04003A38154
:1029C000A5E7616B0029CBD004F14403994202D002
:1029D0002846FFF773F90020236C60636360002BC7
:1029E000BED0E36B2360F8BD0020FCE7FC2F00089D
:1029F0001C300008DC2F00083C300008D5280008F7
:102A0000425553204641554C542048414E444C4574
:102A100052004445425547204D4F4E2048414E44B8
:102A20004C45520044554D4D592048414E444C456B
:102A300052000A49535220737461636B206F7665AC
:102A400072666C6F77656400537461636B20706F9E
:102A5000696E74657220636F727275707465642C30
:102A600020726573657420746F20746F70206F66B8
:102A700020737461636B000A436F6E746578742011
:102A80006265666F726520686172646661756C74F8
:102A90003A0020202072303A2030782530386C7887
:102AA0000A20202072313A2030782530386C780A9C
:102AB00020202072323A2030782530386C780A2075
:102AC000202072333A2030782530386C780A002084
:102AD000207231323A2030782530386C780A202044
:102AE000206C723A2030782530386C780A2020200B
:102AF00070633A2030782530386C780A2020707363
:102B0000723A2030782530386C780A0A00465352E1
:102B10002F4641523A0020434653523A20307825FE
:102B200030386C780A0020484653523A20307825D5
:102B300030386C780A0020444653523A20307825C9
:102B400030386C780A0020414653523A20307825BC
:102B500030386C780A0020424641523A20307825BD
:102B600030386C780A004D4D4641523A2030782575
:102B700030386C780A004D697363004558435F52E2
:102B800045543A2030782530386C780A0041747406
:102B9000656D7074696E6720746F207265636F6E07
:102BA00073747275637420737461746520666F72D8
:102BB00020646562756767696E672E2E2E00496E08
:102BC000204744423A0A2020736574202470633DF4
:102BD0003078256C780A20206672616D6520300A95
:102BE000202062740A000A49535220737461636B97
:102BF000206F766572666C6F7765642062792061FC
:102C000074206C6561737420256420627974657327
:102C10002E0A0048415244204641554C5420484118
:102C20004E444C4552004D454D204D414E41474587
:102C30002048414E444C4552004E4D492048414E9B
:102C4000444C4552005553414745204641554C544C
:102C50002048414E444C45520000000000380140DD
:102C6000004000000A080140090801400125000059
:102C70000044004000000200030801400208014037
:102C8000002600004641494C4544204153534552DB
:102C900054494F4E2E0025700A002A2A2A205249F4
:102CA0004F54206B65726E656C2070616E69633A7B
:102CB0000A25730A0A002A2A2A2068616C7465644E
:102CC0002E0A0A006D61696E28293A2054686973DA
:102CD0002069732052494F54212028566572736928
:102CE0006F6E3A20323031382E31302D5243312D33
:102CF0003532302D676437633832290A0069646CD5
:102D000065006D61696E005F517374617465006E7A
:102D1000616D650009706964207C20252D32317356
:102D20007C20252D397351207C20707269207C20F5
:102D3000737461636B202028207573656429207C7F
:102D40002062617365206164647220207C20637559
:102D50007272656E7420202020200A000920202D28
:102D6000207C206973725F737461636B2020202064
:102D700020202020202020207C202D2020202020EA
:102D80002020202D207C2020202D207C202536690D
:102D9000202825356929207C2025313070207C2091
:102DA000253130700A000925336869207C20252DE3
:102DB000323073207C20252D387320252E3173204E
:102DC0007C20253369207C2025366920282535691B
:102DD00029207C2025313070207C20253130702046
:102DE0000A007C0053554D000925357320252D32EE
:102DF00031737C25313373253673202536692028BD
:102E0000253569290A000000382E0008402E0008E8
:102E1000492E0008522E0008582E0008602E000887
:102E2000692E0008722E00087B2E000800000000AA
:102E3000832E00088B2E000873746F707065640019
:102E4000736C656570696E6700626C206D75746582
:102E50007800626C20727800626C2073656E64008A
:102E6000626C207265706C7900626C20616E7966AC
:102E70006C00626C20616C6C666C00626C206D6230
:102E80006F780072756E6E696E670070656E64694A
:102E90006E6700020100000000000040FFFF00001C
:102EA00001000000001C000000040040FFFF0000C3
:102EB00002000000001D000054686973206973203F
:102EC0005461736B2D30340074687265616400491D
:102ED000276D20696E202274687265616422206EFD
:102EE0006F77006E6F773A20256C646D730A0073FC
:102EF00068656C6C3A20696E636F727265637420EA
:102F000071756F74696E670068656C7000446573F5
:102F10006372697074696F6E00436F6D6D616E648A
:102F200000252D3230732025730A002D2D2D2D2DD7
:102F30002D2D2D2D2D2D2D2D2D2D2D2D2D2D2D2DC1
:102F40002D2D2D2D2D2D2D2D2D2D2D2D2D2D2D2DB1
:102F50002D2D007368656C6C3A20636F6D6D616E2A
:102F600064206E6F7420666F756E643A2025730A54
:102F700000000000982F00089F2F0008411800084B
:102F8000AF2F0008B22F00084B1800080000000007
:102F900000000000000000007265626F6F74005254
:102FA00065626F6F7420746865206E6F6465007071
:102FB00073005072696E747320696E666F726D6112
:102FC00074696F6E2061626F75742072756E6E69C0
:102FD0006E6720746872656164732E0000000000E3
:102FE00000000000000000000000000000000000E1
:102FF00000000000000000000000000000000000D1
:1030000000000000000000000000000000000000C0
:1030100000000000000000000000000000000000B0
:1030200000000000000000000000000000000000A0
:103030000000000000000000000000002802002046
:10304000232D302B2000686C4C0065666745464791
:103050000030313233343536373839414243444514
:103060004600303132333435363738396162636483
:043070006566000091
:10307400EC10002064030020400000000000000069
:103084000000000000000000FD2C0008022D0008D4
:10309400010101012802002000000000FC2F0008AB
:1030A4001C300008DC2F00080000000000000000B5
:1030B400000000000000000000000000000000000C
:1030C40000000000000000000000000000000000FC
:1030D40000000000000000000000000000000000EC
:1030E40000000000000000000000000000000000DC
:0C30F40000000000000000002821000087
:040000050800049556
:00000001FF
