:020000040800F2
:10000000000200209504000831040008ED030008F8
:1000100041040008510400086104000800000000C9
:10002000000000000000000000000000D1030008F4
:100030007104000800000000B503000881040008F6
:1000400031010008310100083101000831010008C8
:1000500031010008310100082111000821110008B8
:1000600021110008211100082111000831010008A8
:100070003101000831010008310100083101000898
:100080003101000831010008310100083101000888
:100090003101000831010008310100082111000878
:1000A0003101000831010008310100083101000868
:1000B000A5150008AB150008310100083101000842
:1000C0003101000831010008310100083101000848
:1000D000310100085D0800086308000831010008CC
:1000E0002111000831010008310100083101000828
:1000F0003101000831010008310100083101000818
:100100003101000831010008310100083101000807
:1001100031010008310100083101000831010008F7
:1001200031010008310100083101000831010008E7
:1001300000F0A6B900F0B8BA7047000070B50C46E0
:10014000064600F0A1FA094B094A1D682C44944266
:1001500002D8084A944207D20C234FF0FF3533608F
:1001600000F09AFA284670BD1C60F9E700020020F2
:1001700000000120142E00201946104600F0A0BAFD
:100180001946104600F0A4BA132303604FF0FF3065
:100190007047132303604FF0FF3070471323036051
:1001A0004FF0FF3070470023022903608CBF00200E
:1001B00001207047134910B50C68002094FAA4F18F
:1001C0008442B1FA81F108BF4FF0FF310E4C0F4B62
:1001D00054F8211018600E4B09681A68A1F1080440
:1001E00094420ED022B110790A2804BF0B2010715E
:1001F0000A22012001F8042C31F9021C054A1C6076
:10020000118010BD90020020A40200209C0200205A
:100210009802002094020020092930B503791AD9E8
:10022000092B14D842791A4B00F1080453F82250D4
:100230007DB12D68856053F822502C6043F8224030
:100240000123144A4479A3401468234313600171C5
:1002500030BD8460F2E7092BF9D945790C4B53F88E
:1002600025203AB11468A2420BBF0022246843F84B
:1002700025201460427953F82230002BE7D1012366
:10028000044C03FA02F2236823EA02032360DEE748
:10029000A40200209002002008B5094B1B681A79BF
:1002A000092A02D95B79834205D900F0F8F918B11F
:1002B0000122044B1A6008BDBDE8084000F072B886
:1002C000980200209C020020002408B500F0DCF910
:1002D000084B094A1B88094D1BB242F82340084AC3
:1002E000214613682868013B1360FFF795FF2C60D7
:1002F00000F054F894020020E4020020980200204C
:10030000A002002013444FF0773223F0030310B50E
:100310001C1F43F8042C620742BF4FF08832A3F140
:10032000080443F8082C4FF0807344E902030D4B96
:10033000002244F80C3C0323022044E90532012347
:10034000224644E907300B2342F8201D42F8043DC1
:10035000013B032BFAD120466FF0020340F8443DE5
:1003600010BD00BFC90200080548064A064B0168D7
:10037000914201D1984201D3181A70470430F6E730
:1003800000000020FEE7FEE700020020EFF30880F7
:1003900070470000004870470000002000F078F926
:1003A00001DFFEE7024A536843F080535360704711
:1003B00000ED00E0EFF3098020E9F00F40F804EDD4
:1003C00002490968086000F003F800009802002064
:1003D000FFF7F0FE04480068016801C9B1E8F00FBA
:1003E00081F3098800470000980200200D4B0E4A57
:1003F0000E496846904203D8984201D9002102E094
:1004000009468D46012104207246024202D1EFF3D3
:10041000088001E0EFF309802DE9F00F6B4600F052
:100420006FF800BF580100200000012000020020EA
:1004300008B50249042000F083FC00BFAD5D000850
:1004400008B50249062000F07BFC00BF9A5D000859
:1004500008B50249072000F073FC00BF745B000878
:1004600008B50249082000F06BFC00BFB95D000828
:1004700008B50249092000F063FC00BF865B000854
:1004800008B502490A2000F05BFC00BF985B000839
:100490007047704708B5FFF7FBFF6A46114B1249DA
:1004A000934213D3114A124B12498B4211D30021AC
:1004B000114B124A934211D3FFF7EBFF00F01AFCE5
:1004C00004F008F9BDE8084000F074BC43F8041BD0
:1004D000E6E752F8040F43F8040BE6E743F8041B81
:1004E000E8E700BF00000020FEE7FEE7D86600084E
:1004F000000200209002002090020020142E002014
:100500002DE9F04F9A464A4B93469A6B8FB003926F
:100510005A6B9F6A0492DA6A044605921A6BDB6B87
:1005200006920793434B88461A68434B9A4202D07F
:10053000424804F0B7F9B8F1000F4ED0002540480A
:1005400004F0B0F92E463F4804F0ACF939463E4875
:1005500004F020F905993D4804F01CF906993C483F
:1005600004F018F907993B4804F014F93A0403D54C
:100570000399394804F00EF93B0603D5049937482E
:1005800004F008F9364804F08DF95946354804F06E
:1005900001F9B8F1000F1BD1334804F083F931465B
:1005A000324804F0F7F86946314BC91A03D549427D
:1005B000304804F0EFF820468268C36801698C4631
:1005C00041698E46AD46514691E8F00F416800689A
:1005D00001BE2949052000F0B3FBD4E902300890A0
:1005E0002069D4E906690990606919F4007F0A90CE
:1005F0002248D4E9001208BF04F12005CDE90C23FC
:1006000018BF04F124050B9104F04CF9089B0B99D9
:1006100000931B48DDE90C2304F0BCF8DDE9091266
:10062000CDF800903346174804F0B4F88BE700BFCC
:1006300000ED00E000000020FEE7FEE7A65B0008FA
:10064000BC5B0008815C00088A5C00089A5C0008BA
:10065000AA5C0008BA5C0008CA5C0008DA5C000802
:10066000EA5C0008EF5C0008015D0008325D0008EC
:10067000580100205A5D0008875D0008EB5B000808
:10068000065C0008435C0008EFF3108072B6704708
:1006900062B6EFF31080704780F310887047EFF375
:1006A0000580C0B270470000024B034A0349002096
:1006B00000F078B804020020390F000820A10700DC
:1006C0000A460146014800F042BC00BF0402002077
:1006D00010B50C460A460146002000F025F82046D9
:1006E00010BD000038B5142343430C4AD458256884
:1006F000AA0608D50A4B616803EBC002C9B253F8D9
:100700003030506898472B0748BF6368054B1B681B
:100710001BB1BDE83840FFF745BE38BDD05D0008CD
:10072000A80300209C020020012810B50AD8142339
:1007300058430A4B0A441B58914207D11A68520683
:10074000FCD510BD0649032000F0FAFA11F8010BA0
:100750001C682406FCD55860EEE700BFD05D000899
:10076000F85D0008012810B5044603D90A490320A2
:1007700000F0E6FA094B53F8303013B1012000F0D5
:1007800013FD1422064B02FB04346168207CBDE893
:10079000104000F033BE00BFF85D0008A803002041
:1007A000D05D000801282DE9F84304460D461746A0
:1007B00003D92649032000F0C3FA4FF01408244E51
:1007C000244A08FB0068D8F80C9042F8307002EB1D
:1007D000C00203215360484600F0CBFB484600F0BE
:1007E0001EFC0B21484600F0F8FB27B10421D8F885
:1007F000080000F0BEFB2046FFF7B4FF14235C4363
:10080000002306EB0408345998F81000E3602361D4
:10081000636100F0D7FDB0FBF5F080B2A0608FB14E
:10082000012198F811305AB203F01F0301FA03F3C3
:100830000949520941F8223042F22C03E3600020BA
:10084000BDE8F88342F20803F8E700BFF85D00084E
:10085000D05D0008A803002000E100E00020FFF7C1
:1008600041BF0120FFF73EBF10B598B1012821D04C
:100870000024164A136923F004031361FFF704FFF1
:10088000BFF34F8F30BFFFF707FFECB1BDE810405B
:1008900000F02EBD0E4B1A6842F00E021A605A6824
:1008A00042F480725A60094A0124136943F0040338
:1008B0001361E3E7064B1A6822F003021A601A6814
:1008C00042F001021A60EEE710BD00BF00ED00E04B
:1008D0000070004008B5FFF7D7FEBDE808400020D3
:1008E000FFF7C2BF002000F00BBE000038B5044C7B
:1008F0002568FFF7F7FF2368AB42F9D1184338BDED
:10090000C0030020034B196819B982B2084600F0F1
:10091000D7BD7047B803002010B5094A136843B12A
:100920009C6881688C4207D303D15C6841688C4223
:1009300002D90360106010BD1A461B68EFE700BFC4
:10094000C40300202DE9F047294E3268B24602F573
:100950008032326032681AB9264B1A6801321A6046
:100960000020254B254C1A681860236884461946D8
:10097000234FDFF880E0DFF88C803A6021B1DEF8A9
:1009800000508E68AE4217D900B12160BCF1000F53
:1009900010D00021CCF800103AB3C3B151685868A8
:1009A00081428CBF19461146084612681B6882B9FD
:1009B00003603960BDE8F0874D68DAF8009005EA19
:1009C00008054D45E0D18C4601200968D6E711465F
:1009D000EAE70BB90260ECE754685D68AC428CBF93
:1009E0001C46144604602046DFE73B60E2E700BF98
:1009F000C0030020BC030020C8030020C403002063
:100A0000CC0300200000FFFF01232DE9F041324F0D
:100A1000324C3B602368CBB9FFF794FF4FF6FF756C
:100A2000FFF760FFA842FBD000254FF000082368C5
:100A300083B9FFF757FF1430854228D9FFF782FFAB
:100A4000FFF750FF8542FBD30025F0E7FFF74AFF91
:100A50000546EAE75E68FFF745FF854205D8B3B271
:100A6000834202D91B1A132BE3D823685E68FFF771
:100A700039FF854202D8B6B28642F6D823681A6892
:100A8000C3E901882260D3E903209047CFE72368B8
:100A90006BB15E68FFF72AFF063E14308642C6D36C
:100AA000002330463B60BDE8F041FFF72BBFFFF766
:100AB00019FF8542064602D9FFF744FFC4E700F15B
:100AC00014039BB2984204D9FFF70CFF8642FBD96E
:100AD000F2E74FF6FF76E3E7B8030020CC030020EF
:100AE000144A1368834210D11B6813601BB1586805
:100AF0000638FFF707BF4FF6FF70FAE7984219680C
:100B000001D1116070471A460B46002BF6D10A4AF4
:100B100013681BB9094A136833B9704798421968BA
:100B2000EFD01A460B46F4E798421968E9D01A4606
:100B30000B46F1E7CC030020C8030020C4030020CB
:100B400008B50023054A1846054900F0EBFCBDE84E
:100B500008404FF0FF30FFF7D5BE00BF090A00087C
:100B600040420F00F8B504460D46FFF7BFFE0023D4
:100B700023602B1A1E2B07460DD8ADB2FFF7B2FE2D
:100B80008542FBD3FFF7AEFE8542FBD8D4E90330A4
:100B900098470020F8BDFFF777FD636806460BB95C
:100BA000A36813B12046FFF79BFF1D4BA81F1A68CF
:100BB000874288BF0132A2601B68A26865609A42C2
:100BC00005D8184B1A68030C1B049A4206D020461D
:100BD000FFF7A2FE3046FFF75FFDDAE7BFB2B8428B
:100BE0000ED9114B19461A6812B15768BD4213D27B
:100BF00022601C600B689C42ECD1FFF783FEE9E7A2
:100C00000A4A136813B159688D4202D223601460F6
:100C1000E0E71A461B68F5E713461268E4E700BFF1
:100C2000BC030020C0030020CC030020C803002028
:100C300038B50446FFF728FD636805460BB9A3687D
:100C400013B12046FFF74CFF2846BDE83840FFF7B8
:100C500023BDC36870B504460D46CBB1FFF7E8FF6E
:100C60001D2D0DD8FFF73EFE0646FFF73BFE801B0D
:100C700080B28542F9D8D4E90330BDE87040184706
:100C8000FFF734FE29182046BDE87040FFF76ABF21
:100C900070BD00002DE9F04704460E4615461AB90E
:100CA000BDE8F047FFF7D5BFFFF7EEFC63680746E6
:100CB0000BB9A36813B12046FFF712FFDFF830A08D
:100CC000FFF714FEDAF800808146FFF70FFE81453A
:100CD000F6D83618454428BF013520466660A56021
:100CE000FFF71AFE3846BDE8F047FFF7D5BC00BF56
:100CF000BC03002070B50E4E0E4D00F055FB0E4C9F
:100D00000321304600F035F90321284600F031F97F
:100D10000321204600F02DF9304600F080F92846E6
:100D200000F07DF92046BDE8704000F078B900BFC2
:100D300002140140050C01400A10014070470000F8
:100D400008B50F4B0C461A689AB9012203281A609D
:100D500003D171460B4803F01DFD21460A4803F0FC
:100D600019FD00F051FA094803F014FD084803F09A
:100D700011FDFFF789FCFFF7E1FFFFF7ABFD00BFB7
:100D8000D00300200A5E00080E5E0008A16500087E
:100D90002A5E000808B500F067FF034803F0FAFC7C
:100DA00000F0C8FD002008BD385E000808B500F05E
:100DB000DFF9FCE71FB50024FFF766FC0D4B0F229F
:100DC0001B684FF4807102930B4B019400930B4806
:100DD0000C2300F03BF80A4B07221B684FF4C0615C
:100DE000CDE90143074B084800930C2300F02EF88F
:100DF000FFF7D4FA18020020AD0D0008D40300203C
:100E00001C020020950D0008D404002038B50B7991
:100E1000092B03D908490320FFF792FF4C7901F110
:100E20000802036813B98B60026038BD13F8035CD5
:100E3000AC42F8D31846F4E7F85D0008031F53F8F6
:100E4000042F9A42FBD0181A704700000F2A2DE990
:100E5000F74F05468B4691469A4633D810F0030368
:100E60000FBF0B46C3F10403ED18CB1A303B23F040
:100E700003031AF0080F05EB030419D12D6003E0FA
:100E800012600432A242FBD30193FFF7FDFB012263
:100E900080462749019B51F8226017B2AEB101325A
:100EA000212AF8D14046FFF7F7FB6FF08A073BE0B5
:100EB0002A46E7E701212046FFF7AEF94046FFF753
:100EC000EBFB31E06FF015072EE041F822402A4697
:100ED000DDE90C01E780FFF715FA0E9B154AA362C6
:100EE0004FF0FF33C4E9073613681AF0010F03F11E
:100EF000010320606562C4F82CB084F80590267167
:100F0000C4E90266C4E90466A6611360D2D10B216C
:100F10002046FFF781F91AF0040FCFD14046FFF7C2
:100F2000BBFB4846FFF7B8F9384603B0BDE8F08F81
:100F3000E4020020A002002038B5054600F054FB72
:100F4000044605F1100000F0E3FE204638BDF8B578
:100F500004460D46164600F1100732462946204643
:100F600000F02FFB00B1F8BD0121384600F0A0FED3
:100F7000F3E7FF29F8B504460E4620F00F0500F010
:100F80000F0727D00421C0F38323023B994001209F
:100F900000F034FA0F21FB1004F0070455F8232069
:100FA000A400A14022EA010245F8232055F82310AD
:100FB00006F00F0202FA04F40C4345F82340012323
:100FC0000020EA68BB40182E0CBF134322EA03033B
:100FD000EB60F8BD4FF0FF30FBE738B50D4604215C
:100FE000C0F383230446023B9940012000F006FA37
:100FF0000F2024F00F03C4F3C00204F0070453F8D9
:101000002210A400A04021EA000143F8221053F866
:10101000221005FA04F40C4343F8224038BD0123A2
:1010200020F00F0200F00F0003FA00F0106170478B
:10103000012320F00F0200F00F0003FA00F05061CE
:10104000704700002DE9F84F4FF0010900F00F053F
:1010500009FA05FA6FEA0A089B462E4C17462268E1
:10106000064602EA08022260FFF783FF2A4A0A9B2B
:1010700042F835B002EBC50253604946484600F0DD
:10108000BDF90F2005F00C0303F1804303F5803315
:1010900006F0030299689200904021EA00019960ED
:1010A000C6F383269968023E96400E439E60A3686D
:1010B000042D08EA0303A360A26807EA090303FA00
:1010C00005F343EA0203A360E36827FA09F708EA95
:1010D0000303E360E26807FA05F747EA0207E760FF
:1010E0000E4B0EDC063509FA05F51D60636800201D
:1010F00008EA0303636023684AEA03032360BDE848
:10110000F88F092DD5BF4FF400024FF480721A609A
:101110005A60EBE700040140D40A002000E100E03F
:101120002DE9F04100244FF001080E4D0E4F6E697D
:101130002A68164008FA04F3334206D06B6107EBC5
:10114000C40357F83420586890470134102CF1D16B
:10115000064B1B681BB1BDE8F041FFF723B9BDE8A2
:10116000F08100BF00040140D40A00209C0200204E
:10117000F8B50C4D2E6816F47F4F11D1F4B200343F
:1011800018BF0124FFF780FA2B6807469E4202D160
:101190002046FFF769FB3846BDE8F840FFF77CBA08
:1011A0000224EFE72002002038B5094D04462B5CED
:1011B000FF2B03D107490320FFF7C2FDFFF764FAB5
:1011C0002B5D0133DBB22B55BDE83840FFF764BA25
:1011D00020020020F85D000838B5094D04462B5C5C
:1011E0001BB908490320FFF7ABFDFFF74DFA2B5D54
:1011F000013BDBB22B55BDE83840FFF74DBA00BFCD
:1012000020020020F85D00082DE9F04F2D4B8BB037
:101210001B882D4A2D492E48ADF8243003F0BAFA28
:10122000FFF7A2F80546FFF7B5F80446FFF7AEF85A
:101230002A46009023464FF40071264803F0AAFA8C
:1012400001264FF40077DFF89C90DFF89CA0DFF8D0
:101250009CB025EAE57559F826401CB394F8048043
:10126000E26A5AF82830606A079317440692FFF73B
:10127000E5FD069AB4F90610101A22680544059295
:10128000626A079BCDE90302E26A584602926279DC
:10129000019209AAB8F1090FC8BF01320092A26AEF
:1012A00003F078FA0136212ED5D10B4BCDE901752B
:1012B00000930A4A19460A4803F06CFA0BB0BDE8DD
:1012C000F08F00BF7B5E00087D5E0008835E000833
:1012D000885E0008D05E0008565F0008585F00086E
:1012E0005C5F0008E40200207C5F00081A5F0008D1
:1012F00038B5FFF7C9F900231D4D0446AB6000F077
:101300003BF84FF480636B602B465A6812F00C0F69
:10131000FBD11221174A116081221A601A6842F427
:1013200080321A601A689103FCD55A6822F47C1244
:101330005A605A6842F4E8125A605A6842F400321D
:101340005A601A6842F080721A601A689201FCD5DD
:101350005A6842F002025A605A6802F00C02082AE7
:10136000FAD100F015F82046BDE83840FFF794B9EF
:101370000010024000200240044B1A6842F00102B3
:101380001A601A689207FCD5704700BF001002402F
:10139000044B5A6812F00C0F1EBF1A6822F00102AB
:1013A0001A6070470010024008B500F0ADFE4FF023
:1013B0008051002000F022F8FFF79AFFBDE80840B6
:1013C00000F025B9034A044B00280CBF104618460C
:1013D000704700BF0051250200A24A04044A054B91
:1013E000002818BF1346044A105C5843704700BFDA
:1013F00000A24A04005125020760000801280AD013
:1014000004D302280CD0BFF34F8F7047074AD3692B
:101410001943D161F7E7054A936919439161F2E7EE
:10142000024A536919435161EDE700BF00100240C1
:10143000012809D002D302280CD07047084AD3698A
:1014400023EA0101D1617047054A936923EA01014A
:1014500091617047024A536923EA01015161704763
:10146000001002402DE9F84307460024114A030109
:10147000D558DFF848802E69EB6808EBC0091E409C
:101480000223A340334209D0EA68214622EA03033B
:10149000EB60D9F8040058F8373098470134042C31
:1014A000EED1054B1B681BB1BDE8F843FEF77ABFD0
:1014B000BDE8F8830C6000089C020020540B00205B
:1014C000032910B516DC0D4B00011C181858636871
:1014D0001A4001F10C0300EB83035A6002230269F6
:1014E00003FA01F122EA01020261C3681943C160F3
:1014F000002010BD4FF0FF30FBE700BF0C6000087C
:10150000024B00011B58586A704700BF0C6000086E
:10151000034B00011A58136843F00103136070472E
:101520000C60000801282DE9F84305460F4630D825
:10153000194E040106EB0408184998F80C9041F87C
:10154000302001EBC0014B604846D8F80810FFF787
:1015500055FF36590024D8F804303460484674608A
:10156000F362FFF73BFFB0FBF7F0012398F80D2083
:10157000013851B202F01F02B06273619340084A11
:101580004909284642F82130FFF7C2FF2046BDE84E
:10159000F8834FF0FF30FAE70C600008540B00208E
:1015A00000E100E00020FFF75DBF0120FFF75ABF18
:1015B00082680168531C83604368013B1340C85C28
:1015C0007047F8B505460F46164614461CB1AA6882
:1015D000EB689A4201D1301BF8BD2846FFF7E8FFBF
:1015E000013C07F8010BF1E7C26830B58468436835
:1015F000121B9A4208D0C2680468551CC5600020BE
:10160000013B1340E15430BD4FF0FF30FBE70020B9
:1016100001F022BE2DE9FF41314C0746B4F900002C
:101620000E4668BBFE2003F0CDF82E4D2E4803F089
:10163000B1F82E4803F0AEF8A846286800F0BCFECA
:10164000286078B10223B0F92000002200932721FE
:1016500003AB208000F0B0FD0028EEDBBDF80C30BD
:10166000032BEAD1D8F800306BB9FF2003F0AAF8B9
:101670001F4803F08FF81D4803F08CF84FF0FF303F
:1016800004B0BDE8F081FE2003F09CF8B4F900102E
:10169000184803F07FF8154803F07CF8B4F900000F
:1016A00000963B460022022100F0ACFDB042E5D19D
:1016B000022204AB23F8026DB4F900000092052168
:1016C000002200F09FFD0228D8D1FE2003F07AF816
:1016D000094803F05FF8054803F05CF80020CFE705
:1016E0006A0B00206C0B00202C600008A16500082C
:1016F0005360000885600008A560000810B5044626
:10170000FE2003F05FF862782178214803F042F868
:10171000204803F03FF802212046FFF77BFF002816
:101720000BDAFF2003F04EF81B4803F033F819489A
:1017300003F030F84FF0FF3010BDFE2003F042F808
:10174000164803F027F8134803F024F800F07AF95C
:10175000002818DDFE2003F035F8114803F01AF8D0
:101760000C4803F017F8F02003F02CF80D496378CB
:101770002278B1F900100C4803F00CF8054803F08A
:1017800009F80020D8E7FF2003F01CF80748E5E738
:10179000D8600008A1650008016100082161000807
:1017A0003D6100086A0B002065610008486100087F
:1017B0002DE9F74307460D469046994600F018FE7E
:1017C00060B9FF2002F0FEFF2B4802F0E3FF2B4838
:1017D00002F0E0FF012003B0BDE8F083694628462F
:1017E00000F038FEC4B24CB92549284603F082F80F
:1017F00090B1FF2002F0E6FF2248E6E70026002332
:101800004A464146184601F083FA054630B9FF20A2
:1018100002F0D8FF1C48D8E78026F0E700212346D5
:101820006A46084600F064FF044668B9FF2002F0EB
:10183000C9FF154802F0AEFF104802F0ABFF214689
:10184000284601F049FBC5E74368056001461E7163
:10185000384600F0A4FC00280BDCFF2002F0B2FFA9
:101860000A4802F097FF054802F094FF0021204645
:10187000E7E70020AFE700BF87620008A165000826
:10188000AC620008B2620008D5620008F562000888
:10189000214C83B523880546013B1F2B02D9FF202D
:1018A00002F090FF1D4802F075FF1D4802F072FF24
:1018B000FE2002F087FF1B4802F06CFF184802F080
:1018C00069FF0023F020ADF8063002F07BFF1648D8
:1018D00002F060FF124802F05DFFDFF85480134F02
:1018E0000F4E0021404601F035FEFE2002F06AFF57
:1018F000384602F04FFF304602F04CFFBDF806308C
:1019000002AA013322F8023D29460223B4F900005D
:10191000FFF74EFFE5E700BF6A0B00208561000876
:10192000A1650008B9610008D8610008F4610008E9
:1019300040420F0083B5FE2002F044FF344802F01D
:1019400029FF344802F026FF0025334E3349304644
:101950008DF8075002F0D8FF9DF80740042C1BD9E2
:10196000FE2002F02FFF2E4802F014FF294802F05B
:1019700011FF02F09DFE2B4BC0B20128187016D04B
:1019800002282FD0FF2002F01DFF274802F002FF9F
:10199000204802F0FFFED9E702F08AFE335D98424C
:1019A00006BF01348DF807408DF80750D4E7FE20BC
:1019B00002F008FF1D4802F0EDFE1D4F154802F031
:1019C000E9FE8DF807509DF80740012C03D918480F
:1019D000FFF794FEBAE702F06BFE385501348DF83C
:1019E0000740F0E7FE2002F0EDFE124802F0D2FEC2
:1019F000084802F0CFFE0E4A0F4953780F4812787C
:101A000002F058FF01220DF107010D48FFF740FFDA
:101A100008620008A1650008700B00201A62000827
:101A200020620008670B00206B6200083B62000820
:101A3000680B002053620008F7600008640B002068
:101A4000AC6200081FB5084B0622029300230193E5
:101A5000064B4FF4C061009305480823FFF7F6F9E1
:101A600005B05DF804FB00BF35640008CD1A00081E
:101A7000750B00202DE9F843054616460446DFF8AD
:101A80002C80DFF82C904718BC4201D1BDE8F883C8
:101A9000A54204D01EB13146404602F07BFE14F848
:101AA000011B484602F076FEEEE700BF3D640008E9
:101AB000FC60000838B504464518AC4200D138BD7A
:101AC00014F8010B02F07EFEF7E70000002480B559
:101AD0005A4B98B0CDE90543594B08211B8808A8FB
:101AE000ADF81C3000F0FCFA05A9204600F0C0FF5C
:101AF00040F20523DFF86C81524E534FADF80E30A3
:101B0000FE2002F05FFE404602F044FE304602F046
:101B100041FE01A800F0E0FA6FF40072BDF8063053
:101B2000FE201344032B00F28480DFE803F00269F7
:101B3000727202F047FE454802F02CFE304602F079
:101B400029FE029C204601F0D5F968B9FE2002F07A
:101B500039FE3F4802F01EFE304602F01BFE002117
:101B6000204601F0B9F9CBE74FF0FF31204600F0F5
:101B7000BAFF4568284600F0EDFD042002F022FE81
:101B800005F10809242002F01DFE2978314A484653
:101B9000FFF770FF402002F015FE28782D4A08302C
:101BA00069782844FFF766FF232002F00BFEA16846
:101BB000294802F0EFFD3A2002F004FE262002F050
:101BC00001FED4E90101234AFFF754FF232002F06C
:101BD000F9FD29784846FFF76DFF287869780830C5
:101BE0002844FFF767FF04F108000421FFF762FFB4
:101BF000D4E90101FFF75EFF0A2002F0E3FDAEE742
:101C000002F0E0FD154802F0C5FD304602F0C2FDCD
:101C100076E702F0D7FD124802F0BCFD304602F034
:101C2000B9FD6FF0850303A901A8049300F026FA1B
:101C300066E702F0C7FD3846E5E700BF0000FFFF9A
:101C400094020020A16500080D6400083F630008AD
:101C500071630008885C0008FC600008AE6300083F
:101C6000E06300081163000808B501F0A3FAFEF76D
:101C700067FF01F031F8BDE8084000F001B800004E
:101C800013B5074C0749204601F08EFC0094064B23
:101C900002224FF48061054800F0D0FE02B010BD72
:101CA0007815002040640008586400087511002071
:101CB00070B504460D46FEF7E7FC236806463BB9BF
:101CC0004FF0FF332360FEF7E7FC0125284670BD87
:101CD000C5B10E4B02211D682846FEF79DFA236808
:101CE00001330AD105F1080323600023AB603046BD
:101CF000FEF7D2FCFEF756FBE7E729462046FFF742
:101D000085F8F4E7FEF7C8FCE0E700BF9802002082
:101D100070B50446FEF7B8FC256806461DB9BDE857
:101D20007040FEF7B9BC6B1C02D100232360F6E7BC
:101D3000284650F808390B212360FEF76DFA236816
:101D400013B94FF0FF33236015F8034C3046FEF70C
:101D5000A3FC2046BDE87040FEF79EBAF8B50546E4
:101D60000E46FEF791FC354B354A1B8807461BB2E1
:101D700052F823301A6A002A4DD0D3E90541A14216
:101D800049D0611C5961D9690C4046B9196931B90A
:101D9000611C04D13846FEF77FFC2046F8BD002CBC
:101DA0003DDB02EBC40103C985E803001E69002E78
:101DB00037D03168002C19610CDBD3E90650596922
:101DC000691A8842B1BF4FF0FF35691C054099611F
:101DD00002EBC505736893E8030085E8030016F875
:101DE000043C052B15D000230B217360A6F10800DD
:101DF000FEF712FA16F8034C3846FEF74DFC0E2C8F
:101E00001AD82046FEF748FA16E03846FEF744FC9A
:101E100012E00F24F0E74FF0FF34002EB6D0DD6063
:101E2000C4E7002CF1DA18460321FEF7F5F938462D
:101E3000FEF732FCFEF7B6FA0124AEE7940200206A
:101E4000E402002010B5D0E9063244691C1BA2420E
:101E500001DA002010BD5C1C13408461F9D4026AD1
:101E600003C902EBC30383E803000120F2E700008B
:101E70002DE9F8431E46264B074653F82150254BC3
:101E800091461B8803803DB93046FEF705FC4FF0B4
:101E9000FF342046BDE8F8832B79032B2ED01E4B50
:101EA00001462846D3F80080FFF7CCFF044650B126
:101EB0003046FEF7F1FB98F80430052B01D1FEF710
:101EC00071FA0124E5E7B9F1000F03D13046FEF7BE
:101ED000E3FBDEE798F804304046052B0CBF0521F4
:101EE0000421C8F80C70FEF797F9414605F110007F
:101EF000FEF78CFF3046FEF7CFFBE0E7EB6803C848
:101F000083E803000B212846FEF786F9F2E700BFBD
:101F1000E4020020940200209802002038B5044614
:101F2000FEF7B2FB074B21461B8805462380064B74
:101F30001868FFF787FF04462846FEF7ADFB2046EA
:101F400038BD00BF940200209802002008B50F4B56
:101F500053F82130B3B1212202801A79032A0BD120
:101F600003C8DA6882E8030018460B21FEF754F92B
:101F70000120074B186008BD01461846BDE808401F
:101F8000FFF760BF4FF0FF30F5E700BFE40200202D
:101F90009C02002070B504460D46FEF780FB28B178
:101FA00029462046BDE87040FFF7D0BF094B1B888B
:101FB0001BB2AB4204D12046BDE87040FFF7AEBF74
:101FC000FEF762FB2946034601222046BDE8704029
:101FD000FFF74EBF9402002070B504460D46FEF791
:101FE0005EFB064628B129462046BDE87040FFF753
:101FF000ADBF0A4B1B881BB2AB4204D12046BDE8E3
:102000007040FFF78BBFFEF73FFB32460346294681
:102010002046BDE87040FFF72BBF00BF94020020B0
:102020002DE9F041124F06463B880C461BB2934205
:10203000154603D10F490320FEF782FEFEF724FB6D
:1020400080463A880C4B12B253F82270052138466C
:10205000FEF7E2F896E80300FC60434684E80300DC
:10206000012229462046BDE8F041FFF701BF00BF2D
:1020700094020020F85D0008E402002070B50446D8
:102080000D46FEF701FBB4F90020114B064653F84C
:1020900022401CB90F490320FEF752FE2379052B7D
:1020A00004D0FEF7F9FA4FF0FF3070BDE36895E811
:1020B000030083E803000B212046FEF7ADF86479A6
:1020C0003046FEF7E9FA2046FEF7E6F80120ECE795
:1020D000E4020020F85D00080121FFF73FBE000088
:1020E00008B5074B4A1E1B681140186203D005490A
:1020F0000320FEF725FEC3E90511DA6108BD00BF24
:1021000098020020F85D00080C4B0D4A10B59A604B
:10211000102200210B4C83F82220DA77601801315D
:102120003C2980F80023F9D11A6942F010021A61A3
:102130005A6942F400725A6110BD00BF00ED00E020
:102140000000000800E100E02DE9F3410446884664
:1021500017461E4600F0B3FC054648B141462046EE
:1021600000F0A8FC691E0446304600F0A3FE1CB92E
:10217000284602B0BDE8F081B4F908106846ADF811
:1021800002700196FFF728FF002803DC002130468B
:1021900000F0A2FE204600F0A0FC0446E7E740F273
:1021A000022307B5019101466846ADF80230FFF7FA
:1021B00013FF03B05DF804FB00B589B006930A9BDA
:1021C0008DF81410ADF81C304FF40173ADF81620E3
:1021D000ADF80630024605AB03A901A80293FFF74C
:1021E0001FFF40F20523BDF80E209A4203D0044998
:1021F0000320FEF7A5FD049809B05DF804FB00BFBD
:10220000F85D000800B589B006930A9B8DF814109C
:10221000ADF81C3040F20323ADF81620ADF80630BF
:10222000024605AB03A901A80293FFF7F9FE40F2AD
:102230000523BDF80E209A4203D004490320FEF77F
:102240007FFD049809B05DF804FB00BFF85D00084D
:10225000036810B45C69034AA44601231C2110BC26
:10226000604700BFAB64000873B5837F0446033B3F
:10227000012B456826D82B680DF106021E69052141
:1022800002232846B047022803D012490320FEF754
:1022900057FDBDF80630082B0CBF03210221237720
:1022A0002B6804F114021E6928460823B04710F178
:1022B000860F09D02369002843F00103236107DC5E
:1022C00002B070BD0221EBE7237F002BF8D0DCE7E2
:1022D0002077F5E7F85D0008A0F130020346D0B2A0
:1022E000092802D8114608467047A3F14102052A81
:1022F00002D8A3F13701F6E7A3F16102052A98BFDE
:10230000A3F15701EFE7000013B5806891B941F2DE
:102310003423ADF800100190B0F920106846ADF8F4
:102320000230FFF737FE002802DC0E4802F0BAFA4E
:1023300002B010BD0229FBD103689B689847044690
:102340000028F5D00346084940F2012290F9100018
:10235000FFF7FAFE01460028EAD1204600F0BCFD56
:10236000E6E700BF626400080000FFFFF0B585B03B
:102370000A9E0E4CD4E90057B74213D025B9C4E9E0
:1023800002550B9D25601FB109490320FEF7D8FCBB
:10239000CDE90143074B666000930823FEF756FD25
:1023A0000028F1DD014805B0F0BD00BFB8150020E0
:1023B000F85D00081125000808B50A4B58B198428D
:1023C00003D209490320FEF7BBFC2430074B984297
:1023D00003D3002008BD1846F8E70268002AF9D1A7
:1023E0002430F4E7B8150020F85D0008DC15002063
:1023F00010B504460020FFF7DFFF18B1B0F9203018
:10240000A342F8D110BD00002DE9F84380460E46E6
:1024100015460AB120B919B10D490320FEF790FC09
:1024200000242F462C7006F1FF39B44202D1284611
:10243000BDE8F88318F80410384601F095FFA1456F
:1024400014BF3A2300233844471C03700134ECE7DF
:10245000F85D00082DE9F84F80460F4619B9244968
:102460000320FEF76DFC18B900252846BDE8F88F5B
:102470000378002BF8D003461E4675780133002DF3
:10248000FAD13C464FF001094FF0FF313078FFF7A9
:1024900023FFB0F1000B06F1FF3A15DAB9F1000F96
:1024A000E2D14FF00109C2450CD2B9F1000FDBD1E6
:1024B000013CA742D9D223783A7804F8012907F8D9
:1024C000013BF6E75646DFE7D0450FD8002116F866
:1024D000010CA6F1020AFFF7FFFE4BEA001B84F88D
:1024E00000B0013501344FF00009DCE70020F4E7CB
:1024F000F85D000820B1036813B1083001F012BF85
:10250000704720B1036813B1083001F00FBF704766
:102510002DE9F04140F205230026044694B0CDE9B0
:102520000066ADF80230FFF7E5FF394B08211B8844
:1025300004A823846568FFF7D3FD364B2846C5E918
:1025400001342B689B689847011E55DB2846FFF72E
:102550007FFE606802AA036827211E690223B04734
:10256000022803D02C490320FEF7EAFBBDF808300F
:102570002046A377FFF778FE4023637723681B6824
:102580000BB1204698472046FFF7BBFF40F20326D9
:1025900041F2342740F2022802A8FFF79DFDBDF862
:1025A0000A30B3421AD0B3F5017F09D243450FD0A8
:1025B00023685B69002BEFD002A920469847EBE720
:1025C00017D0BB42F4D12B682846DB689847E3E775
:1025D000236803995B6820469847DDE723681B69F9
:1025E0000399204698476946019002A8FFF746FDE7
:1025F000D2E72368DB68F3E7084802F0CBF83046FF
:10260000266026846660C5E9016614B0BDE8F081E5
:102610009402002009230008F85D00088764000880
:1026200070B50C460546FFF765FF21782389072919
:102630000ED1012B03D00A490320FEF781FB62680B
:102640001C46697F11702846FFF75BFF204670BD6E
:102650006868026816696268B0470446F3E700BF1D
:10266000F85D000870B50E460546FFF743FF317868
:10267000338907290DD01A29686815D00268546972
:102680007268A047041E1EDC2846FFF73AFF20466A
:1026900070BD012B03D015490320FEF751FB726872
:1026A00012786A770124EFE7726829691478012C9F
:1026B0000CBF41F4803121F48031296101684C69FB
:1026C0001A21A047EEE73378022BDDD3052B09D979
:1026D000192BD9D173681B78052BD5D16868FFF702
:1026E000B7FDD1E72846FFF7BFFDCDE7F85D00084D
:1026F0002DE9F041174603F108020A440E46002175
:1027000080461C4608464FF0FF3300F001FB0546AB
:10271000E0B1002340680670447043808380C3802A
:10272000B8F1000F05D026B132464146083002F01C
:1027300004F85FB154B168684378A34206D10378C6
:10274000224608333946184401F0F7FF2846BDE811
:10275000F081000010B5044686B0B0F9021021489F
:1027600002F018F8B4F906101F4802F013F8617966
:102770001E4802F00FF81E4802F00CF8237933B31C
:102780001A0602D51B4802F005F823795B0602D52C
:10279000194801F0FFFF194802F084F82178C1B10F
:1027A0006A4604F10800FFF72FFE0146144801F0C5
:1027B000F1FF617889B120786A4608302044FFF73C
:1027C00023FE01460F4801F0E5FF06B010BD0E489C
:1027D000E2E70E4802F066F8EBE70D4802F062F817
:1027E000F3E700BFAC640008B9640008C4640008E3
:1027F000CD640008D5640008E0640008A265000804
:10280000EF64000811650008EB640008FF6400082D
:1028100021650008F0B5456891B02B7FEA8903F087
:102820002803ADF818200E4621B96FF01504204694
:1028300011B0F0BD91F9102001323CD149680F79F7
:10284000FA060A7854BF43F0010443F0110417F06C
:10285000C00F03BF02F108035B1891F801C04FF0ED
:10286000020C18BF154B12B30831A87E471CAF7677
:10287000CDE90340BDF818000AAFADF80800ADF887
:102880000400CDF800C0384600F05AFB0028CCD038
:1028900033680990CDE907372B6807A91B682846DC
:1028A000984700210446304600F016FBBFE7027F40
:1028B00000F11401D9E76FF04C04B8E7A3650008F4
:1028C0002DE9F043456887B02B6807465C68002314
:1028D00028461A461946A0470228064640F3A1801A
:1028E000002302461946184600F012FA2B680446E7
:1028F00048B95F680146034632462846B847204635
:1029000007B0BDE8F083D3F80480416801AB3246DC
:102910002846C047B0F1000805DC0021204600F041
:10292000DBFA0024EBE73F6917F480371FD0002360
:102930001A4619461846FFF7DBFE05460028ECD07C
:1029400043689DF806205A71BDF80420DA803A4A9F
:1029500012885A800023036023461A682AB91D6032
:102960004146204600F054FAC9E71346F5E760688F
:1029700000F078FB0028D0D00146A8EB00083A46CA
:10298000204600F0DFF906460028C6D047686A46B0
:1029900004A9384600F0D8FB81466A4602A93846A9
:1029A00000F082FBB9F1000FB7DB0028B5DBC1B244
:1029B0005FFA89F304AA02A8FFF79AFE07460028E7
:1029C000ABD0B9F1020F43680BD19DF81020FF2A5C
:1029D00007D19DF81120FF2A03D11A7962F07F02F6
:1029E0001A719DF8062018215A71BDF80420284656
:1029F000DA80114A12885A802B6804F11002D3F849
:102A000010900123C8473146204600F074F8002397
:102A10003B60234600E013461A68002AFBD11F6082
:102A20009EE700287FF77DAF2B6802465C68002395
:102A300028461946A04774E79402002013B5044CB9
:102A40000194049C0094FFF791FC02B010BD00BFFC
:102A50003465000840B901B17047044B186800B9EB
:102A6000704743689342FBD00068F8E7DC1500200C
:102A700008B50C4A0B46B1F9081052F82120126A29
:102A80005AB9094801F086FE08490320FEF758F9B3
:102A9000074A11681960136008BD0028F8D06FF06C
:102AA0001500F9E7E40200204C650008F85D000815
:102AB000DC1500200A4601460020FFF7CBBF70B5A9
:102AC000054600200E46044632462946FFF7C2FF5F
:102AD00008B9204670BD0134F6E718B142680021FC
:102AE000FFF7B8BF704718B190F910308B4200D192
:102AF00070470068F7E710B504468C42084606D1D7
:102B000024680021016000F0E7F9204610BD23464B
:102B10001A68002AF5D0824202D102681A60F0E7F2
:102B20001346F5E7002170B5174A0730136820F007
:102B3000070003B35C68844210D3241A072C18449E
:102B4000124E0ED9C6F108050544B5F5C05F16D979
:102B5000002111601A68C0E9002405E019461B68CD
:102B6000E7E71C6849B91460094A801B118880B2E4
:102B7000814200D21080184670BD0C60F4E709B99C
:102B80001060E7E70860E5E7E0150020E8150020A1
:102B9000E82D002008B502490320FEF7D1F800BF58
:102BA000F85D000801210148FFF782B8E415002014
:102BB00038B51D4BC31AB3F5C05F1FD200231B4CA1
:102BC00022680AB182421AD3073121F0070102605C
:102BD000174A4518521B072A98BF891841608BB9BC
:102BE0002060036853B1426802449A1A072A05D844
:102BF0001A6802601A1A5B681344436038BD1346B2
:102C00001268DEE75A6818601A44821A072AE8D860
:102C100008B9FFF7BFFF0268C11A1A604268184678
:102C20000A445A60DDE700BFE8150020E0150020E7
:102C3000E82D00202DE9F843814614200F46164662
:102C40009846FFF76FFF044650B166B13046FFF774
:102C500069FF054640B920461421FFF7A9FF2C461D
:102C60002046BDE8F88335460123C4E90095A660F7
:102C700084F81080E360002FF2D0324639462846AF
:102C800001F05BFDECE70000F8B504460026104DAE
:102C900004B9F8BD631BB3F5C05F01D3FFF77AFF3A
:102CA000E3681BB90B490320FEF74AF8012B27689C
:102CB0000AD1D4E90101E660FFF77AFF142120462A
:102CC000FFF776FF3C46E3E7013BE360FAE700BF2E
:102CD000E8150020F85D000808B5FFF763FF094B11
:102CE000094A18211360002259711A705A709A709B
:102CF000DA701A719A71DA710448BDE80840FFF77A
:102D000007B800BFE8150020E0150020E4150020FA
:102D1000B2F5C05FF8B505460E4614461F460DD8FD
:102D2000FFF740FF22463B4631462846FFF782FF29
:102D300004460348FEF7ECFF2046F8BD0024FBE7FD
:102D4000E41500202DE9F8430D4604469146FFF7AF
:102D500029FF2DB124B1A368AB4201D3636833B915
:102D60002A48FEF7D5FF00263046BDE8F883142038
:102D7000FFF7D8FE06460028F2D0A26895423DD063
:102D8000EB1D23F007039D4238D22846FFF7CAFE09
:102D9000074620B914213046FFF70AFFE0E7A06894
:102DA000401BFFF7BFFE804630B914213046FFF7C5
:102DB000FFFE29463846EFE72A466168384601F0AB
:102DC000BCFCD4E901124046521B294401F0B5FC79
:102DD000D4E90101FFF7ECFEC4F80480A3680B48B6
:102DE0005B1BA3602368B560C6E90037012386F842
:102DF0001090F3602660FEF78BFFB5E7954208BFA1
:102E00000023676818BF7B196360E7E7E4150020BB
:102E100070B504460D46FFF7C5FE1CB922490320D4
:102E2000FDF78EFFD4E9010141B90028F6D1A9428E
:102E30000CD11E48FEF76CFF002019E00028EDD0F1
:102E40001B4BC31AB3F5C05FF1D3E7E72DB9F0B15F
:102E5000FFF7AEFE6560A560EBE7A94217D22846F2
:102E6000FFF760FE064620B91048FEF751FF0C2020
:102E700070BD616829B1A268AA4228BF2A4601F044
:102E80005CFCD4E90101FFF793FE6660E3E7EB1D0C
:102E9000CA1D23F0070322F007029342DBD2C91AAE
:102EA0001844FFF785FED6E7F85D0008E41500201A
:102EB000E815002038B504460D46FFF773FE24B927
:102EC000BDE838400348FEF723BFE3682B44E360C6
:102ED0002468F4E7E415002010B50446FFF762FE0D
:102EE0002046FFF7D1FEBDE810400148FEF710BFB5
:102EF000E415002038B50446FFF754FE0CB1A26873
:102F00002AB90E48FEF704FF0025284638BDE368BD
:102F1000012B0ED9D4E9000194F91030FFF78AFE95
:102F2000054610B1E368013BE3600448FEF7F0FE9C
:102F3000EBE70248FEF7ECFE2546E6E7E415002045
:102F4000F8B5044610259DF824000F461E4665700E
:102F5000069B9DF8281000F0070C2070154602B162
:102F60001FB1002B6ED0002E72D100252846F8BD6F
:102F7000BCF1020F71D1A170002B67D09DF8202009
:102F8000022BE2709DF8212022710ED0082B32D046
:102F9000002BEAD1052365B39DF81C105A1CE1549F
:102FA0009DF81D100233A1541DE01A462C493046ED
:102FB00001F0B4FB18B9237823F020032370637861
:102FC00043F008036370737863713378A371072348
:102FD0007DB1BDF81C10BDF820209142DCD12278D3
:102FE00042F040022270022D12D0082D1BD0002D7D
:102FF000BBD11D46BAE71C23221D637006F10803EE
:1030000013F8011DB34202F8011FF9D10D23DFE7C8
:10301000627862F07F02627079785A1CE1543978E4
:103020000233A154E5E7627862F03F02627007F173
:1030300008021C4412F8011DBA4204F8011BF9D120
:103040000833D6E7BCF1000F92D1A1700323A2E7A9
:1030500010F0050F8FD1A17090E7002D8BD185E77F
:10306000A36500084278014602F00C03082B11D03A
:103070000C2B11D0B3B90078400613D4032012F002
:10308000C00210D00B785B0658BF0230802A05D1F1
:10309000023070470720F2E70D20F0E7C02A01D187
:1030A000083070470020704770B501B11AB9254942
:1030B0000320FDF745FE437803F00C03082B08D1ED
:1030C00003785C0603D5C378137003795370072324
:1030D0000FE00C2B08D103785B0603D5C37813707F
:1030E000037953700D2304E043BB03785E0625D4B7
:1030F0000323447814F0C0041CD005786D0605D471
:10310000C65C5D1C1670455D02335570802C13D172
:10311000C25C034402204A705B780B7070BD0344AC
:1031200001F1080213F8010B02F8010D8A42F9D1EE
:103130000820F3E72046F1E7C02CF0D06FF015002F
:10314000ECE700BFF85D000808B501B11AB91849ED
:103150000320FDF7F5FD437803F00C03082B09D19C
:10316000C37813700379537043794B7083790220CD
:103170000B7008BD0C2B0ED1C378137010F8043FF0
:10318000537001F1080310F8012F03F8012D8B4251
:10319000F9D10820EDE73BB9037813F0400F14BFD5
:1031A0006FF015000020E4E76FF01500E1E700BFC5
:1031B000F85D000807B504210DEB010001F004F9EA
:1031C000019800F003F803B05DF804FB01460148E4
:1031D00000F084B9EC2D0020134970B5D1E9014607
:1031E0000A6884EA0603C86822F000425A4082EA6C
:1031F000420280EA500050400D6940F300031D4038
:1032000075404D604D6982EA80222B4053400C602E
:103210008B6004EB13238C69C860584043F30003B0
:103220002340584070BD00BFEC2D002010B51C2479
:10323000084B0B2104FB0034E068FDF7CEFE60680C
:103240000B21FDF7CAFEA0680421BDE81040FDF780
:1032500090BE00BFA865000810B5044618B10C491F
:103260000320FDF76DFD0B4B1860FFF7DFFF2046D5
:103270004FF48041FEF7C2F8074B20461C604FF424
:103280008041DC615C60BDE81040FEF7D1B800BF52
:10329000F85D0008082E00200038004010B50C46EC
:1032A000A8B94B1C16D021F0FF0313F5807F02D183
:1032B00011F0FF0F0ED114F5807F0BD003212046B3
:1032C000FDF757FE2046FDF7AAFE002010BD4FF087
:1032D000FF30FBE76FF00100F8E700002DE9F8434D
:1032E00005461C2618486E4398460F46DFF8609046
:1032F000012100EB85001446FEF7DAFC0120FDF702
:1033000053FF09EB06031D7E59692846FEF776F840
:103310000E4A05EB8505154415F8082059F80610E6
:1033200044EAC20444F0040417F5807F0C6015BF22
:103330000B684B6843F4407343F0040314BF0B6005
:103340004B600020BDE8F883082E0020C46500080B
:10335000A86500081C2343430C4A10B50446D01846
:10336000D35800221A605A68416922F004025A6058
:10337000007EFEF75DF80120FDF72EFF044800EB0C
:103380008400BDE81040FEF7C3BC00BFA86500087C
:10339000082E00202DE9F8438846DDE908679146AC
:1033A0001D4623B91EB932490320FDF7C9FC1C2371
:1033B0005843304B18F5807F1C58236843F0400376
:1033C000236005D0B8F1FF3F02D04046FDF730FE44
:1033D00066BB2F44BD4220D1A3689807FCD5A368E3
:1033E0001906FCD4A368DA071ED4A3689A07FCD593
:1033F000A3681B06FCD4B9F1000F37D1B8F1FF3F29
:1034000034D0236818F5807F23F0400323602DD04B
:103410004046BDE8F843FDF702BEA3689E07FCD511
:1034200015F8013B2373D5E7E368DBE7E5B93046E0
:103430003744B842D9D0A3689B07FCD52573A3684D
:10344000DE07FCD5237B00F8013BF2E7A26890077A
:10345000FCD5EA5C2273A268D107FCD5227BF2542A
:1034600001339F42F2D1C0E70023FAE7BDE8F883B9
:10347000F85D0008A8650008036830B5D0E90115BB
:10348000C26881EA050423F00043634083EA4303F2
:1034900082EA52025A4042F3000483EA8223016026
:1034A000C260016942692140144069406340416043
:1034B000836030BD036833F000430DD143685BB9CE
:1034C00083684BB9C3683BB9492354224E21C0E9F4
:1034D00000235923C0E902137047000038B50125C5
:1034E0000369044643604369016083608369C36084
:1034F0000E486B1E03F0030354F8233005F003015C
:1035000083EA937300FB035354F8212001355340A1
:10351000082D44F82130ECD12046FFF7CBFF2046A0
:10352000FFF7AAFF013DFAD138BD00BF6589076CDE
:10353000FEF7EEBB38B504460020FDF7E1FF054677
:10354000A4B20020FDF7DCFF401B80B2A042F8D3FC
:1035500038BD000030B587B004460D46FDF79FF832
:1035600048B11DB10E490320FDF7EAFB2046FFF7E5
:10357000E1FF07B030BD0B4B0090CDE90200012107
:1035800068460493CDF814D0FEF792FB214601A8BB
:103590002A46FDF77FFB01216846FEF789FBE8E735
:1035A000F85D000831350008064B10B518220446B6
:1035B00040F8203B01F0C1F8002384F83A3008239A
:1035C000A38710BDE465000813B5044600F070F948
:1035D000204600F007FF94F83A301BB9032120463B
:1035E00000F041FE0821684600F0EEFE9DF8003034
:1035F000019A23F0010343F002038DF80030009B91
:1036000012BA1BBA204600F0E6FCBDF800102046B6
:1036100049BA89B200F0D0FC20461A2100F00FFD13
:103620002046002100F030FD20460122802100F0DC
:10363000A9FD20460122102100F0A4FD0123174A14
:103640001621204600F08EFF802220460C2100F03B
:10365000A0F80421204600F0AEF8042100F0FD029D
:10366000204600F096F80321204600F0A4F803213C
:1036700000F0F002204600F08CF8082220460E21CF
:1036800000F087F80F21204600F095F8162120461B
:1036900084F83C1000F0E7FD02B010BDCE650008D4
:1036A00010B590F83D301921013380F83D300446C3
:1036B00000F0D9FD0223192818BF84F83C0084F8D3
:1036C0003B3010BD70B51D46144690F83B306E1C63
:1036D000134480F83B3013460A46F1B200F07DF8FF
:1036E000601970BD10B5012300F13B0200210446B2
:1036F00000F073F802222046114600F04AF8636891
:103700003BB1228FD20704D52046BDE810400321EB
:10371000184710BDF8B50821044600F0A4FD152196
:103720000746204600F047F860F07F02D2B215212C
:103730000646204600F02DF80621204600F093FDB5
:103740000821204600F037F860F07F02D2B208214D
:10375000204600F01EF80121204600F02CF8030658
:103760000546F8D532462046152100F012F808210A
:10377000204600F078FD3946204600F074FDC5F380
:103780008010F8BD90F82430816A0022006AFFF7AB
:10379000A5BD70B504460D461646FFF7F3FF334648
:1037A00045F0C002A16A206A00F06BFF206ABDE804
:1037B0007040FFF7CFBD38B504460D46FFF7E2FF76
:1037C00045F080020023A16A206A00F05AFF0546F6
:1037D000206AFFF7BFFD284638BDF7B504460F46FF
:1037E00015461E46FFF7CEFFA16A40230122206A3C
:1037F00000F036FF3B46A16A0122206A00F030FF4C
:103800000022206A019600922B46A16AFFF7C2FDB2
:10381000206A03B0BDE8F040FFF79CBD10B5044638
:10382000FFF7B0FFA16A206A2023BDE81040012203
:1038300000F016BF07B5CDE900120023816A01220E
:10384000006AFFF7A7FD03B05DF804FB10B504465E
:10385000816A01230022006A00F002FF206ABDE8AD
:103860001040FFF777BD08B590F83A300F2B04D021
:103870000121FFF7A0FF00F01F03184608BD10B597
:103880000446FFF7F0FF0F2811D1206BFDF7D0FBA6
:1038900000214FF49970FFF75DFE01212046FFF7EC
:1038A0008AFF00F01F00082884F83A00F5D110BD07
:1038B00010B50446406BFDF7BBFB00213E20FFF72F
:1038C00049FE606BFDF7ABFB00213E20FFF742FE97
:1038D00001212046FFF76FFF00F01F0310F0170FC4
:1038E00084F83A30F4D110BD38B50821044600F010
:1038F000BAFC082105462046FFF75DFFE37E00F095
:10390000E00203F01F0320461A430821FFF741FF9E
:1039100029462046BDE8384000F0A5BC43680BB1FD
:1039200000211847704700002DE9F04704468846FB
:1039300016461F46FFF797FF8146002C00F0EE80E9
:103940000F2840F0F080B8F1190F5ED02046FFF745
:1039500096FFB8F1290F23D8DFE808F037221528A1
:103960002222302222222222222222224F22B3B6D7
:10397000A0A622AA222222B9BCBFC22222C5C822E6
:103980002222222243D7022F03D996490320FDF792
:10399000D7F93188204600F00FFBB9F10F0F5CD149
:1039A000B8F1190F59D06FF085054FE0082FECD80A
:1039B000D6E90023204600F00EFBEEE7022FE4D804
:1039C0003188204600F045FBE7E7022FDDD1317852
:1039D000A1F10B030F2B00F20181204600F02FFB19
:1039E000DBE7022FD1D13378002B40F0F78002259E
:1039F000B9F10F0F40F0948028E0022FC5D8B6F936
:103A00000010204600F040FBF1E7012FBDD83378CD
:103A1000013B052BC1D801A252F823F06B3A0008F4
:103A20006F3A00089B390008733A0008953A00087D
:103A3000353A00080821204600F015FCB9F10F0FB7
:103A40004FF001056CD1B8F1190F69D00F21204654
:103A500000F009FC15F1860F62D13B463246414623
:103A60002046BDE8F04700F07DBD0F21E3E71621B9
:103A7000E1E7238F5A06E1D594F83D3013B90123CD
:103A800084F83D301921204600F0EDFB2046FFF779
:103A900029FED3E72046FFF797FDCFE78021327854
:103AA000204600F06FFB0AE032784FF48071F7E7B0
:103AB000012F3FF66AAF3178204600F0FAFA01256F
:103AC00096E732784021EBE732782021E8E7327838
:103AD0000421E5E732780821E2E732780121DFE7C7
:103AE00032780221DCE732781021D9E7012F3FF646
:103AF0004CAF238FDB0671D53378052B6ED896F942
:103B00000010204600F0F0FAD9E7012F3FF63DAF54
:103B100096F90010204600F022FBD0E76FF0120566
:103B20002846BDE8F087B8F1290F96D801A353F8CD
:103B300028F000BFCB3900085B3A0008873900083D
:103B4000AD3900085B3A00085B3A0008BD3900084F
:103B50005B3A00085B3A00085B3A00085B3A0008F1
:103B60005B3A00085B3A00085B3A00085B3A0008E1
:103B70005B3A0008FB3900085B3A0008C33A0008CA
:103B8000C93A00089D3A0008A93A00085B3A0008C3
:103B9000B13A00085B3A00080B3A00085B3A0008AB
:103BA000CF3A0008D53A0008DB3A0008E13A0008AD
:103BB0005B3A00085B3A0008E73A0008ED3A000873
:103BC0005B3A00085B3A00085B3A00085B3A000881
:103BD0005B3A0008E33900080B3B00086FF015055D
:103BE00006E700BFF85D00082DE9F0410446FFF745
:103BF0003AFE0F2806463ED00F212046FFF7DBFD98
:103C0000022107462046FFF7D6FD7B07054603D570
:103C1000636801212046984738072CD5162E01D01D
:103C2000112E08D1238F190725D50221636820465C
:103C3000BDE8F0411847192E01D0122E1BD194F87F
:103C40003D301BB912490320FDF77AF8013BDBB286
:103C500084F83D3023B994F83C10204600F003FB73
:103C6000636843B1228F920705D505F0E005202D4A
:103C700009D002D83DB1BDE8F081602D05D0A02D5E
:103C8000F9D10621D3E70421D1E70721CFE700BF0F
:103C9000F85D000813B50446816A006AFFF7FEFA72
:103CA0000321206BFDF765F9206BFDF7C1F90321B6
:103CB000606BFDF75EF9606BFDF7B1F9094B01220E
:103CC00004210094E06AFDF7BDF92046FFF77CFC73
:103CD0001C212046FFF76FFD033818BF4FF0FF305F
:103CE00002B010BD1D3900082DE9F34104460F460E
:103CF000092190461E4600F0B6FA2046FFF78EFDD9
:103D000001220DF103012046FFF794FD9DF80350B9
:103D100005F07F05023D5FB92046FFF797FDB8F13A
:103D2000000F11D094F83C10204600F09CFA0BE0F4
:103D300045450DD92046FFF789FD94F83C102046F3
:103D400000F091FA6FF06805284602B0BDE8F081F6
:103D50002A4639462046FFF76DFD022201A920467A
:103D6000FFF768FD76B10122B11C2046FFF762FD26
:103D70002046FFF76BFD07212046FFF71CFD5B384F
:103D80003080CFE72046FFF761FDCBE770B50646F0
:103D90000D460024FFF784FC3DB9338F5B0602D447
:103DA0003046FFF79FFC204670BDAA68A31C134451
:103DB0007F2B07D8234669683046FFF783FC2D68C0
:103DC0000446E9E76FF08A00EEE7000008B5FFF768
:103DD0004AFD0838C0B2112896BF024B0220185C79
:103DE00008BD00BFCF6500082DE9F8430F46164611
:103DF00098460546002800F0AA80A1F11203162B70
:103E000048D8DFE803F0242E47474747471C47328E
:103E1000363A3F4747434747474747470C00B8F1C3
:103E2000010F03D858490320FCF78AFF0023737061
:103E300000F00DF9022430702046BDE8F883B8F197
:103E4000000FEFD0FFF7C2FF30700124F4E7038FBB
:103E500013F0400F02D001243470EDE700233370DB
:103E6000F3E7038F13F0200FF4E7038FC3F380030E
:103E7000F5E7038FC3F3C003F1E790F8383003F0A0
:103E80000103ECE7038FC3F34003E8E7038FC3F3B9
:103E90000013E4E74346324600F0BAFA10F1860F09
:103EA0000446C9D12846FFF7DEFC0F28814651D1D0
:103EB0002846FFF7E4FC172F24D00AD8102F15D07E
:103EC000142F37D0012F4FD00F21284600F0CBF907
:103ED000B2E7292F1FD0312F24D0222FF4D1B8F1EF
:103EE000000F9FD0284600F0F8F811E0B8F1010F5C
:103EF00098D9284600F0BCF802243080B9F10F0FA1
:103F00009AD1E1E7B8F1000F8CD0284600F0CAF84A
:103F100030700124F2E7B8F1000F83D0284600F09A
:103F200014F9F5E7B8F1000F3FF47CAF284600F034
:103F300022F9EDE7B8F1000F3FF474AF2E212846C7
:103F4000FFF739FC80F01000C0F30010E0E76FF0DD
:103F5000120471E7172FD5D00ED8102FC6D0142F0A
:103F6000E8D0012F7FF468AFB8F1000F3FF45AAFEB
:103F70002846FFF7CFFBCBE7292FCCD0312FD1D06C
:103F8000222F7FF459AFAAE7F85D000838B50D4637
:103F900002210446FFF7FDFB162D07D02046FFF750
:103FA00062FCA842FAD184F83A5038BD2046FFF7A7
:103FB0005AFC1F28FAD0F6E710B504460A0A017425
:103FC00042742021FFF7E5FB227C2046BDE810402B
:103FD0002121FFF7DEBB2DE9F843064617461D46B3
:103FE00000246FF0070900F11208E200C2F120017D
:103FF000A2F1200305FA01F127FA02F20A4325FA99
:1040000003F31A4309FB04F308F8012B03F1380208
:10401000C2F1200105FA01F1183327FA02F20A432E
:1040200025FA03F31A4304F12401D2B2C9B230468F
:104030000134FFF7AEFB082CD7D1BDE8F883A1F11E
:104040000B020F2A02D8C176FFF74EBC7047002042
:10405000704738B505460C46CAB22221FFF799FBD6
:10406000220A2846BDE838402321FFF792BB000012
:1040700008B50521FFF79FFB024B00F00F0033F955
:10408000100008BD12660008113109B21429A8BF3A
:104090001421034B21EAE1715A5C0521FFF779BB3A
:1040A000FC65000808B52C21FFF785FBC0F307105D
:1040B00008BD38B50C462C210546FFF77CFB072CC4
:1040C00028BF072400F00F0040EA0412D2B22846AD
:1040D000BDE838402C21FFF75CBB08B52C21FFF769
:1040E0006AFBC0F3420008BD38B50C1E054611DB63
:1040F000052CA8BF05242C212846FFF75CFB20F0E7
:104100000E0242EA44022846BDE83840D2B22C21D1
:10411000FFF73FBB0724EEE738B505460C4699B1DB
:104120000A782D21FFF735FB2E212846FFF743FBA8
:10413000637800F0F80203F007031A432846BDE84D
:1041400038402E21FFF725BB38BD08B50921FFF700
:1041500032FB00F00F0040005B3840B208BD002980
:10416000C4BF494249B25B31C1F3430242F0C002CD
:104170000921FFF70EBB08B50721FFF71CFB5B38D1
:1041800040B208BD38B50446038F15464AB10B430B
:10419000202923872ED007D8042954D0102911D0E4
:1041A00038BD23EA0103F3E780293FD0B1F5807FD2
:1041B000F6D12E212046FFF7FEFA002D50D040F018
:1041C00020023EE07DB104F112012046FFF7A4FF7A
:1041D00004212046FFF788FF53222F212046BDE807
:1041E0003840FFF7D6BA2046BDE838404FF0FF31DF
:1041F000FFF77ABF2E212046FFF7DDFA85B140F0A8
:104200001002D2B22E212046FFF7C3FA1721204612
:10421000FFF7D1FA3DB140F00202D2B21721DDE73B
:1042200000F0EF02EEE700F0FD02F7E72E21204656
:10423000FFF7C1FA1DB100F0EF022E21CEE740F0EA
:104240001002D2B2F9E70E212046FFF7B4FA25B1E9
:1042500040F00402D2B20E21C0E700F0FB02FAE700
:1042600000F0DF02E9E770B504460D462046FFF78F
:10427000FAFAA0F11103DBB2012B0646F6D91F288A
:10428000F4D0032D05D12A4608212046FFF77EFEF3
:104290001BE0A84219D0162819D1192D23D10922C3
:1042A00020461146FFF772FE0F2D14D1032208217C
:1042B0002046FFF76BFE0F212046FFF77CFA206BAC
:1042C000FCF7ADFE0F2384F83A30304670BD192854
:1042D000EAD1162DE2E70F2E02D12046FFF7CFFAE2
:1042E0002A462946D1E70F2DFAD1DFE770B50E46F1
:1042F00000210446FDF7DCFC094D50B9E2882B880B
:1043000012B21BB29A4204D04EB901212046FDF7E9
:10431000CFFC01202B88E380A3880133A38070BDEC
:10432000940200200021FFF7E1BF000008B50C4B0C
:10433000C1881B8809B21BB2994203D009490320E6
:10434000FCF7FEFC8388002BF8D0013B9BB28380F6
:1043500023B9C380BDE80840FDF7DABC08BD00BF43
:1043600094020020F85D000838B1054B0A0901F0FD
:104370000F019A5C5B5C027043700220704700BFC3
:10438000326600087FB50C46054600B119B90D49E3
:104390000320FCF7D5FC0A4601AE232100F0F1F919
:1043A000304600F057F90023B3FBF4F204FB12325D
:1043B000F05CA95C013341400C2BA954F4D104B04A
:1043C00070BD00BFF85D000810B50446FFF7DAFFC6
:1043D000034A1378591C117022785340237010BD82
:1043E0002402002070B50446FEF7F6FE00232246A4
:1043F000A38323732323A07622F80E3F236820464D
:104400005D690621AC46BDE87040022360470000AC
:10441000062938B505460C46104643D009D803296D
:104420002CD034D8002941D002291AD06FF085034E
:1044300036E0162940D008D8082953D01129F5D1E3
:10444000012B10D96623138016E01A2940D02729A2
:1044500044D01829EAD1012B05D195F90C2002701E
:104460001EE0012B03D83E490320FCF769FC0A46F5
:1044700005F1100100F061F9022311E0072BF2D9D8
:10448000082205F1120100F058F9082308E0022B78
:10449000E9D1AA8B520702D50822028000E00380EE
:1044A000184638BD022BDED1EA89F6E7022BDAD1B5
:1044B000EB7E13800123F3E7012BD4D1AB8B13F0F8
:1044C000200F02D001230370EAE700230370F1E715
:1044D000012BC8D1AB8B13F0020FF2E7022BC2D134
:1044E0000322DAE7072BBED9AB8B00225B074BBF59
:1044F0002346022305F1120105F11001042B42703D
:10450000027018D0082B03D0022BBED1134619E03D
:104510000A7882F0020202704A7842708A788270C9
:10452000CA78C2700A7902714A7942718A798271B5
:10453000CA79C271B4E70B7883F0020303704B7839
:1045400043700223FF240022C470FE248270047191
:104550004271CA5C194482714B78C37195E700BF00
:10456000F85D000870B515461C461A296CD8DFE8BE
:1045700001F00E6B1A2A3A3A4D6B6B6B6B6B6B6BDF
:104580006B6B6B6B6B6B6B6B526B656B5C00022CBC
:1045900003D02F490320FCF7D3FB1388FF2BF8D857
:1045A000C376204670BD022CF3D800F1100602221B
:1045B0000021304600F0E5F822462946304600F05A
:1045C000BCF80224EDE7082CE3D800F1120608221B
:1045D0000021304600F0D5F822462946304600F04A
:1045E000ACF80824DDE7022CD3D11388022B04D0C9
:1045F000082B07D06FF06904D3E7838B23F0040303
:104600008383CEE7838B43F00403F9E7022CC0D108
:104610001388C381C5E71278838B1AB143F0200356
:104620008383CEE723F02003FAE71278838B12B15D
:1046300043F00203F4E723F00203F1E7012CA8D1D1
:1046400092F900300373ACE76FF08504A9E700BF6F
:10465000F85D00080C22014900F06FB8E8F7FF1F71
:1046600010B586B006AC04F8093D012301930DF1A5
:10467000170300932346FEF78DFE9DF8170006B042
:1046800010BDF0B585B01F4604AB03F8012D002422
:10469000012205460E46CDE90042FEF77BFE3B4671
:1046A000224631462846FFF7DBFF05B0F0BD00008B
:1046B000074B10B51C6824B1A36913B9204600F05C
:1046C000EDFA61682046BDE8104000F08DBB00BFE8
:1046D0002802002070B500250C4E0D4CA41BA41020
:1046E000A54209D1FBF726FD00250A4E0A4CA41B62
:1046F000A410A54205D170BD56F825309847013564
:10470000EEE756F8253098470135F2E7DC660008F9
:10471000DC660008DC660008DC66000830B50024B2
:10472000A24201D1002007E0035D01340D1915F804
:10473000015CAB42F4D0581B30BD10B5431E0A4497
:10474000914200D110BD11F8014B03F8014FF7E77A
:10475000884210B501EB020307D8421E99420AD0E5
:1047600011F8014B02F8014FF8E78342F5D981189F
:10477000D21AD34200D110BD13F8014D01F8014DFA
:10478000F7E703460244934200D1704703F8011B48
:10479000F9E700000FB40A4B13B51C6824B1A369F4
:1047A00013B9204600F07AFA05AB049AA1682046B6
:1047B000019300F0C9FD02B0BDE8104004B070479D
:1047C0002802002038B5084B05461C6824B1A369AF
:1047D00013B9204600F062FAA26829462046BDE8D7
:1047E000384001F04FB800BF2802002070B50E46D7
:1047F000054618B183690BB900F050FAAB69AC6893
:1048000013B9284600F04AFA234B9C4217D16C6832
:10481000A3891B071DD52369DBB1013EA36816F8E8
:10482000011F013BA360E9B9002B2EDA22460A21C1
:10483000284600F071F8013011D00A2011E0174B22
:104840009C4201D1AC68E3E7154B9C4208BFEC6881
:10485000DEE72146284600F0B1F80028DDD04FF011
:10486000FF3070BD002B04DAA2699A4206DC0A29E7
:1048700004D023685A1C22601970CFE722462846CC
:1048800000F04AF80130C9D1E9E70A2023685A1C30
:1048900022601870E5E700BF6866000888660008B7
:1048A00048660008024B01461868FFF79FBF00BF2B
:1048B000280200200EB46FF0004100B59CB01DAB83
:1048C00002900690079104910848094953F8042B77
:1048D0000591006802A9019300F016FC0022029BDA
:1048E0001A701CB05DF804EB03B07047280200207A
:1048F0000802FFFF10F8012B11F8013B012A28BF25
:104900009A42F7D0D01A7047034611F8012B03F8EA
:10491000012B002AF9D17047F8B50E46144605461A
:1049200018B183690BB900F0B9F9214B9C422AD127
:104930006C68A369A360A3891A072ED5236963B3A2
:1049400023692068F6B2C01A63693746834204DCE3
:104950002146284600F026F928BBA3680130013B18
:10496000A36023685A1C22601E706369834204D0CE
:10497000A389DB0719D50A2E17D12146284600F056
:1049800011F990B10FE00B4B9C4201D1AC68D0E71C
:10499000094B9C4208BFEC68CBE72146284600F053
:1049A0000DF80028CCD04FF0FF373846F8BD00BFD7
:1049B000686600088866000848660008324B70B5D3
:1049C0001D6806460C4625B1AB6913B9284600F0B0
:1049D00065F92E4B9C420FD16C68B4F90C309AB239
:1049E00015072CD4D00611D40922326043F04003BD
:1049F000A3814FF0FF303EE0254B9C4201D1AC68D3
:104A0000EBE7244B9C4208BFEC68E6E7510712D560
:104A1000616B41B104F14403994202D0304600F089
:104A200073FA00236363A38923F02403A381002383
:104A3000636023692360A38943F00803A38123698A
:104A40004BB9A38903F42073B3F5007F03D021464B
:104A5000304600F019FAA28912F001030CD00023AD
:104A6000A36063695B42A361236953B9B4F90C3055
:104A700013F08000BAD170BD920758BF6369A3607C
:104A8000F2E70020F7E700BF280200206866000870
:104A900088660008486600088A892DE9F0410546C5
:104AA00010070C4658D44B68002B05DC0B6C002B10
:104AB00002DC0020BDE8F081E66A002EF9D0002378
:104AC00012F480522F68216A2B6032D0606DA38966
:104AD0005A0705D56368C01A636B0BB1236CC01A03
:104AE00000230246E66A216A2846B047431CA38990
:104AF00006D129681D2948D8294ACA40D60744D575
:104B0000002262602269D904226004D5421C01D1CE
:104B10002B6803B96065616B2F600029C9D004F16F
:104B20004403994202D0284600F0EEF90020606369
:104B3000C0E701232846B047411CC8D12B68002B91
:104B4000C5D01D2B01D0162B01D12F60B1E7A38951
:104B500043F04003A381ADE70F69002FA9D093076D
:104B600018BF00230E6808BF4B69A6EB07080F604B
:104B70008B60B8F1000F9CDD43463A46216A284617
:104B8000A66AB047002806DCA38943F04003A3814E
:104B90004FF0FF308EE70744A8EB0008E9E700BFBD
:104BA0000100402038B50B6905460C46DBB118B151
:104BB00083690BB900F072F80C4B9C4209D16C6808
:104BC000B4F90C307BB121462846BDE83840FFF7E8
:104BD00063BF074B9C4201D1AC68F1E7054B9C4297
:104BE00008BFEC68ECE7002038BD00BF686600082D
:104BF0008866000848660008014620B9044B05494C
:104C0000186800F0D3B8044B1868FFF7CBBF00BF9B
:104C100044660008A54B000828020020002310B5B8
:104C20000446C0E90033836081814366C281C0E9E4
:104C300004338361194608225C30FFF7A2FD054B5F
:104C400024626362044BA362044BE362044B23635C
:104C500010BD00BF495900086B590008A35900084E
:104C6000C7590008014900F0A1B800BFA54B0008D2
:104C700070B568254A1E55430E4605F1740100F0D3
:104C80008FF9044640B10021C0E900160C30A06045
:104C900005F16802FFF775FD204670BD836910B508
:104CA000044633BBC0E912330365124B124A1B683A
:104CB0008262984204BF0123836100F01FF86060A4
:104CC000204600F01BF8A060204600F017F80022F4
:104CD000E06004216068FFF7A1FF01220921A068BC
:104CE000FFF79CFF02221221E068FFF797FF0123E4
:104CF000A36110BD44660008654C0008F8B51B4B65
:104D000007461E68B36913B93046FFF7C7FF483638
:104D1000D6E90134013B03D5336833B13668F7E790
:104D2000B4F90C506DB16834F4E704213846FFF74C
:104D30009FFF30600028F1D10C2304463B602046E1
:104D4000F8BD0B4B6566C4E90055A560C4E90335A1
:104D5000C4E905550822294604F15C00FFF711FD5E
:104D6000C4E90D55C4E91255E9E700BF44660008DF
:104D70000100FFFF2DE9F0418846002600F14804BC
:104D800014B93046BDE8F081D4E90175013F01D581
:104D90002468F5E7AB89012B06D9B5F90E3001334C
:104DA00002D02846C04706436835EFE72DE9F843AF
:104DB00080468946002600F1480414B93046BDE813
:104DC000F883D4E90175013F01D52468F5E7AB8983
:104DD000012B07D9B5F90E30013303D029464046DF
:104DE000C84706436835EEE738B50C46054618B1A6
:104DF00083690BB9FFF752FF0E4B9C420BD16C68D5
:104E00006368013B002B63600FDA21462846BDE84A
:104E1000384000F06DBD084B9C4201D1AC68EFE713
:104E2000064B9C4208BFEC68EAE723685A1C2260E4
:104E3000187838BD6866000888660008486600086B
:104E400070B50E46B1F90E1096B0002914461D46F5
:104E500007DA00232B60B3891A0610D44FF480635D
:104E60000EE06A46FBF79AF90028F2DB019A02F499
:104E70007042A2F500535A425A412A60EEE740239D
:104E80000020236016B070BD8B8973B59D07064660
:104E90000C4607D504F147032360236101236361B6
:104EA00002B070BD01AB6A46FFF7CAFF0099054624
:104EB000304600F075F848B9B4F90C309A05EFD4D3
:104EC00023F0030343F00203A381E3E70D4BB36236
:104ED000A389206043F08003A381009B206163616C
:104EE000019B5BB1B4F90E103046FBF75CF928B1B9
:104EF000A38923F0030343F00103A381A3891D4386
:104F0000A581CDE7654C000838B50546002943D09A
:104F100051F8043C0C1F002BB8BFE41800F065FDED
:104F20001E4A1368104633B9636014602846BDE812
:104F3000384000F05BBDA3420BD921686218934250
:104F400001BF1A685B685218226063600460EDE775
:104F500013465A680AB1A242FAD919685818A042F1
:104F60000BD120680144581882421960DED11068C4
:104F70005268014419605A60D8E702D90C232B60AB
:104F8000D4E7206821188A4201BF116852680918C5
:104F9000216062605C60C9E738BD00BF0C2E002054
:104FA00070B5CD1C25F0030508350C2D38BF0C2538
:104FB000002D064601DBA94203D90C2333600020F3
:104FC00070BD00F012FD214A1468214691B9204CB1
:104FD00023681BB93046FBF7B1F8206029463046FC
:104FE000FBF7ACF8431C24D10C233046336000F0AF
:104FF000FDFCE4E70B685B1B18D40B2B0FD90B608F
:10500000CC18CD50304600F0F1FC04F10B00231D0C
:1050100020F00700C31AD3D05A42E250D0E74B68C1
:105020008C4216BF636013600C46EBE70C46496880
:10503000CCE7C41C24F00304A04205D0211A30465A
:10504000FBF77CF80130CFD02560DBE70C2E002089
:10505000102E00202DE9F0478E6882469E420C46B5
:105060009046994637D88A8912F4906F31D002233E
:10507000256809696F1A656905EB450595FBF3F528
:1050800009F101033B449D4238BF1D46530530D50D
:105090002946FFF785FF064650B90C234FF0FF3035
:1050A000CAF80030A38943F04003A381BDE8F0872C
:1050B0003A462169FFF741FBA38923F4906343F04B
:1050C0008003A38126613E4426604E466561ED1B48
:1050D000A5604E4500D94E46324641462068FFF74E
:1050E00037FBA36800209B1BA36023681E44266037
:1050F000DCE72A4600F07BFC06460028E2D1216965
:105100005046FFF701FFC8E72DE9F04F1D468B8998
:105110009DB01F0680460C4616460FD50B696BB92D
:105120004021FFF73DFF2060206128B90C23C8F81B
:1051300000304FF0FF30C8E0402363610023099343
:1051400020238DF8293030234FF0010B8DF82A30C1
:10515000039537463D4615F8013B0BB1252B3ED153
:10516000B7EB060A0BD05346324621464046FFF7BE
:1051700071FF013000F0A480099B534409933B78F0
:10518000002B00F09D8000234FF0FF32CDE9052376
:10519000049307938DF853301A932F46052217F87E
:1051A000011B504800F013FC049BD0B9D90644BF42
:1051B00020228DF853201A0744BF2B228DF853204C
:1051C0002A782A2A15D02F4600200A25079A394620
:1051D00011F8013B303B092B4DD9B8B10FE02F46F8
:1051E000B8E7404A3D46801A0BFA00F01843049095
:1051F000D3E7039A111D12680391002A01DB07927D
:1052000004E0524243F00203079204933B782E2BB2
:105210000CD17B782A2B33D1039B02371A1D1B68D4
:105220000392002BB8BF4FF0FF3305932E4D03229E
:105230003978284600F0CBFB38B14023401B03FAF5
:1052400000F0049B01370343049339780622274872
:105250007E1C8DF8281000F0BAFB002838D0244BB3
:1052600013BB039B073323F0070308330393099B06
:105270004B4409936DE705FB023201200F46A6E778
:1052800000230A25194601370593384610F8012BEB
:10529000303A092A03D9002BC8D00591C6E705FB8F
:1052A000012101230746F0E703AB00932246114B8F
:1052B00004A94046AFF30080B0F1FF3F8146D6D14C
:1052C000A3895B063FF535AF09981DB0BDE8F08FA7
:1052D00003AB00932246074B04A9404600F0C0F9F7
:1052E000EAE700BFA8660008AE660008B2660008DC
:1052F0000000000055500008936810B4013B002BDB
:10530000936007DA9469A34201DB0A2902D110BC39
:10531000FFF702BB1368581C10601970084610BCD8
:105320007047F8B506460F461446D518AC4201D171
:10533000002007E03A4614F8011B3046FFF7DCFF77
:10534000431CF3D1F8BD00002DE9F04F0C469DB091
:1053500017461D46064618B183690BB9FFF79EFC38
:105360007C4B9C4258D17468A38918075ED5236989
:10537000002B5BD00023099320238DF829303023A4
:105380004FF0010B8DF82A300395B846454615F8C5
:10539000013B0BB1252B54D1B8EB070A0BD0534678
:1053A0003A4621463046FFF7BCFF013000F0C2808C
:1053B000099B5344099398F80030002B00F0BA8001
:1053C00000234FF0FF32CDE90523049307938DF8B6
:1053D00053301A93A846052218F8011B5E4800F0C6
:1053E000F6FA049B78BBD90644BF20228DF85320DF
:1053F0001A0744BF2B228DF853202A782A2A2AD054
:10540000A84600200A25079A414611F8013B303B87
:10541000092B69D960B324E0504B9C4201D1B46898
:10542000A2E74F4B9C4208BFF4689DE721463046F7
:10543000FFF7C4FA00289DD04FF0FF301DB0BDE843
:10544000F08FA846A2E7444A4546801A0BFA00F0BE
:1054500018430490BEE7039A111D12680391002AB5
:1054600001DB079204E0524243F0020307920493E7
:1054700098F800302E2B0ED198F801302A2B38D115
:10548000039B08F102081A1D1B680392002BB8BF8A
:105490004FF0FF330593334D032298F80010284650
:1054A00000F095FA40B14023401B03FA00F0049B42
:1054B00008F101080343049398F8001006222A48D3
:1054C00008F101078DF8281000F081FA002837D084
:1054D000264B1BBB039B073323F0070308330393BF
:1054E000099B4B44099350E705FB02320120884693
:1054F0008AE700230A25194608F10108059340466A
:1055000010F8012B303A092A03D9002BC3D005919A
:10551000C1E705FB012101238046F0E703AB0093BF
:105520002246134B04A93046AFF30080B0F1FF3F91
:105530008146D5D1A3895B063FF57EAF09987DE70B
:1055400003AB009322460A4B04A9304600F088F8CA
:10555000ECE700BF68660008A866000888660008D7
:1055600048660008AE660008B26600080000000049
:10557000235300082DE9F04791461F468A680B69BE
:1055800006469342B8BF1346C9F8003091F843204D
:105590000C46DDF8208012B10133C9F800302368D1
:1055A000990642BFD9F800300233C9F800302568A7
:1055B00015F0060507D104F1190AE368D9F80020AF
:1055C0009B1AAB4229DC94F843302268003318BFA1
:1055D000012392062ED404F1430239463046C047D7
:1055E000013021D02368E56803F00603042B18BFBF
:1055F0000025D9F800204FF0000908BFAD1AA368B4
:10560000226908BF25EAE5759342C4BF9B1AED18CD
:105610001A344D451AD1002008E00123524639467C
:105620003046C047013003D14FF0FF30BDE8F0876E
:105630000135C2E73020E11881F843005A1C94F884
:1056400045102244023382F84310C4E70123224666
:1056500039463046C0470130E6D009F10109D8E7A4
:105660002DE9F04301F1430C0C46097E85B06E290B
:105670001746064698460C9A00F0B38022D8632954
:1056800036D00AD8002900F0B980582900F083806C
:1056900004F1420584F8421032E0642901D06929FE
:1056A000F6D120681368050603F104012AD51B68AA
:1056B0001160002B03DA2D225B4284F843206F48EF
:1056C0000A2239E0732900F09D8008D86F2920D084
:1056D0007029DDD1236843F02003236003E075299E
:1056E00017D07829D4D17823654884F8453055E01F
:1056F000136804F14205191D1B68116084F84230DB
:1057000001238CE01B6810F0400F116018BF1BB222
:10571000CFE713682568181D1060280601D51B689F
:1057200002E06806FBD51B886F2914BF0A220822F5
:105730005248002184F843106568002DA560C0F22E
:105740009580216821F004012160002B3DD1002DBE
:1057500040F08E806546082A0BD12368DB0708D508
:10576000236962689A42DEBF302305F8013C05F1E7
:10577000FF35ACEB05032361CDF800803B4603AA5F
:1057800021463046FFF7F6FE01304DD14FF0FF3095
:1057900005B0BDE8F083394884F8451013682168E6
:1057A0001D1D1B6815600A060BD5CA0744BF41F0D2
:1057B000200121601BB9226822F020022260102201
:1057C000B7E74D0648BF9BB2EFE76546B3FBF2F182
:1057D00002FB1133C35C05F8013D0B460029F5D1EE
:1057E000B9E713682568181D6169106028061B68F1
:1057F00001D5196002E06A06FBD5198000236546D1
:105800002361B9E71368191D11601D6862680021E2
:10581000284600F0DCF808B1401B60606368236133
:10582000002384F84330A7E723692A4639463046E7
:10583000C0470130AAD023689B0713D4E068039BBC
:105840009842B8BF1846A3E701234A463946304676
:10585000C04701309AD00135E368039A9B1AAB42E6
:10586000F2DCEBE7002504F11909F5E7002BACD1D8
:10587000037804F1420584F842306CE7B966000809
:10588000CA66000870B50D461446064618B183690D
:105890000BB9FFF703FA134B9C4212D17468A3684B
:1058A000013B002BA36016DAA269934202DBEBB244
:1058B0000A2B10D1224629463046BDE87040FFF73A
:1058C0002BB8094B9C4201D1B468E8E7074B9C42D6
:1058D00008BFF468E3E72368E8B25A1C22601D7031
:1058E00070BD00BF6866000888660008486600084A
:1058F00038B50C46054618B183690BB9FFF7CEF9E8
:105900000E4B9C420DD16C682146284600F09EF853
:1059100088B96368013B636023685A1C2260187869
:1059200038BD074B9C4201D1AC68EDE7054B9C426A
:1059300008BFEC68E8E74FF0FF30F1E76866000861
:10594000886600084866000810B50C46B1F90E10CC
:10595000FAF712FC0028ABBF636DA3891B1823F470
:105960008053ACBF6365A38110BD2DE9F0411F4694
:105970008B890546DB050C46164605D50223002219
:10598000B1F90E10FAF705FCA389324623F48053CF
:10599000A381B4F90E103B462846BDE8F041FAF762
:1059A000EFBB10B50C46B1F90E10FAF7F2FB431C31
:1059B000A38915BF606523F4805343F48053A3810A
:1059C00018BFA38110BDB1F90E10FAF7DDBB10B5F9
:1059D000C9B202449042034601D1002303E01C787F
:1059E00001308C42F6D1184610BD70477047F8B5AB
:1059F000074614460E4621B9BDE8F8401146FFF7A8
:105A0000CFBA22B9FFF780FA25462846F8BD00F044
:105A1000A9F8A0420FD221463846FFF7C1FA054641
:105A20000028F2D031462246FEF787FE314638463E
:105A3000FFF76AFAE9E73546E7E7838903F00903E8
:105A4000092B01D1FFF7D8B800207047F8B50C46F4
:105A5000054618B183690BB9FFF720F93C4B9C420E
:105A60000AD16C680023B4F90C20636093B29E06DF
:105A70000CD54FF0FF3068E0364B9C4201D1AC684A
:105A8000F0E7354B9C4208BFEC68EBE758074AD477
:105A9000D90605D4092342F040022B60A281E8E731
:105AA0001A070BD521462846FFF77CF80028E0D1DD
:105AB000A389A06023F00803A381A061A38943F018
:105AC0000403A38123691BB921462846FFF7DCF9AB
:105AD000B4F90C70BEB2B3070FD00123A3811F4BE2
