:020000040800F2
:10000000000200209504000831040008ED030008F8
:1000100041040008510400086104000800000000C9
:10002000000000000000000000000000D1030008F4
:100030007104000800000000B503000881040008F6
:1000400031010008310100083101000831010008C8
:1000500031010008310100082111000821110008B8
:1000600021110008211100082111000831010008A8
:100070003101000831010008310100083101000898
:100080003101000831010008310100083101000888
:100090003101000831010008310100082111000878
:1000A0003101000831010008310100083101000868
:1000B000A5150008AB150008310100083101000842
:1000C0003101000831010008310100083101000848
:1000D000310100085D0800086308000831010008CC
:1000E0002111000831010008310100083101000828
:1000F0003101000831010008310100083101000818
:100100003101000831010008310100083101000807
:1001100031010008310100083101000831010008F7
:1001200031010008310100083101000831010008E7
:1001300000F0A6B900F0B8BA7047000070B50C46E0
:10014000064600F0A1FA094B094A1D682C44944266
:1001500002D8084A944207D20C234FF0FF3533608F
:1001600000F09AFA284670BD1C60F9E700020020F2
:10017000000001200C2C00201946104600F0A0BA07
:100180001946104600F0A4BA132303604FF0FF3065
:100190007047132303604FF0FF3070471323036051
:1001A0004FF0FF3070470023022903608CBF00200E
:1001B00001207047134910B50C68002094FAA4F18F
:1001C0008442B1FA81F108BF4FF0FF310E4C0F4B62
:1001D00054F8211018600E4B09681A68A1F1080440
:1001E00094420ED022B110790A2804BF0B2010715E
:1001F0000A22012001F8042C31F9021C054A1C6076
:10020000118010BD90020020A40200209C0200205A
:100210009802002094020020092930B503791AD9E8
:10022000092B14D842791A4B00F1080453F82250D4
:100230007DB12D68856053F822502C6043F8224030
:100240000123144A4479A3401468234313600171C5
:1002500030BD8460F2E7092BF9D945790C4B53F88E
:1002600025203AB11468A2420BBF0022246843F84B
:1002700025201460427953F82230002BE7D1012366
:10028000044C03FA02F2236823EA02032360DEE748
:10029000A40200209002002008B5094B1B681A79BF
:1002A000092A02D95B79834205D900F0F8F918B11F
:1002B0000122044B1A6008BDBDE8084000F072B886
:1002C000980200209C020020002408B500F0DCF910
:1002D000084B094A1B88094D1BB242F82340084AC3
:1002E000214613682868013B1360FFF795FF2C60D7
:1002F00000F054F894020020E4020020980200204C
:10030000A002002013444FF0773223F0030310B50E
:100310001C1F43F8042C620742BF4FF08832A3F140
:10032000080443F8082C4FF0807344E902030D4B96
:10033000002244F80C3C0323022044E90532012347
:10034000224644E907300B2342F8201D42F8043DC1
:10035000013B032BFAD120466FF0020340F8443DE5
:1003600010BD00BFC90200080548064A064B0168D7
:10037000914201D1984201D3181A70470430F6E730
:1003800000000020FEE7FEE700020020EFF30880F7
:1003900070470000004870470000002000F078F926
:1003A00001DFFEE7024A536843F080535360704711
:1003B00000ED00E0EFF3098020E9F00F40F804EDD4
:1003C00002490968086000F003F800009802002064
:1003D000FFF7F0FE04480068016801C9B1E8F00FBA
:1003E00081F3098800470000980200200D4B0E4A57
:1003F0000E496846904203D8984201D9002102E094
:1004000009468D46012104207246024202D1EFF3D3
:10041000088001E0EFF309802DE9F00F6B4600F052
:100420006FF800BF580100200000012000020020EA
:1004300008B50249042000F083FC00BF55570008AE
:1004400008B50249062000F07BFC00BF42570008B7
:1004500008B50249072000F073FC00BF1C550008D6
:1004600008B50249082000F06BFC00BF6157000886
:1004700008B50249092000F063FC00BF2E550008B2
:1004800008B502490A2000F05BFC00BF4055000897
:100490007047704708B5FFF7FBFF6A46114B1249DA
:1004A000934213D3114A124B12498B4211D30021AC
:1004B000114B124A934211D3FFF7EBFF00F01AFCE5
:1004C00003F09EFFBDE8084000F074BC43F8041B35
:1004D000E6E752F8040F43F8040BE6E743F8041B81
:1004E000E8E700BF00000020FEE7FEE7385D0008F7
:1004F0000002002090020020900200200C2C00201E
:100500002DE9F04F9A464A4B93469A6B8FB003926F
:100510005A6B9F6A0492DA6A044605921A6BDB6B87
:1005200006920793434B88461A68434B9A4202D07F
:10053000424804F033F8B8F1000F4ED0002540488F
:1005400004F02CF82E463F4804F028F839463E487F
:1005500003F09CFF05993D4803F098FF06993C483D
:1005600003F094FF07993B4803F090FF3A0403D54A
:100570000399394803F08AFF3B0603D504993748AD
:1005800003F084FF364804F009F85946354803F073
:100590007DFFB8F1000F1BD1334803F0FFFF314658
:1005A000324803F073FF6946314BC91A03D54942FB
:1005B000304803F06BFF20468268C36801698C46AF
:1005C00041698E46AD46514691E8F00F416800689A
:1005D00001BE2949052000F0B3FBD4E902300890A0
:1005E0002069D4E906690990606919F4007F0A90CE
:1005F0002248D4E9001208BF04F12005CDE90C23FC
:1006000018BF04F124050B9103F0C8FF089B0B9958
:1006100000931B48DDE90C2303F038FFDDE90912E4
:10062000CDF800903346174803F030FF8BE700BF4A
:1006300000ED00E000000020FEE7FEE74E55000858
:100640006455000829560008325600084256000832
:10065000525600086256000872560008825600087A
:100660009256000897560008A9560008DA56000866
:1006700058010020025700082F5700089355000822
:10068000AE550008EB550008EFF3108072B67047C6
:1006900062B6EFF31080704780F310887047EFF375
:1006A0000580C0B270470000024B034A0349002096
:1006B00000F078B804020020390F000820A10700DC
:1006C0000A460146014800F042BC00BF0402002077
:1006D00010B50C460A460146002000F025F82046D9
:1006E00010BD000038B5142343430C4AD458256884
:1006F000AA0608D50A4B616803EBC002C9B253F8D9
:100700003030506898472B0748BF6368054B1B681B
:100710001BB1BDE83840FFF745BE38BD785700082B
:10072000A80300209C020020012810B50AD8142339
:1007300058430A4B0A441B58914207D11A68520683
:10074000FCD510BD0649032000F0FAFA11F8010BA0
:100750001C682406FCD55860EEE700BF78570008F7
:10076000A0570008012810B5044603D90A49032000
:1007700000F0E6FA094B53F8303013B1012000F0D5
:1007800013FD1422064B02FB04346168207CBDE893
:10079000104000F033BE00BFA0570008A80300209F
:1007A0007857000801282DE9F84304460D461746FE
:1007B00003D92649032000F0C3FA4FF01408244E51
:1007C000244A08FB0068D8F80C9042F8307002EB1D
:1007D000C00203215360484600F0CBFB484600F0BE
:1007E0001EFC0B21484600F0F8FB27B10421D8F885
:1007F000080000F0BEFB2046FFF7B4FF14235C4363
:10080000002306EB0408345998F81000E3602361D4
:10081000636100F0D7FDB0FBF5F080B2A0608FB14E
:10082000012198F811305AB203F01F0301FA03F3C3
:100830000949520941F8223042F22C03E3600020BA
:10084000BDE8F88342F20803F8E700BFA0570008AC
:1008500078570008A803002000E100E00020FFF71F
:1008600041BF0120FFF73EBF10B598B1012821D04C
:100870000024164A136923F004031361FFF704FFF1
:10088000BFF34F8F30BFFFF707FFECB1BDE810405B
:1008900000F02EBD0E4B1A6842F00E021A605A6824
:1008A00042F480725A60094A0124136943F0040338
:1008B0001361E3E7064B1A6822F003021A601A6814
:1008C00042F001021A60EEE710BD00BF00ED00E04B
:1008D0000070004008B5FFF7D7FEBDE808400020D3
:1008E000FFF7C2BF002000F00BBE000038B5044C7B
:1008F0002568FFF7F7FF2368AB42F9D1184338BDED
:10090000C0030020034B196819B982B2084600F0F1
:10091000D7BD7047B803002010B5094A136843B12A
:100920009C6881688C4207D303D15C6841688C4223
:1009300002D90360106010BD1A461B68EFE700BFC4
:10094000C40300202DE9F047294E3268B24602F573
:100950008032326032681AB9264B1A6801321A6046
:100960000020254B254C1A681860236884461946D8
:10097000234FDFF880E0DFF88C803A6021B1DEF8A9
:1009800000508E68AE4217D900B12160BCF1000F53
:1009900010D00021CCF800103AB3C3B151685868A8
:1009A00081428CBF19461146084612681B6882B9FD
:1009B00003603960BDE8F0874D68DAF8009005EA19
:1009C00008054D45E0D18C4601200968D6E711465F
:1009D000EAE70BB90260ECE754685D68AC428CBF93
:1009E0001C46144604602046DFE73B60E2E700BF98
:1009F000C0030020BC030020C8030020C403002063
:100A0000CC0300200000FFFF01232DE9F041324F0D
:100A1000324C3B602368CBB9FFF794FF4FF6FF756C
:100A2000FFF760FFA842FBD000254FF000082368C5
:100A300083B9FFF757FF1430854228D9FFF782FFAB
:100A4000FFF750FF8542FBD30025F0E7FFF74AFF91
:100A50000546EAE75E68FFF745FF854205D8B3B271
:100A6000834202D91B1A132BE3D823685E68FFF771
:100A700039FF854202D8B6B28642F6D823681A6892
:100A8000C3E901882260D3E903209047CFE72368B8
:100A90006BB15E68FFF72AFF063E14308642C6D36C
:100AA000002330463B60BDE8F041FFF72BBFFFF766
:100AB00019FF8542064602D9FFF744FFC4E700F15B
:100AC00014039BB2984204D9FFF70CFF8642FBD96E
:100AD000F2E74FF6FF76E3E7B8030020CC030020EF
:100AE000144A1368834210D11B6813601BB1586805
:100AF0000638FFF707BF4FF6FF70FAE7984219680C
:100B000001D1116070471A460B46002BF6D10A4AF4
:100B100013681BB9094A136833B9704798421968BA
:100B2000EFD01A460B46F4E798421968E9D01A4606
:100B30000B46F1E7CC030020C8030020C4030020CB
:100B400008B50023054A1846054900F0EBFCBDE84E
:100B500008404FF0FF30FFF7D5BE00BF090A00087C
:100B600040420F00F8B504460D46FFF7BFFE0023D4
:100B700023602B1A1E2B07460DD8ADB2FFF7B2FE2D
:100B80008542FBD3FFF7AEFE8542FBD8D4E90330A4
:100B900098470020F8BDFFF777FD636806460BB95C
:100BA000A36813B12046FFF79BFF1D4BA81F1A68CF
:100BB000874288BF0132A2601B68A26865609A42C2
:100BC00005D8184B1A68030C1B049A4206D020461D
:100BD000FFF7A2FE3046FFF75FFDDAE7BFB2B8428B
:100BE0000ED9114B19461A6812B15768BD4213D27B
:100BF00022601C600B689C42ECD1FFF783FEE9E7A2
:100C00000A4A136813B159688D4202D223601460F6
:100C1000E0E71A461B68F5E713461268E4E700BFF1
:100C2000BC030020C0030020CC030020C803002028
:100C300038B50446FFF728FD636805460BB9A3687D
:100C400013B12046FFF74CFF2846BDE83840FFF7B8
:100C500023BDC36870B504460D46CBB1FFF7E8FF6E
:100C60001D2D0DD8FFF73EFE0646FFF73BFE801B0D
:100C700080B28542F9D8D4E90330BDE87040184706
:100C8000FFF734FE29182046BDE87040FFF76ABF21
:100C900070BD00002DE9F04704460E4615461AB90E
:100CA000BDE8F047FFF7D5BFFFF7EEFC63680746E6
:100CB0000BB9A36813B12046FFF712FFDFF830A08D
:100CC000FFF714FEDAF800808146FFF70FFE81453A
:100CD000F6D83618454428BF013520466660A56021
:100CE000FFF71AFE3846BDE8F047FFF7D5BC00BF56
:100CF000BC03002070B50E4E0E4D00F055FB0E4C9F
:100D00000321304600F035F90321284600F031F97F
:100D10000321204600F02DF9304600F080F92846E6
:100D200000F07DF92046BDE8704000F078B900BFC2
:100D300002140140050C01400A10014070470000F8
:100D400008B50F4B0C461A689AB9012203281A609D
:100D500003D171460B4803F099FB21460A4803F082
:100D600095FB00F051FA094803F090FB084803F0A6
:100D70008DFBFFF789FCFFF7E1FFFFF7ABFD00BF3D
:100D8000D0030020B2570008B6570008115C0008D5
:100D9000D257000808B500F037FE034803F076FB91
:100DA00000F0F2FC002008BDE057000808B500F094
:100DB000DFF9FCE71FB50024FFF766FC0D4B0F229F
:100DC0001B684FF4807102930B4B019400930B4806
:100DD0000C2300F03BF80A4B07221B684FF4C0615C
:100DE000CDE90143074B084800930C2300F02EF88F
:100DF000FFF7D4FA18020020AD0D0008D40300203C
:100E00001C020020950D0008D404002038B50B7991
:100E1000092B03D908490320FFF792FF4C7901F110
:100E20000802036813B98B60026038BD13F8035CD5
:100E3000AC42F8D31846F4E7A0570008031F53F854
:100E4000042F9A42FBD0181A704700000F2A2DE990
:100E5000F74F05468B4691469A4633D810F0030368
:100E60000FBF0B46C3F10403ED18CB1A303B23F040
:100E700003031AF0080F05EB030419D12D6003E0FA
:100E800012600432A242FBD30193FFF7FDFB012263
:100E900080462749019B51F8226017B2AEB101325A
:100EA000212AF8D14046FFF7F7FB6FF08A073BE0B5
:100EB0002A46E7E701212046FFF7AEF94046FFF753
:100EC000EBFB31E06FF015072EE041F822402A4697
:100ED000DDE90C01E780FFF715FA0E9B154AA362C6
:100EE0004FF0FF33C4E9073613681AF0010F03F11E
:100EF000010320606562C4F82CB084F80590267167
:100F0000C4E90266C4E90466A6611360D2D10B216C
:100F10002046FFF781F91AF0040FCFD14046FFF7C2
:100F2000BBFB4846FFF7B8F9384603B0BDE8F08F81
:100F3000E4020020A002002038B5054600F054FB72
:100F4000044605F1100000F0B3FD204638BDF8B5A9
:100F500004460D46164600F1100732462946204643
:100F600000F02FFB00B1F8BD0121384600F070FD04
:100F7000F3E7FF29F8B504460E4620F00F0500F010
:100F80000F0727D00421C0F38323023B994001209F
:100F900000F034FA0F21FB1004F0070455F8232069
:100FA000A400A14022EA010245F8232055F82310AD
:100FB00006F00F0202FA04F40C4345F82340012323
:100FC0000020EA68BB40182E0CBF134322EA03033B
:100FD000EB60F8BD4FF0FF30FBE738B50D4604215C
:100FE000C0F383230446023B9940012000F006FA37
:100FF0000F2024F00F03C4F3C00204F0070453F8D9
:101000002210A400A04021EA000143F8221053F866
:10101000221005FA04F40C4343F8224038BD0123A2
:1010200020F00F0200F00F0003FA00F0106170478B
:10103000012320F00F0200F00F0003FA00F05061CE
:10104000704700002DE9F84F4FF0010900F00F053F
:1010500009FA05FA6FEA0A089B462E4C17462268E1
:10106000064602EA08022260FFF783FF2A4A0A9B2B
:1010700042F835B002EBC50253604946484600F0DD
:10108000BDF90F2005F00C0303F1804303F5803315
:1010900006F0030299689200904021EA00019960ED
:1010A000C6F383269968023E96400E439E60A3686D
:1010B000042D08EA0303A360A26807EA090303FA00
:1010C00005F343EA0203A360E36827FA09F708EA95
:1010D0000303E360E26807FA05F747EA0207E760FF
:1010E0000E4B0EDC063509FA05F51D60636800201D
:1010F00008EA0303636023684AEA03032360BDE848
:10110000F88F092DD5BF4FF400024FF480721A609A
:101110005A60EBE700040140D40A002000E100E03F
:101120002DE9F04100244FF001080E4D0E4F6E697D
:101130002A68164008FA04F3334206D06B6107EBC5
:10114000C40357F83420586890470134102CF1D16B
:10115000064B1B681BB1BDE8F041FFF723B9BDE8A2
:10116000F08100BF00040140D40A00209C0200204E
:10117000F8B50C4D2E6816F47F4F11D1F4B200343F
:1011800018BF0124FFF780FA2B6807469E4202D160
:101190002046FFF769FB3846BDE8F840FFF77CBA08
:1011A0000224EFE72002002038B5094D04462B5CED
:1011B000FF2B03D107490320FFF7C2FDFFF764FAB5
:1011C0002B5D0133DBB22B55BDE83840FFF764BA25
:1011D00020020020A057000838B5094D04462B5CBA
:1011E0001BB908490320FFF7ABFDFFF74DFA2B5D54
:1011F000013BDBB22B55BDE83840FFF74DBA00BFCD
:1012000020020020A05700082DE9F04F2D4B8BB095
:101210001B882D4A2D492E48ADF8243003F036F9AD
:10122000FFF7A2F80546FFF7B5F80446FFF7AEF85A
:101230002A46009023464FF40071264803F026F911
:1012400001264FF40077DFF89C90DFF89CA0DFF8D0
:101250009CB025EAE57559F826401CB394F8048043
:10126000E26A5AF82830606A079317440692FFF73B
:10127000E5FD069AB4F90610101A22680544059295
:10128000626A079BCDE90302E26A584602926279DC
:10129000019209AAB8F1090FC8BF01320092A26AEF
:1012A00003F0F4F80136212ED5D10B4BCDE90175B1
:1012B00000930A4A19460A4803F0E8F80BB0BDE863
:1012C000F08F00BF23580008255800082B5800084D
:1012D0003058000878580008FE58000800590008E7
:1012E00004590008E402002024590008C2580008EC
:1012F00038B5FFF7C9F900231D4D0446AB6000F077
:101300003BF84FF480636B602B465A6812F00C0F69
:10131000FBD11221174A116081221A601A6842F427
:1013200080321A601A689103FCD55A6822F47C1244
:101330005A605A6842F4E8125A605A6842F400321D
:101340005A601A6842F080721A601A689201FCD5DD
:101350005A6842F002025A605A6802F00C02082AE7
:10136000FAD100F015F82046BDE83840FFF794B9EF
:101370000010024000200240044B1A6842F00102B3
:101380001A601A689207FCD5704700BF001002402F
:10139000044B5A6812F00C0F1EBF1A6822F00102AB
:1013A0001A6070470010024008B500F07DFD4FF054
:1013B0008051002000F022F8FFF79AFFBDE80840B6
:1013C00000F025B9034A044B00280CBF104618460C
:1013D000704700BF0051250200A24A04044A054B91
:1013E000002818BF1346044A105C5843704700BFDA
:1013F00000A24A0400512502AF59000801280AD072
:1014000004D302280CD0BFF34F8F7047074AD3692B
:101410001943D161F7E7054A936919439161F2E7EE
:10142000024A536919435161EDE700BF00100240C1
:10143000012809D002D302280CD07047084AD3698A
:1014400023EA0101D1617047054A936923EA01014A
:1014500091617047024A536923EA01015161704763
:10146000001002402DE9F84307460024114A030109
:10147000D558DFF848802E69EB6808EBC0091E409C
:101480000223A340334209D0EA68214622EA03033B
:10149000EB60D9F8040058F8373098470134042C31
:1014A000EED1054B1B681BB1BDE8F843FEF77ABFD0
:1014B000BDE8F883B45900089C020020540B0020BA
:1014C000032910B516DC0D4B00011C181858636871
:1014D0001A4001F10C0300EB83035A6002230269F6
:1014E00003FA01F122EA01020261C3681943C160F3
:1014F000002010BD4FF0FF30FBE700BFB4590008DB
:10150000024B00011B58586A704700BFB4590008CD
:10151000034B00011A58136843F00103136070472E
:10152000B459000801282DE9F84305460F4630D884
:10153000194E040106EB0408184998F80C9041F87C
:10154000302001EBC0014B604846D8F80810FFF787
:1015500055FF36590024D8F804303460484674608A
:10156000F362FFF73BFFB0FBF7F0012398F80D2083
:10157000013851B202F01F02B06273619340084A11
:101580004909284642F82130FFF7C2FF2046BDE84E
:10159000F8834FF0FF30FAE7B4590008540B0020ED
:1015A00000E100E00020FFF75DBF0120FFF75ABF18
:1015B00082680168531C83604368013B1340C85C28
:1015C0007047F8B505460F46164614461CB1AA6882
:1015D000EB689A4201D1301BF8BD2846FFF7E8FFBF
:1015E000013C07F8010BF1E7C26830B58468436835
:1015F000121B9A4208D0C2680468551CC5600020BE
:10160000013B1340E15430BD4FF0FF30FBE70020B9
:1016100001F0A8BC2DE9FF41284C074628480E469A
:10162000254602F0BBFFDFF8A080206800F094FDA3
:10163000206080B10223B0F920000022009327210E
:1016400003ABA8F8000000F087FC0028EDDBBDF834
:101650000C30032BE9D12B683BB91A4802F09EFFEE
:101660004FF0FF3004B0BDE8F081174D1748B5F9D1
:10167000001002F00BFF164802F090FFB5F90000D1
:101680003B4600960022022100F08CFCB042E7D1DC
:10169000022604AC24F8026D0E4802F07FFFB5F973
:1016A0000000234600960022052100F07BFCB0429A
:1016B000D6D1094802F072FF0020D3E7680B002062
:1016C000D4590008E7590008660B0020FB590008B0
:1016D000085A0008175A00082B5A00082DE9F7434A
:1016E00007460D469046994600F052FD30B9214814
:1016F00002F054FF012003B0BDE8F083694628469C
:1017000000F052FD044630B91B49284602F04EFF56
:1017100060B11A48ECE7002600234A4641461846C5
:1017200001F040F9054618B91548E1E78026F3E7CE
:101730000021E3B26A46084600F084FE044638B948
:101740000F4802F02BFF2146284601F00FFAD1E79F
:101750004368056001461E71384600F0F0FB002822
:1017600005DC084802F01AFF00212046EDE70020C2
:10177000C1E700BFAB5A0008CA5A0008D05A000897
:10178000ED5A0008075B0008F0B500209FB001F09B
:10179000A3FB0024294D02F021FE2B5D984243D18A
:1017A0000134E4B2052CF6D1254802F0F7FE02F030
:1017B00015FE244C207002F011FE022160702046BC
:1017C000FFF728FF002831DB1F4C2048B4F9001038
:1017D00002F05CFE1E4802F0E1FE1E4A0221204695
:1017E00000F062F80A2002F069FE1B4802F0D6FE03
:1017F00000F03CF8194802F0D1FE194F194E384656
:10180000002101F02DFD0A21012001F041FBC5B2AC
:101810002946684601F024FB2B466A463146B4F956
:101820000000FFF75BFFEAE70024B4E70E4802F090
:10183000B5FE4FF0FF301FB0F0BD00BF1D5B0008CC
:101840004A5A0008640B0020660B00206C5A0008FE
:10185000775A0008305600087D5A0008905A000850
:1018600040420F00CA5A0008535A00081FB50A4CDC
:10187000B4F9000000280DDC084B06220293002377
:101880000193074B4FF48061009306480823FFF74C
:10189000DDFA208004B010BD6C0B0020275B00082F
:1018A000011900086E0B00202DE9F8430546164685
:1018B0000446DFF82C80DFF82C904718BC4201D199
:1018C000BDE8F883A54204D01EB13146404602F07F
:1018D000DDFD14F8011B484602F0D8FDEEE700BF1D
:1018E0002F5B0008325B000838B504464518AC424F
:1018F00000D138BD14F8010B02F0E0FDF7E700005D
:10190000002480B53C4B98B0CDE905433B4B082102
:101910001B8808A8ADF81C3000F0B2FA05A92046D3
:1019200000F0F0FE40F20523354E364FADF80E3094
:1019300040F2012401A800F09FFABDF80630A3424E
:101940000ED0B3F5007FF5D9A3F20323012BF1D814
:101950006FF0850303A901A8049300F05FFAE7E79D
:10196000029C204601F010F9014618B9204601F00A
:10197000FDF8DDE74FF0FF31204600F0FEFE456840
:10198000324605F1080829784046FFF78DFF3A20D6
:1019900002F094FD28783246083069782844FFF731
:1019A00083FF3A2002F08AFDA168384602F06EFDFE
:1019B0003A2002F083FDD4E901013246FFF774FFBB
:1019C000232002F07BFD29784046FFF78DFF287821
:1019D000697808302844FFF787FF042104F10800E4
:1019E000FFF782FFD4E90101FFF77EFF0A2002F032
:1019F00065FD0021BAE700BF0000FFFF9402002050
:101A000030560008225B000808B501F01DFAFFF708
:101A100097F800F0ABFFBDE8084000F001B8000007
:101A200013B5074C0749204601F044FC0094064BCF
:101A300002224FF48061054800F04AFE02B010BD5A
:101A400070130020385B0008505B00086E0F002008
:101A500070B504460D46FEF717FE236806463BB9EF
:101A60004FF0FF332360FEF717FE0125284670BDB7
:101A7000C5B10E4B02211D682846FEF7CDFB236839
:101A800001330AD105F1080323600023AB6030461F
:101A9000FEF702FEFEF786FCE7E729462046FFF741
:101AA000B5F9F4E7FEF7F8FDE0E700BF9802002083
:101AB00070B50446FEF7E8FD256806461DB9BDE889
:101AC0007040FEF7E9BD6B1C02D100232360F6E7EE
:101AD000284650F808390B212360FEF79DFB236848
:101AE00013B94FF0FF33236015F8034C3046FEF76F
:101AF000D3FD2046BDE87040FEF7CEBBF8B50546E5
:101B00000E46FEF7C1FD354B354A1B8807461BB212
:101B100052F823301A6A002A4DD0D3E90541A14278
:101B200049D0611C5961D9690C4046B9196931B96C
:101B3000611C04D13846FEF7AFFD2046F8BD002CED
:101B40003DDB02EBC40103C985E803001E69002EDA
:101B500037D03168002C19610CDBD3E90650596984
:101B6000691A8842B1BF4FF0FF35691C0540996181
:101B700002EBC505736893E8030085E8030016F8D7
:101B8000043C052B15D000230B217360A6F108003F
:101B9000FEF742FB16F8034C3846FEF77DFD0E2C8F
:101BA0001AD82046FEF778FB16E03846FEF774FD9B
:101BB00012E00F24F0E74FF0FF34002EB6D0DD60C6
:101BC000C4E7002CF1DA18460321FEF725FB38465E
:101BD000FEF762FDFEF7E6FB0124AEE7940200206B
:101BE000E402002010B5D0E9063244691C1BA24271
:101BF00001DA002010BD5C1C13408461F9D4026A34
:101C000003C902EBC30383E803000120F2E70000ED
:101C10002DE9F8431E46264B074653F82150254B25
:101C200091461B8803803DB93046FEF735FD4FF0E5
:101C3000FF342046BDE8F8832B79032B2ED01E4BB2
:101C400001462846D3F80080FFF7CCFF044650B188
:101C50003046FEF721FD98F80430052B01D1FEF740
:101C6000A1FB0124E5E7B9F1000F03D13046FEF7EF
:101C700013FDDEE798F804304046052B0CBF052124
:101C80000421C8F80C70FEF7C7FA414605F11000B0
:101C9000FFF7BCF83046FEF7FFFCE0E7EB6803C84F
:101CA00083E803000B212846FEF7B6FAF2E700BFEF
:101CB000E4020020940200209802002038B5044677
:101CC000FEF7E2FC074B21461B8805462380064BA6
:101CD0001868FFF787FF04462846FEF7DDFC20461C
:101CE00038BD00BF940200209802002008B50F4BB9
:101CF00053F82130B3B1212202801A79032A0BD183
:101D000003C8DA6882E8030018460B21FEF784FA5C
:101D10000120074B186008BD01461846BDE8084081
:101D2000FFF760BF4FF0FF30F5E700BFE40200208F
:101D30009C02002070B504460D46FEF7B0FC28B1A9
:101D400029462046BDE87040FFF7D0BF094B1B88ED
:101D50001BB2AB4204D12046BDE87040FFF7AEBFD6
:101D6000FEF792FC2946034601222046BDE870405A
:101D7000FFF74EBF9402002070B504460D46FEF7F3
:101D80008EFC064628B129462046BDE87040FFF784
:101D9000ADBF0A4B1B881BB2AB4204D12046BDE845
:101DA0007040FFF78BBFFEF76FFC324603462946B3
:101DB0002046BDE87040FFF72BBF00BF9402002013
:101DC0002DE9F041124F06463B880C461BB2934268
:101DD000154603D10F490320FEF7B2FFFEF754FC6E
:101DE00080463A880C4B12B253F8227005213846CF
:101DF000FEF712FA96E80300FC60434684E803000D
:101E0000012229462046BDE8F041FFF701BF00BF8F
:101E100094020020A0570008E402002070B5044698
:101E20000D46FEF731FCB4F90020114B064653F87D
:101E300022401CB90F490320FEF782FF2379052BAE
:101E400004D0FEF729FC4FF0FF3070BDE36895E841
:101E5000030083E803000B212046FEF7DDF96479D7
:101E60003046FEF719FC2046FEF716FA0120ECE793
:101E7000E4020020A05700080121FFF73FBE000048
:101E800008B5074B4A1E1B681140186203D005496C
:101E90000320FEF755FFC3E90511DA6108BD00BF55
:101EA00098020020A05700080C4B0D4A10B59A600C
:101EB000102200210B4C83F82220DA7760180131C0
:101EC0003C2980F80023F9D11A6942F010021A6106
:101ED0005A6942F400725A6110BD00BF00ED00E083
:101EE0000000000800E100E02DE9F34104468846C7
:101EF00017461E4600F02DFC054648B141462046D7
:101F000000F022FC691E0446304600F01DFE1CB99C
:101F1000284602B0BDE8F081B4F908106846ADF873
:101F200002700196FFF728FF002803DC00213046ED
:101F300000F01CFE204600F01AFC0446E7E740F2E1
:101F4000022307B5019101466846ADF80230FFF75C
:101F500013FF03B05DF804FB00B589B006930A9B3C
:101F60008DF81410ADF81C304FF40173ADF8162045
:101F7000ADF80630024605AB03A901A80293FFF7AE
:101F80001FFF40F20523BDF80E209A4203D00449FA
:101F90000320FEF7D5FE049809B05DF804FB00BFEE
:101FA000A057000800B589B006930A9B8DF814105D
:101FB000ADF81C3040F20323ADF81620ADF8063022
:101FC000024605AB03A901A80293FFF7F9FE40F210
:101FD0000523BDF80E209A4203D004490320FEF7E2
:101FE000AFFE049809B05DF804FB00BFA0570008DD
:101FF000036810B45C69034AA44601231C2110BC89
:10200000604700BFA35B000873B5837F0446033BB2
:10201000012B456826D82B680DF106021E690521A3
:1020200002232846B047022803D012490320FEF7B6
:1020300087FEBDF80630082B0CBF03210221237751
:102040002B6804F114021E6928460823B04710F1DA
:10205000860F09D02369002843F00103236107DCC0
:1020600002B070BD0221EBE7237F002BF8D0DCE744
:102070002077F5E7A0570008A0F130020346D0B260
:10208000092802D8114608467047A3F14102052AE3
:1020900002D8A3F13701F6E7A3F16102052A98BF40
:1020A000A3F15701EFE7000013B5806891B941F241
:1020B0003423ADF800100190B0F920106846ADF857
:1020C0000230FFF737FE002802DC0E4802F066FA05
:1020D00002B010BD0229FBD103689B6898470446F3
:1020E0000028F5D00346084940F2012290F910007B
:1020F000FFF7FAFE01460028EAD1204600F036FD3F
:10210000E6E700BF5A5B00080000FFFFF0B585B0AE
:102110000A9E0E4CD4E90057B74213D025B9C4E942
:1021200002550B9D25601FB109490320FEF708FEEB
:10213000CDE90143074B666000930823FEF786FE56
:102140000028F1DD014805B0F0BD00BFB01300204C
:10215000A05700086522000808B50A4B58B19842FC
:1021600003D209490320FEF7EBFD2430074B9842C8
:1021700003D3002008BD1846F8E70268002AF9D109
:102180002430F4E7B0130020A0570008D413002037
:1021900010B504460020FFF7DFFF18B1B0F920307A
:1021A000A342F8D110BD00002DE9F84F80460F463C
:1021B00019B924490320FEF7C3FD18B900252846A4
:1021C000BDE8F88F0378002BF8D003461E467578DB
:1021D0000133002DFAD13C464FF001094FF0FF3199
:1021E0003078FFF749FFB0F1000B06F1FF3A15DA3E
:1021F000B9F1000FE2D14FF00109C2450CD2B9F19B
:10220000000FDBD1013CA742D9D223783A7804F8F9
:10221000012907F8013BF6E75646DFE7D0450FD81E
:10222000002116F8010CA6F1020AFFF725FF4BEA80
:10223000001B84F800B0013501344FF00009DCE7E1
:102240000020F4E7A057000820B1036813B108305C
:1022500001F00CBF704720B1036813B1083001F0E2
:1022600009BF70472DE9F04140F2052300260446DE
:1022700094B0CDE90066ADF80230FFF7E5FF394BC9
:1022800008211B8804A823846568FFF7F9FD364BF5
:102290002846C5E901342B689B689847011E55DB29
:1022A0002846FFF7A5FE606802AA036827211E6979
:1022B0000223B047022803D02C490320FEF740FD3B
:1022C000BDF808302046A377FFF79EFE40236377D2
:1022D00023681B680BB1204698472046FFF7BBFFD9
:1022E00040F2032641F2342740F2022802A8FFF709
:1022F000C3FDBDF80A30B3421AD0B3F5017F09D24D
:1023000043450FD023685B69002BEFD002A920461C
:102310009847EBE717D0BB42F4D12B682846DB681F
:102320009847E3E7236803995B6820469847DDE711
:1023300023681B690399204698476946019002A8C3
:10234000FFF76CFDD2E72368DB68F3E7084802F08B
:102350009DF83046266026846660C5E9016614B0A3
:10236000BDE8F08194020020A9200008A0570008D1
:102370007F5B000870B50C460546FFF765FF2178C6
:10238000238907290ED1012B03D00A490320FEF728
:10239000D7FC62681C46697F11702846FFF75BFF17
:1023A000204670BD6868026816696268B0470446D6
:1023B000F3E700BFA057000870B50E460546FFF7CB
:1023C00043FF3178338907290DD01A29686815D061
:1023D000026854697268A047041E1EDC2846FFF795
:1023E0003AFF204670BD012B03D015490320FEF7AC
:1023F000A7FC726812786A770124EFE7726829698E
:102400001478012C0CBF41F4803121F48031296112
:1024100001684C691A21A047EEE73378022BDDD31F
:10242000052B09D9192BD9D173681B78052BD5D168
:102430006868FFF7DDFDD1E72846FFF7E5FDCDE74A
:10244000A05700082DE9F041174603F108020A449D
:102450000E46002180461C4608464FF0FF3300F030
:10246000A1FA0546E0B1002340680670447043803D
:102470008380C380B8F1000F05D026B132464146B3
:10248000083001F0F0FF5FB154B168684378A342AF
:1024900006D10378224608333946184401F0E3FF99
:1024A0002846BDE8F0810000F0B5456891B02B7F6B
:1024B000EA8903F02803ADF818200E4621B96FF021
:1024C0001504204611B0F0BD91F9102001323CD125
:1024D00049680F79FA060A7854BF43F0010443F0C3
:1024E000110417F0C00F03BF02F108035B1891F845
:1024F00001C04FF0020C18BF154B12B30831A87E73
:10250000471CAF76CDE90340BDF818000AAFADF81F
:102510000800ADF80400CDF800C0384600F05AFBC2
:102520000028CCD033680990CDE907372B6807A97C
:102530001B682846984700210446304600F016FBE9
:10254000BFE7027F00F11401D9E76FF04C04B8E750
:10255000135C00082DE9F043456887B02B680746F7
:102560005C68002328461A461946A04702280646FA
:1025700040F3A180002302461946184600F012FAE3
:102580002B68044648B95F68014603463246284630
:10259000B847204607B0BDE8F083D3F8048041680F
:1025A00001AB32462846C047B0F1000805DC0021E7
:1025B000204600F0DBFA0024EBE73F6917F4803790
:1025C0001FD000231A4619461846FFF73BFF054661
:1025D0000028ECD043689DF806205A71BDF804200D
:1025E000DA803A4A12885A800023036023461A6828
:1025F0002AB91D604146204600F054FAC9E7134647
:10260000F5E7606800F078FB0028D0D00146A8EB21
:1026100000083A46204600F0DFF906460028C6D0FA
:1026200047686A4604A9384600F0D8FB81466A46E6
:1026300002A9384600F082FBB9F1000FB7DB002891
:10264000B5DBC1B25FFA89F304AA02A8FFF7FAFE6C
:1026500007460028ABD0B9F1020F43680BD19DF8B3
:102660001020FF2A07D19DF81120FF2A03D11A79E3
:1026700062F07F021A719DF8062018215A71BDF888
:1026800004202846DA80114A12885A802B6804F107
:102690001002D3F810900123C8473146204600F0BD
:1026A00074F800233B60234600E013461A68002AB2
:1026B000FBD11F609EE700287FF77DAF2B680246A5
:1026C0005C68002328461946A04774E7940200205E
:1026D00013B5044C0194049C0094FFF717FD02B05D
:1026E00010BD00BFA45B000840B901B17047044BA6
:1026F000186800B9704743689342FBD00068F8E758
:10270000D413002008B50C4A0B46B1F9081052F852
:102710002120126A5AB9094801F0B8FE084903207D
:10272000FEF70EFB074A11681960136008BD002808
:10273000F8D06FF01500F9E7E4020020BC5B000858
:10274000A0570008D41300200A4601460020FFF7D6
:10275000CBBF70B5054600200E46044632462946DA
:10276000FFF7C2FF08B9204670BD0134F6E718B183
:1027700042680021FFF7B8BF704718B190F91030D8
:102780008B4200D170470068F7E710B504468C42D1
:10279000084606D124680021016000F0E7F92046D0
:1027A00010BD23461A68002AF5D0824202D1026881
:1027B0001A60F0E71346F5E7002170B5174A0730B5
:1027C000136820F0070003B35C68844210D3241A16
:1027D000072C1844124E0ED9C6F108050544B5F56C
:1027E000C05F16D9002111601A68C0E9002405E015
:1027F00019461B68E7E71C6849B91460094A801B41
:10280000118880B2814200D21080184670BD0C60E1
:10281000F4E709B91060E7E70860E5E7D81300209E
:10282000E0130020E02B002008B502490320FEF74A
:1028300087FA00BFA057000801210148FFF708B937
:10284000DC13002038B51D4BC31AB3F5C05F1FD28F
:1028500000231B4C22680AB182421AD3073121F0AF
:1028600007010260174A4518521B072A98BF8918AA
:1028700041608BB92060036853B1426802449A1AE0
:10288000072A05D81A6802601A1A5B681344436065
:1028900038BD13461268DEE75A6818601A44821A77
:1028A000072AE8D808B9FFF7BFFF0268C11A1A6003
:1028B000426818460A445A60DDE700BFE013002072
:1028C000D8130020E02B00202DE9F8438146142086
:1028D0000F4616469846FFF76FFF044650B166B1A3
:1028E0003046FFF769FF054640B920461421FFF73F
:1028F000A9FF2C462046BDE8F88335460123C4E9EC
:102900000095A66084F81080E360002FF2D0324674
:102910003946284601F0A7FDECE70000F8B504466B
:102920000026104D04B9F8BD631BB3F5C05F01D399
:10293000FFF77AFFE3681BB90B490320FEF700FAA3
:10294000012B27680AD1D4E90101E660FFF77AFF7D
:1029500014212046FFF776FF3C46E3E7013BE360A6
:10296000FAE700BFE0130020A057000808B5FFF702
:1029700063FF094B094A18211360002259711A702C
:102980005A709A70DA701A719A71DA710448BDE857
:102990000840FFF78DB800BFE0130020D8130020D7
:1029A000DC130020B2F5C05FF8B505460E461446AC
:1029B0001F460DD8FFF740FF22463B4631462846CA
:1029C000FFF782FF04460348FFF772F82046F8BD80
:1029D0000024FBE7DC1300202DE9F8430D460446F4
:1029E0009146FFF729FF2DB124B1A368AB4201D373
:1029F000636833B92A48FFF75BF800263046BDE824
:102A0000F8831420FFF7D8FE06460028F2D0A2680B
:102A100095423DD0EB1D23F007039D4238D2284656
:102A2000FFF7CAFE074620B914213046FFF70AFF18
:102A3000E0E7A068401BFFF7BFFE804630B91421D5
:102A40003046FFF7FFFE29463846EFE72A46616821
:102A5000384601F008FDD4E901124046521B2944D2
:102A600001F001FDD4E90101FFF7ECFEC4F8048098
:102A7000A3680B485B1BA3602368B560C6E90037F9
:102A8000012386F81090F3602660FFF711F8B5E790
:102A9000954208BF0023676818BF7B196360E7E7AA
:102AA000DC13002070B504460D46FFF7C5FE1CB9C7
:102AB00022490320FEF744F9D4E9010141B9002875
:102AC000F6D1A9420CD11E48FEF7F2FF002019E012
:102AD0000028EDD01B4BC31AB3F5C05FF1D3E7E775
:102AE0002DB9F0B1FFF7AEFE6560A560EBE7A94236
:102AF00017D22846FFF760FE064620B91048FEF7B9
:102B0000D7FF0C2070BD616829B1A268AA4228BF16
:102B10002A4601F0A8FCD4E90101FFF793FE6660A4
:102B2000E3E7EB1DCA1D23F0070322F007029342DF
:102B3000DBD2C91A1844FFF785FED6E7A057000874
:102B4000DC130020E013002038B504460D46FFF7E3
:102B500073FE24B9BDE838400348FEF7A9BFE36817
:102B60002B44E3602468F4E7DC13002010B504462E
:102B7000FFF762FE2046FFF7D1FEBDE81040014896
:102B8000FEF796BFDC13002038B50446FFF754FE6D
:102B90000CB1A2682AB90E48FEF78AFF0025284624
:102BA00038BDE368012B0ED9D4E9000194F9103047
:102BB000FFF78AFE054610B1E368013BE360044875
:102BC000FEF776FFEBE70248FEF772FF2546E6E7E1
:102BD000DC130020F8B5044610259DF824000F46AC
:102BE0001E466570069B9DF8281000F0070C2070AB
:102BF000154602B11FB1002B6ED0002E72D10025F8
:102C00002846F8BDBCF1020F71D1A170002B67D02E
:102C10009DF82020022BE2709DF8212022710ED019
:102C2000082B32D0002BEAD1052365B39DF81C1088
:102C30005A1CE1549DF81D100233A1541DE01A46A0
:102C40002C49304601F000FC18B9237823F020030A
:102C50002370637843F0080363707378637133788B
:102C6000A37107237DB1BDF81C10BDF8202091424F
:102C7000DCD1227842F040022270022D12D0082DC1
:102C80001BD0002DBBD11D46BAE71C23221D63704B
:102C900006F1080313F8011DB34202F8011FF9D130
:102CA0000D23DFE7627862F07F02627079785A1C48
:102CB000E15439780233A154E5E7627862F03F02CB
:102CC000627007F108021C4412F8011DBA4204F8B0
:102CD000011BF9D10833D6E7BCF1000F92D1A170E6
:102CE0000323A2E710F0050F8FD1A17090E7002D0C
:102CF0008BD185E7135C00084278014602F00C0393
:102D0000082B11D00C2B11D0B3B90078400613D486
:102D1000032012F0C00210D00B785B0658BF0230BF
:102D2000802A05D1023070470720F2E70D20F0E736
:102D3000C02A01D1083070470020704770B501B13A
:102D40001AB925490320FDF7FBFF437803F00C0374
:102D5000082B08D103785C0603D5C3781370037978
:102D6000537007230FE00C2B08D103785B0603D5C3
:102D7000C3781370037953700D2304E043BB0378C9
:102D80005E0625D40323447814F0C0041CD00578D3
:102D90006D0605D4C65C5D1C1670455D023355702A
:102DA000802C13D1C25C034402204A705B780B7004
:102DB00070BD034401F1080213F8010B02F8010D84
:102DC0008A42F9D10820F3E72046F1E7C02CF0D081
:102DD0006FF01500ECE700BFA057000808B501B17F
:102DE0001AB918490320FDF7ABFF437803F00C0331
:102DF000082B09D1C37813700379537043794B7052
:102E0000837902200B7008BD0C2B0ED1C378137090
:102E100010F8043F537001F1080310F8012F03F874
:102E2000012D8B42F9D10820EDE73BB9037813F06F
:102E3000400F14BF6FF015000020E4E76FF015009D
:102E4000E1E700BFA057000807B504210DEB010022
:102E500001F050F9019800F03FF803B05DF804FB71
:102E6000F7B501AB054604461F464618B442A4EB2D
:102E7000050201D103B0F0BD920703D100F032F892
:102E80003B4601901A78013304F8012BEEE700006D
:102E9000884270B5064603D30E490320FDF750FF64
:102EA0000D1A284601F0A8F86B1E2B42C0B209D1BA
:102EB00001248440013C00F015F820408542FAD9F5
:102EC000304470BD1E2801D80130F1E74FF0FF34C7
:102ED000F1E700BFA05700080146014800F084B99F
:102EE000E42B0020134970B5D1E901460A6884EA51
:102EF0000603C86822F000425A4082EA420280EA91
:102F0000500050400D6940F300031D4075404D6076
:102F10004D6982EA80222B4053400C608B6004EBA9
:102F200013238C69C860584043F300032340584082
:102F300070BD00BFE42B002010B51C24084B0B21F2
:102F400004FB0034E068FEF748F860680B21FEF7E8
:102F500044F8A0680421BDE81040FEF70AB800BF9D
:102F6000185C000810B5044618B10C490320FDF7A1
:102F7000E7FE0B4B1860FFF7DFFF20464FF4804160
:102F8000FEF73CFA074B20461C604FF48041DC61A1
:102F90005C60BDE81040FEF74BBA00BFA0570008C8
:102FA000002C00200038004010B50C46A8B94B1C7E
:102FB00016D021F0FF0313F5807F02D111F0FF0F2F
:102FC0000ED114F5807F0BD003212046FDF7D1FFF1
:102FD0002046FEF724F8002010BD4FF0FF30FBE73D
:102FE0006FF00100F8E700002DE9F84305461C26C4
:102FF00018486E4398460F46DFF86090012100EBB9
:1030000085001446FEF724FD0120FEF7CDF809EBFC
:1030100006031D7E59692846FEF7F0F90E4A05EBB6
:103020008505154415F8082059F8061044EAC2042D
:1030300044F0040417F5807F0C6015BF0B684B68E3
:1030400043F4407343F0040314BF0B604B60002053
:10305000BDE8F883002C0020345C0008185C0008F0
:103060001C2343430C4A10B50446D018D358002201
:103070001A605A68416922F004025A60007EFEF725
:10308000D7F90120FEF7A8F8044800EB8400BDE85A
:103090001040FEF70DBD00BF185C0008002C00209A
:1030A0002DE9F8438846DDE9086791461D4623B9B6
:1030B0001EB932490320FDF743FE1C235843304B11
:1030C00018F5807F1C58236843F04003236005D027
:1030D000B8F1FF3F02D04046FDF7AAFF66BB2F4480
:1030E000BD4220D1A3689807FCD5A3681906FCD47B
:1030F000A368DA071ED4A3689A07FCD5A3681B0649
:10310000FCD4B9F1000F37D1B8F1FF3F34D02368B8
:1031100018F5807F23F0400323602DD04046BDE8A2
:10312000F843FDF77CBFA3689E07FCD515F8013B6B
:103130002373D5E7E368DBE7E5B930463744B842A7
:10314000D9D0A3689B07FCD52573A368DE07FCD5FF
:10315000237B00F8013BF2E7A2689007FCD5EA5C0C
:103160002273A268D107FCD5227BF25401339F421F
:10317000F2D1C0E70023FAE7BDE8F883A0570008C2
:10318000185C0008036830B5D0E90115C26881EA0F
:10319000050423F00043634083EA430382EA5202BA
:1031A0005A4042F3000483EA82230160C26001694D
:1031B000426921401440694063404160836030BDF2
:1031C000036833F000430DD143685BB983684BB9A2
:1031D000C3683BB9492354224E21C0E90023592337
:1031E000C0E902137047000038B5012503690446A1
:1031F00043604369016083608369C3600E486B1E4E
:1032000003F0030354F8233005F0030183EA9373BA
:1032100000FB035354F8212001355340082D44F896
:103220002130ECD12046FFF7CBFF2046FFF7AAFF65
:10323000013DFAD138BD00BF6589076CFEF738BC87
:1032400038B504460020FEF75BF90546A4B200201D
:10325000FEF756F9401B80B2A042F8D338BD0000FB
:1032600030B587B004460D46FDF719FA48B11DB1D7
:103270000E490320FDF764FD2046FFF7E1FF07B08C
:1032800030BD0B4B0090CDE902000121684604934C
:10329000CDF814D0FEF7DCFB214601A82A46FDF745
:1032A000F9FC01216846FEF7D3FBE8E7A0570008C8
:1032B0003D320008064B10B51822044640F8203B6A
:1032C00001F0D1F8002384F83A300823A38710BD19
:1032D000545C000813B5044600F070F9204600F075
:1032E00017FF94F83A301BB90321204600F041FE45
:1032F0000821684600F0FEFE9DF80030019A23F098
:10330000010343F002038DF80030009B12BA1BBA90
:10331000204600F0E6FCBDF80010204649BA89B20C
:1033200000F0D0FC20461A2100F00FFD20460021BD
:1033300000F030FD20460122802100F0A9FD20464A
:103340000122102100F0A4FD0123174A1621204676
:1033500000F09EFF802220460C2100F0A0F80421FE
:10336000204600F0AEF8042100F0FD02204600F0F7
:1033700096F80321204600F0A4F8032100F0F002A3
:10338000204600F08CF8082220460E2100F087F835
:103390000F21204600F095F81621204684F83C10B5
:1033A00000F0E7FD02B010BD3E5C000810B590F8DB
:1033B0003D301921013380F83D30044600F0D9FD3D
:1033C0000223192818BF84F83C0084F83B3010BD54
:1033D00070B51D46144690F83B306E1C134480F8BF
:1033E0003B3013460A46F1B200F07DF8601970BD1B
:1033F00010B5012300F13B020021044600F073F8F0
:1034000002222046114600F04AF863683BB1228F41
:10341000D20704D52046BDE810400321184710BD4F
:10342000F8B50821044600F0A4FD15210746204602
:1034300000F047F860F07F02D2B215210646204620
:1034400000F02DF80621204600F093FD08212046CB
:1034500000F037F860F07F02D2B20821204600F079
:103460001EF80121204600F02CF803060546F8D589
:1034700032462046152100F012F80821204600F0BF
:1034800078FD3946204600F074FDC5F38010F8BD84
:1034900090F82430816A0022006AFFF7A5BD70B55C
:1034A00004460D461646FFF7F3FF334645F0C002CB
:1034B000A16A206A00F07BFF206ABDE87040FFF738
:1034C000CFBD38B504460D46FFF7E2FF45F0800258
:1034D0000023A16A206A00F06AFF0546206AFFF710
:1034E000BFFD284638BDF7B504460F4615461E46B3
:1034F000FFF7CEFFA16A40230122206A00F046FFB9
:103500003B46A16A0122206A00F040FF0022206AA7
:10351000019600922B46A16AFFF7C2FD206A03B014
:10352000BDE8F040FFF79CBD10B50446FFF7B0FFC3
:10353000A16A206A2023BDE81040012200F026BFC6
:1035400007B5CDE900120023816A0122006AFFF766
:10355000A7FD03B05DF804FB10B50446816A0123A2
:103560000022006A00F012FF206ABDE81040FFF759
:1035700077BD08B590F83A300F2B04D00121FFF742
:10358000A0FF00F01F03184608BD10B50446FFF762
:10359000F0FF0F2811D1206BFDF74AFD00214FF4F9
:1035A0009970FFF75DFE01212046FFF78AFF00F0CA
:1035B0001F00082884F83A00F5D110BD10B5044664
:1035C000406BFDF735FD00213E20FFF749FE606BA3
:1035D000FDF725FD00213E20FFF742FE0121204698
:1035E000FFF76FFF00F01F0310F0170F84F83A3059
:1035F000F4D110BD38B50821044600F0BAFC08210A
:1036000005462046FFF75DFFE37E00F0E00203F091
:103610001F0320461A430821FFF741FF2946204691
:10362000BDE8384000F0A5BC43680BB10021184745
:10363000704700002DE9F0470446884616461F46AD
:10364000FFF797FF8146002C00F0EE800F2840F036
:10365000F080B8F1190F5ED02046FFF796FFB8F161
:10366000290F23D8DFE808F037221528222230223C
:1036700022222222222222224F22B3B6A0A622AA4E
:10368000222222B9BCBFC22222C5C8222222222263
:1036900043D7022F03D996490320FDF751FB318808
:1036A000204600F00FFBB9F10F0F5CD1B8F1190FF4
:1036B00059D06FF085054FE0082FECD8D6E90023EC
:1036C000204600F00EFBEEE7022FE4D831882046BA
:1036D00000F045FBE7E7022FDDD13178A1F10B03C4
:1036E0000F2B00F20181204600F02FFBDBE7022FB9
:1036F000D1D13378002B40F0F7800225B9F10F0FBC
:1037000040F0948028E0022FC5D8B6F9001020467A
:1037100000F040FBF1E7012FBDD83378013B052BCA
:10372000C1D801A252F823F0773700087B37000890
:10373000A73600087F370008A13700084137000886
:103740000821204600F015FCB9F10F0F4FF00105DC
:103750006CD1B8F1190F69D00F21204600F009FC97
:1037600015F1860F62D13B46324641462046BDE800
:10377000F04700F08DBD0F21E3E71621E1E7238F2D
:103780005A06E1D594F83D3013B9012384F83D3051
:103790001921204600F0EDFB2046FFF729FED3E774
:1037A0002046FFF797FDCFE780213278204600F0D2
:1037B0006FFB0AE032784FF48071F7E7012F3FF694
:1037C0006AAF3178204600F0FAFA012596E73278A0
:1037D0004021EBE732782021E8E732780421E5E761
:1037E00032780821E2E732780121DFE732780221DE
:1037F000DCE732781021D9E7012F3FF64CAF238F59
:10380000DB0671D53378052B6ED896F9001020466B
:1038100000F0F0FAD9E7012F3FF63DAF96F900101E
:10382000204600F022FBD0E76FF012052846BDE8E5
:10383000F087B8F1290F96D801A353F828F000BFFC
:10384000D73600086737000893360008B9360008F5
:103850006737000867370008C9360008673700086F
:1038600067370008673700086737000867370008C0
:1038700067370008673700086737000867370008B0
:103880000737000867370008CF370008D53700082A
:10389000A9370008B537000867370008BD370008AA
:1038A000673700081737000867370008DB3700085C
:1038B000E1370008E7370008ED37000867370008F0
:1038C00067370008F3370008F93700086737000842
:1038D0006737000867370008673700086737000850
:1038E000EF360008173800086FF0150506E700BF2F
:1038F000A05700082DE9F0410446FFF73AFE0F28D3
:1039000006463ED00F212046FFF7DBFD0221074689
:103910002046FFF7D6FD7B07054603D563680121E6
:103920002046984738072CD5162E01D0112E08D1E5
:10393000238F190725D5022163682046BDE8F04191
:103940001847192E01D0122E1BD194F83D301BB907
:1039500012490320FDF7F4F9013BDBB284F83D3056
:1039600023B994F83C10204600F003FB636843B190
:10397000228F920705D505F0E005202D09D002D849
:103980003DB1BDE8F081602D05D0A02DF9D1062113
:10399000D3E70421D1E70721CFE700BFA0570008F4
:1039A00013B50446816A006AFFF7FEFA0321206B13
:1039B000FDF7DFFA206BFDF73BFB0321606BFDF7A2
:1039C000D8FA606BFDF72BFB094B01220421009410
:1039D000E06AFDF737FB2046FFF77CFC1C21204600
:1039E000FFF76FFD033818BF4FF0FF3002B010BD76
:1039F000293600082DE9F34104460F460921904677
:103A00001E4600F0B6FA2046FFF78EFD01220DF1AA
:103A100003012046FFF794FD9DF8035005F07F0554
:103A2000023D5FB92046FFF797FDB8F1000F11D0B6
:103A300094F83C10204600F09CFA0BE045450DD967
:103A40002046FFF789FD94F83C10204600F091FADB
:103A50006FF06805284602B0BDE8F0812A46394675
:103A60002046FFF76DFD022201A92046FFF768FD01
:103A700076B10122B11C2046FFF762FD2046FFF718
:103A80006BFD07212046FFF71CFD5B383080CFE738
:103A90002046FFF761FDCBE770B506460D460024D2
:103AA000FFF784FC3DB9338F5B0602D43046FFF745
:103AB0009FFC204670BDAA68A31C13447F2B07D827
:103AC000234669683046FFF783FC2D680446E9E722
:103AD0006FF08A00EEE7000008B5FFF74AFD0838EE
:103AE000C0B2112896BF024B0220185C08BD00BF6F
:103AF0003F5C00082DE9F8430F46164698460546F8
:103B0000002800F0AA80A1F11203162B48D8DFE8A4
:103B100003F0242E47474747471C4732363A3F4772
:103B200047434747474747470C00B8F1010F03D8C1
:103B300058490320FDF704F90023737000F00DF9D4
:103B4000022430702046BDE8F883B8F1000FEFD0B2
:103B5000FFF7C2FF30700124F4E7038F13F0400F2A
:103B600002D001243470EDE700233370F3E7038FB4
:103B700013F0200FF4E7038FC3F38003F5E7038FFF
:103B8000C3F3C003F1E790F8383003F00103ECE72A
:103B9000038FC3F34003E8E7038FC3F30013E4E7A5
:103BA0004346324600F0CAFA10F1860F0446C9D1E6
:103BB0002846FFF7DEFC0F28814651D12846FFF743
:103BC000E4FC172F24D00AD8102F15D0142F37D08B
:103BD000012F4FD00F21284600F0CBF9B2E7292F53
:103BE0001FD0312F24D0222FF4D1B8F1000F9FD055
:103BF000284600F0F8F811E0B8F1010F98D92846EE
:103C000000F0BCF802243080B9F10F0F9AD1E1E73F
:103C1000B8F1000F8CD0284600F0CAF830700124AB
:103C2000F2E7B8F1000F83D0284600F014F9F5E769
:103C3000B8F1000F3FF47CAF284600F022F9EDE721
:103C4000B8F1000F3FF474AF2E212846FFF739FC7E
:103C500080F01000C0F30010E0E76FF0120471E78D
:103C6000172FD5D00ED8102FC6D0142FE8D0012F83
:103C70007FF468AFB8F1000F3FF45AAF2846FFF762
:103C8000CFFBCBE7292FCCD0312FD1D0222F7FF4FF
:103C900059AFAAE7A057000838B50D4602210446DF
:103CA000FFF7FDFB162D07D02046FFF762FCA84268
:103CB000FAD184F83A5038BD2046FFF75AFC1F2845
:103CC000FAD0F6E710B504460A0A017442742021BE
:103CD000FFF7E5FB227C2046BDE810402121FFF7DD
:103CE000DEBB2DE9F843064617461D4600246FF05B
:103CF000070900F11208E200C2F12001A2F120033D
:103D000005FA01F127FA02F20A4325FA03F31A43EE
:103D100009FB04F308F8012B03F13802C2F120017A
:103D200005FA01F1183327FA02F20A4325FA03F3E0
:103D30001A4304F12401D2B2C9B230460134FFF76C
:103D4000AEFB082CD7D1BDE8F883A1F10B020F2AF6
:103D500002D8C176FFF74EBC70470020704738B5D7
:103D600005460C46CAB22221FFF799FB220A2846D3
:103D7000BDE838402321FFF792BB000008B50521BC
:103D8000FFF79FFB024B00F00F0033F9100008BD56
:103D9000825C0008113109B21429A8BF1421034B19
:103DA00021EAE1715A5C0521FFF779BB6C5C0008E0
:103DB00008B52C21FFF785FBC0F3071008BD38B507
:103DC0000C462C210546FFF77CFB072C28BF072457
:103DD00000F00F0040EA0412D2B22846BDE8384095
:103DE0002C21FFF75CBB08B52C21FFF76AFBC0F361
:103DF000420008BD38B50C1E054611DB052CA8BFD6
:103E000005242C212846FFF75CFB20F00E0242EA35
:103E100044022846BDE83840D2B22C21FFF73FBB10
:103E20000724EEE738B505460C4699B10A782D21EE
:103E3000FFF735FB2E212846FFF743FB637800F0A0
:103E4000F80203F007031A432846BDE838402E2144
:103E5000FFF725BB38BD08B50921FFF732FB00F09D
:103E60000F0040005B3840B208BD0029C4BF494282
:103E700049B25B31C1F3430242F0C0020921FFF7AE
:103E80000EBB08B50721FFF71CFB5B3840B208BD2D
:103E900038B50446038F15464AB10B4320292387C2
:103EA0002ED007D8042954D0102911D038BD23EAC8
:103EB0000103F3E780293FD0B1F5807FF6D12E21B1
:103EC0002046FFF7FEFA002D50D040F020023EE0E1
:103ED0007DB104F112012046FFF7A4FF0421204622
:103EE000FFF788FF53222F212046BDE83840FFF717
:103EF000D6BA2046BDE838404FF0FF31FFF77ABF11
:103F00002E212046FFF7DDFA85B140F01002D2B233
:103F10002E212046FFF7C3FA17212046FFF7D1FADA
:103F20003DB140F00202D2B21721DDE700F0EF020E
:103F3000EEE700F0FD02F7E72E212046FFF7C1FA79
:103F40001DB100F0EF022E21CEE740F01002D2B2F8
:103F5000F9E70E212046FFF7B4FA25B140F004023C
:103F6000D2B20E21C0E700F0FB02FAE700F0DF0258
:103F7000E9E770B504460D462046FFF7FAFAA0F1CE
:103F80001103DBB2012B0646F6D91F28F4D0032D0E
:103F900005D12A4608212046FFF77EFE1BE0A842F5
:103FA00019D0162819D1192D23D1092220461146DE
:103FB000FFF772FE0F2D14D1032208212046FFF7D0
:103FC0006BFE0F212046FFF77CFA206BFDF727F8E8
:103FD0000F2384F83A30304670BD1928EAD1162DE7
:103FE000E2E70F2E02D12046FFF7CFFA2A462946F4
:103FF000D1E70F2DFAD1DFE7B0F5803F2CBF1022BB
:10400000002220FA02F3FF2B8CBF08200020C340BF
:104010000F2B42EA00028CBF04200020C340032B78
:1040200040EA02008CBF022200221043D34040EA43
:104030005300704770B50E4600210446FDF708FD99
:10404000094D50B9E2882B8812B21BB29A4204D0B3
:104050004EB901212046FDF7FBFC01202B88E380AF
:10406000A3880133A38070BD940200200021FFF7D4
:10407000E1BF000008B50C4BC1881B8809B21BB218
:10408000994203D009490320FCF75AFE8388002B8C
:10409000F8D0013B9BB2838023B9C380BDE80840C0
:1040A000FDF706BD08BD00BF94020020A057000820
:1040B0007FB50C46054600B119B90D490320FCF740
:1040C0003FFE0A4601AE232100F0D8F9304600F049
:1040D00057F90023B3FBF4F204FB1232F05CA95C45
:1040E000013341400C2BA954F4D104B070BD00BF82
:1040F000A057000810B50446FFF7DAFF034A13780B
:10410000591C117022785340237010BD24020020E6
:1041100070B50446FEF7E6FE00232246A383237310
:104120002323A07622F80E3F236820465D690621EE
:10413000AC46BDE87040022360470000062938B550
:1041400005460C46104643D009D803292CD034D854
:10415000002941D002291AD06FF0850336E01629D4
:1041600040D008D8082953D01129F5D1012B10D9F6
:104170006623138016E01A2940D0272944D0182935
:10418000EAD1012B05D195F90C2002701EE0012B1C
:1041900003D83E490320FCF7D3FD0A4605F1100180
:1041A00000F061F9022311E0072BF2D9082205F192
:1041B000120100F058F9082308E0022BE9D1AA8B7C
:1041C000520702D50822028000E00380184638BD5D
:1041D000022BDED1EA89F6E7022BDAD1EB7E1380DF
:1041E0000123F3E7012BD4D1AB8B13F0200F02D0C6
:1041F00001230370EAE700230370F1E7012BC8D124
:10420000AB8B13F0020FF2E7022BC2D10322DAE7E5
:10421000072BBED9AB8B00225B074BBF2346022383
:1042200005F1120105F11001042B4270027018D043
:10423000082B03D0022BBED1134619E00A7882F076
:10424000020202704A7842708A788270CA78C2701C
:104250000A7902714A7942718A798271CA79C27186
:10426000B4E70B7883F0020303704B7843700223AA
:10427000FF240022C470FE24827004714271CA5C63
:10428000194482714B78C37195E700BFA0570008AD
:1042900070B515461C461A296CD8DFE801F00E6B84
:1042A0001A2A3A3A4D6B6B6B6B6B6B6B6B6B6B6B70
:1042B0006B6B6B6B526B656B5C00022C03D02F49F0
:1042C0000320FCF73DFD1388FF2BF8D8C37620466A
:1042D00070BD022CF3D800F11006022200213046F6
:1042E00000F0CCF822462946304600F0BCF8022403
:1042F000EDE7082CE3D800F1120608220021304631
:1043000000F0BCF822462946304600F0ACF80824FC
:10431000DDE7022CD3D11388022B04D0082B07D061
:104320006FF06904D3E7838B23F004038383CEE724
:10433000838B43F00403F9E7022CC0D11388C381B7
:10434000C5E71278838B1AB143F020038383CEE74D
:1043500023F02003FAE71278838B12B143F00203B3
:10436000F4E723F00203F1E7012CA8D192F9003021
:104370000373ACE76FF08504A9E700BFA0570008FE
:104380000C22014900F06FB8E8F7FF1F10B586B0A6
:1043900006AC04F8093D012301930DF117030093C6
:1043A0002346FEF77DFE9DF8170006B010BDF0B560
:1043B00085B01F4604AB03F8012D002401220546F9
:1043C0000E46CDE90042FEF76BFE3B4622463146E3
:1043D0002846FFF7DBFF05B0F0BD0000074B10B526
:1043E0001C6824B1A36913B9204600F0ABFA6168D8
:1043F0002046BDE8104000F04BBB00BF2802002063
:1044000070B500250C4E0D4CA41BA410A54209D17B
:10441000FBF790FE00250A4E0A4CA41BA410A542EF
:1044200005D170BD56F8253098470135EEE756F8AE
:10443000253098470135F2E73C5D00083C5D0008F7
:104440003C5D00083C5D000830B50024A24201D16B
:10445000002007E0035D01340D1915F8015CAB4243
:10446000F4D0581B30BD10B5431E0A44914200D110
:1044700010BD11F8014B03F8014FF7E70346024462
:10448000934200D1704703F8011BF9E70FB40A4BC0
:1044900013B51C6824B1A36913B9204600F052FA81
:1044A00005AB049AA1682046019300F04FFC02B0CE
:1044B000BDE8104004B070472802002038B5084B12
:1044C00005461C6824B1A36913B9204600F03AFAE6
:1044D000A26829462046BDE8384000F0D5BE00BF9E
:1044E0002802002070B50E46054618B183690BB945
:1044F00000F028FAAB69AC6813B9284600F022FA3C
:10450000234B9C4217D16C68A3891B071DD52369D7
:10451000DBB1013EA36816F8011F013BA360E9B9B6
:10452000002B2EDA22460A21284600F049F80130F5
:1045300011D00A2011E0174B9C4201D1AC68E3E78F
:10454000154B9C4208BFEC68DEE72146284600F088
:1045500089F80028DDD04FF0FF3070BD002B04DA61
:10456000A2699A4206DC0A2904D023685A1C2260F8
:104570001970CFE72246284600F022F80130C9D151
:10458000E9E70A2023685A1C22601870E5E700BF9B
:10459000C85C0008E85C0008A85C0008024B014603
:1045A0001868FFF79FBF00BF2802002010F8012BFA
:1045B00011F8013B012A28BF9A42F7D0D01A704760
:1045C000F8B50E461446054618B183690BB900F0DC
:1045D000B9F9214B9C422AD16C68A369A360A389D5
:1045E0001A072ED5236963B323692068F6B2C01A6F
:1045F00063693746834204DC2146284600F026F9E9
:1046000028BBA3680130013BA36023685A1C2260C9
:104610001E706369834204D0A389DB0719D50A2E73
:1046200017D12146284600F011F990B10FE00B4B4D
:104630009C4201D1AC68D0E7094B9C4208BFEC68B2
:10464000CBE72146284600F00DF80028CCD04FF0EB
:10465000FF373846F8BD00BFC85C0008E85C0008BA
:10466000A85C0008324B70B51D6806460C4625B1A3
:10467000AB6913B9284600F065F92E4B9C420FD167
:104680006C68B4F90C309AB215072CD4D00611D44A
:104690000922326043F04003A3814FF0FF303EE037
:1046A000254B9C4201D1AC68EBE7244B9C4208BFF0
:1046B000EC68E6E7510712D5616B41B104F14403A0
:1046C000994202D0304600F073FA00236363A38955
:1046D00023F02403A3810023636023692360A3895B
:1046E00043F00803A38123694BB9A38903F4207322
:1046F000B3F5007F03D02146304600F019FAA289B5
:1047000012F001030CD00023A36063695B42A36134
:10471000236953B9B4F90C3013F08000BAD170BDDD
:10472000920758BF6369A360F2E70020F7E700BF74
:1047300028020020C85C0008E85C0008A85C0008AB
:104740008A892DE9F041054610070C4658D44B687C
:10475000002B05DC0B6C002B02DC0020BDE8F08197
:10476000E66A002EF9D0002312F480522F68216AE5
:104770002B6032D0606DA3895A0705D56368C01AD3
:10478000636B0BB1236CC01A00230246E66A216AF0
:104790002846B047431CA38906D129681D2948D85B
:1047A000294ACA40D60744D5002262602269D9044A
:1047B000226004D5421C01D12B6803B96065616B8E
:1047C0002F600029C9D004F14403994202D0284641
:1047D00000F0EEF900206063C0E701232846B047EF
:1047E000411CC8D12B68002BC5D01D2B01D0162B26
:1047F00001D12F60B1E7A38943F04003A381ADE766
:104800000F69002FA9D0930718BF00230E6808BFB7
:104810004B69A6EB07080F608B60B8F1000F9CDDB9
:1048200043463A46216A2846A66AB047002806DC75
:10483000A38943F04003A3814FF0FF308EE7074484
:10484000A8EB0008E9E700BF0100402038B50B697C
:1048500005460C46DBB118B183690BB900F072F85C
:104860000C4B9C4209D16C68B4F90C307BB12146E9
:104870002846BDE83840FFF763BF074B9C4201D193
:10488000AC68F1E7054B9C4208BFEC68ECE7002000
:1048900038BD00BFC85C0008E85C0008A85C0008E0
:1048A000014620B9044B0549186800F0D3B8044B01
:1048B0001868FFF7CBBF00BFA45C00084D48000894
:1048C00028020020002310B50446C0E900338360AD
:1048D00081814366C281C0E904338361194608229D
:1048E0005C30FFF7CBFD054B24626362044BA3628F
:1048F000044BE362044B236310BD00BF4D5300081B
:104900006F530008A7530008CB530008014900F07B
:10491000A1B800BF4D48000870B568254A1E554330
:104920000E4605F1740100F08FF9044640B10021F4
:10493000C0E900160C30A06005F16802FFF79EFD8B
:10494000204670BD836910B5044633BBC0E91233FD
:104950000365124B124A1B688262984204BF01230E
:10496000836100F01FF86060204600F01BF8A06033
:10497000204600F017F80022E06004216068FFF78D
:10498000A1FF01220921A068FFF79CFF022212214A
:10499000E068FFF797FF0123A36110BDA45C000846
:1049A0000D490008F8B51B4B07461E68B36913B9DB
:1049B0003046FFF7C7FF4836D6E90134013B03D53F
:1049C000336833B13668F7E7B4F90C506DB1683429
:1049D000F4E704213846FFF79FFF30600028F1D14B
:1049E0000C2304463B602046F8BD0B4B6566C4E9CA
:1049F0000055A560C4E90335C4E9055508222946D8
:104A000004F15C00FFF73AFDC4E90D55C4E9125505
:104A1000E9E700BFA45C00080100FFFF2DE9F041B9
:104A20008846002600F1480414B93046BDE8F081FC
:104A3000D4E90175013F01D52468F5E7AB89012B65
:104A400006D9B5F90E30013302D02846C0470643D7
:104A50006835EFE72DE9F84380468946002600F1E6
:104A6000480414B93046BDE8F883D4E90175013F24
:104A700001D52468F5E7AB89012B07D9B5F90E30CC
:104A8000013303D029464046C84706436835EEE760
:104A900038B50C46054618B183690BB9FFF752FFCC
:104AA0000E4B9C420BD16C686368013B002B63602A
:104AB0000FDA21462846BDE8384000F01BBC084B01
:104AC0009C4201D1AC68EFE7064B9C4208BFEC6802
:104AD000EAE723685A1C2260187838BDC85C0008D1
:104AE000E85C0008A85C000870B50E46B1F90E102D
:104AF00096B0002914461D4607DA00232B60B389BF
:104B00001A0610D44FF480630EE06A46FBF746FBAA
:104B10000028F2DB019A02F47042A2F500535A42D7
:104B20005A412A60EEE740230020236016B070BD92
:104B30008B8973B59D0706460C4607D504F14703DC
:104B4000236023610123636102B070BD01AB6A463B
:104B5000FFF7CAFF00990546304600F075F848B9DE
:104B6000B4F90C309A05EFD423F0030343F00203A9
:104B7000A381E3E70D4BB362A389206043F0800378
:104B8000A381009B20616361019B5BB1B4F90E10AE
:104B90003046FBF708FB28B1A38923F0030343F059
:104BA0000103A381A3891D43A581CDE70D49000819
:104BB00038B50546002943D051F8043C0C1F002BA2
:104BC000B8BFE41800F013FC1E4A1368104633B94E
:104BD000636014602846BDE8384000F009BCA34279
:104BE0000BD921686218934201BF1A685B6852189A
:104BF000226063600460EDE713465A680AB1A2427E
:104C0000FAD919685818A0420BD1206801445818E5
:104C100082421960DED110685268014419605A60FE
:104C2000D8E702D90C232B60D4E7206821188A42E8
:104C300001BF116852680918216062605C60C9E7B1
:104C400038BD00BF042C002070B5CD1C25F0030535
:104C500008350C2D38BF0C25002D064601DBA94276
:104C600003D90C233360002070BD00F0C0FB214A43
:104C70001468214691B9204C23681BB93046FBF7D4
:104C80005DFA206029463046FBF758FA431C24D1D0
:104C90000C233046336000F0ABFBE4E70B685B1B92
:104CA00018D40B2B0FD90B60CC18CD50304600F028
:104CB0009FFB04F10B00231D20F00700C31AD3D083
:104CC0005A42E250D0E74B688C4216BF63601360D3
:104CD0000C46EBE70C464968CCE7C41C24F00304FF
:104CE000A04205D0211A3046FBF728FA0130CFD078
:104CF0002560DBE7042C0020082C0020936810B40A
:104D0000013B002B936007DA9469A34201DB0A2977
:104D100002D110BCFFF754BC1368581C1060197006
:104D2000084610BC7047F8B506460F461446D5181D
:104D3000AC4201D1002007E03A4614F8011B30468E
:104D4000FFF7DCFF431CF3D1F8BD00002DE9F04F65
:104D50000C469DB017461D46064618B183690BB92F
:104D6000FFF7F0FD7C4B9C4258D17468A38918076B
:104D70005ED52369002B5BD00023099320238DF897
:104D8000293030234FF0010B8DF82A300395B846B7
:104D9000454615F8013B0BB1252B54D1B8EB070A5A
:104DA0000BD053463A4621463046FFF7BCFF013050
:104DB00000F0C280099B5344099398F80030002BFF
:104DC00000F0BA8000234FF0FF32CDE905230493B1
:104DD00007938DF853301A93A846052218F8011B43
:104DE0005E4800F0F6FA049B78BBD90644BF202247
:104DF0008DF853201A0744BF2B228DF853202A78B0
:104E00002A2A2AD0A84600200A25079A414611F8E6
:104E1000013B303B092B69D960B324E0504B9C42E5
:104E200001D1B468A2E74F4B9C4208BFF4689DE7EC
:104E300021463046FFF716FC00289DD04FF0FF308A
:104E40001DB0BDE8F08FA846A2E7444A4546801A47
:104E50000BFA00F018430490BEE7039A111D126884
:104E60000391002A01DB079204E0524243F002035F
:104E70000792049398F800302E2B0ED198F8013049
:104E80002A2B38D1039B08F102081A1D1B680392D4
:104E9000002BB8BF4FF0FF330593334D032298F832
:104EA0000010284600F095FA40B14023401B03FA59
:104EB00000F0049B08F101080343049398F80010E4
:104EC00006222A4808F101078DF8281000F081FA1F
:104ED000002837D0264B1BBB039B073323F0070367
:104EE00008330393099B4B44099350E705FB0232B7
:104EF000012088468AE700230A25194608F101089F
:104F00000593404610F8012B303A092A03D9002BAB
:104F1000C3D00591C1E705FB012101238046F0E7DD
:104F200003AB00932246134B04A93046AFF3008035
:104F3000B0F1FF3F8146D5D1A3895B063FF57EAF37
:104F400009987DE703AB009322460A4B04A930463B
:104F500000F088F8ECE700BFC85C0008085D0008B6
:104F6000E85C0008A85C00080E5D0008125D0008FF
:104F700000000000274D00082DE9F04791461F462C
:104F80008A680B6906469342B8BF1346C9F80030D9
:104F900091F843200C46DDF8208012B10133C9F8A6
:104FA00000302368990642BFD9F800300233C9F8AF
:104FB0000030256815F0060507D104F1190AE368E9
:104FC000D9F800209B1AAB4229DC94F843302268C0
:104FD000003318BF012392062ED404F14302394650
:104FE0003046C047013021D02368E56803F006034E
:104FF000042B18BF0025D9F800204FF0000908BF86
:10500000AD1AA368226908BF25EAE5759342C4BFBB
:105010009B1AED181A344D451AD1002008E00123DF
:10502000524639463046C047013003D14FF0FF3079
:10503000BDE8F0870135C2E73020E11881F8430070
:105040005A1C94F845102244023382F84310C4E7F6
:105050000123224639463046C0470130E6D009F1E7
:105060000109D8E72DE9F04301F1430C0C46097E14
:1050700085B06E291746064698460C9A00F0B38014
:1050800022D8632936D00AD8002900F0B9805829DF
:1050900000F0838004F1420584F8421032E0642974
:1050A00001D06929F6D120681368050603F10401CF
:1050B0002AD51B681160002B03DA2D225B4284F88D
:1050C00043206F480A2239E0732900F09D8008D8F8
:1050D0006F2920D07029DDD1236843F0200323609D
:1050E00003E0752917D07829D4D17823654884F84E
:1050F000453055E0136804F14205191D1B68116025
:1051000084F8423001238CE01B6810F0400F1160DE
:1051100018BF1BB2CFE713682568181D106028065A
:1051200001D51B6802E06806FBD51B886F2914BFF8
:105130000A2208225248002184F843106568002D95
:10514000A560C0F29580216821F004012160002B48
:105150003DD1002D40F08E806546082A0BD1236892
:10516000DB0708D5236962689A42DEBF302305F861
:10517000013C05F1FF35ACEB05032361CDF8008060
:105180003B4603AA21463046FFF7F6FE01304DD1DB
:105190004FF0FF3005B0BDE8F083394884F8451082
:1051A000136821681D1D1B6815600A060BD5CA0708
:1051B00044BF41F0200121601BB9226822F0200287
:1051C00022601022B7E74D0648BF9BB2EFE7654665
:1051D000B3FBF2F102FB1133C35C05F8013D0B4652
:1051E0000029F5D1B9E713682568181D61691060B9
:1051F00028061B6801D5196002E06A06FBD51980F4
:10520000002365462361B9E71368191D11601D6805
:1052100062680021284600F0DCF808B1401B60609D
:1052200063682361002384F84330A7E723692A4693
:1052300039463046C0470130AAD023689B0713D4B3
:10524000E068039B9842B8BF1846A3E701234A468B
:1052500039463046C04701309AD00135E368039A99
:105260009B1AAB42F2DCEBE7002504F11909F5E7E4
:10527000002BACD1037804F1420584F842306CE78E
:10528000195D00082A5D000870B50D4614460646F3
:1052900018B183690BB9FFF755FB134B9C4212D130
:1052A0007468A368013B002BA36016DAA2699342DD
:1052B00002DBEBB20A2B10D1224629463046BDE86C
:1052C0007040FFF77DB9094B9C4201D1B468E8E713
:1052D000074B9C4208BFF468E3E72368E8B25A1C16
:1052E00022601D7070BD00BFC85C0008E85C00084B
:1052F000A85C000838B50C46054618B183690BB99F
:10530000FFF720FB0E4B9C420DD16C6821462846CE
:1053100000F078F888B96368013B636023685A1C21
:105320002260187838BD074B9C4201D1AC68EDE78C
:10533000054B9C4208BFEC68E8E74FF0FF30F1E70F
:10534000C85C0008E85C0008A85C000810B50C46C2
:10535000B1F90E10FAF710FF0028ABBF636DA389F7
:105360001B1823F48053ACBF6365A38110BD2DE9E6
:10537000F0411F468B890546DB050C46164605D5D0
:1053800002230022B1F90E10FAF703FFA389324677
:1053900023F48053A381B4F90E103B462846BDE8A0
:1053A000F041FAF7EDBE10B50C46B1F90E10FAF760
:1053B000F0FE431CA38915BF606523F4805343F4BA
:1053C0008053A38118BFA38110BDB1F90E10FAF765
:1053D000DBBE10B5C9B202449042034601D100239E
:1053E00003E01C7801308C42F6D1184610BD70479E
:1053F0007047838903F00903092B01D1FFF750BAE5
:1054000000207047F8B50C46054618B183690BB902
:10541000FFF798FA3C4B9C420AD16C680023B4F920
:105420000C20636093B29E060CD54FF0FF3068E00D
:10543000364B9C4201D1AC68F0E7354B9C4208BF2B
:10544000EC68EBE758074AD4D90605D4092342F0A3
:1054500040022B60A281E8E71A070BD521462846B7
:10546000FFF7F4F90028E0D1A389A06023F0080336
:10547000A381A061A38943F00403A38123691BB91D
:1054800021462846FFF754FBB4F90C70BEB2B307AF
:105490000FD00123A3811F4B1F49186806F009068E
:1054A000FFF7BCFA092EA78103D121462846FFF752
:1054B00047F92269666A22606369216A2846B04713
:1054C000002860601EDC18BF0022B4F90C3016BF43
:1054D000626043F0200343F04003A381A5E7616BC2
:1054E0000029CBD004F14403994202D02846FFF7AB
:1054F0005FFB0020236C60636360002BBED0E36B16
:105500002360F8BD0020FCE7C85C0008E85C0008E8
:10551000A85C0008A45C0008F3530008425553201F
:105520004641554C542048414E444C455200444558
:10553000425547204D4F4E2048414E444C45520065
:1055400044554D4D592048414E444C4552000A495E
:10555000535220737461636B206F766572666C6F53
:1055600077656400537461636B20706F696E746556
:105570007220636F727275707465642C207265732B
:10558000657420746F20746F70206F66207374616F
:10559000636B000A436F6E74657874206265666F92
:1055A000726520686172646661756C743A002020CF
:1055B0002072303A2030782530386C780A2020204C
:1055C00072313A2030782530386C780A20202072E9
:1055D000323A2030782530386C780A202020723317
:1055E0003A2030782530386C780A00202072313229
:1055F0003A2030782530386C780A2020206C723AB6
:105600002030782530386C780A20202070633A20CA
:1056100030782530386C780A20207073723A203048
:10562000782530386C780A0A004653522F4641528A
:105630003A0020434653523A2030782530386C786F
:105640000A0020484653523A2030782530386C788A
:105650000A0020444653523A2030782530386C787E
:105660000A0020414653523A2030782530386C7871
:105670000A0020424641523A2030782530386C7872
:105680000A004D4D4641523A2030782530386C782A
:105690000A004D697363004558435F5245543A20F0
:1056A00030782530386C780A00417474656D7074F8
:1056B000696E6720746F207265636F6E73747275A4
:1056C000637420737461746520666F722064656210
:1056D000756767696E672E2E2E00496E204744421B
:1056E0003A0A2020736574202470633D3078256C5D
:1056F000780A20206672616D6520300A202062746D
:105700000A000A49535220737461636B206F7665F7
:1057100072666C6F776564206279206174206C65B5
:105720006173742025642062797465732E0A0048C1
:10573000415244204641554C542048414E444C452A
:1057400052004D454D204D414E4147452048414E68
:10575000444C4552004E4D492048414E444C455220
:10576000005553414745204641554C542048414E31
:10577000444C455200000000003801400040000049
:105780000A080140090801400125000000440040CA
:10579000000002000308014002080140002600004A
:1057A0004641494C454420415353455254494F4E7C
:1057B0002E0025700A002A2A2A2052494F54206BB5
:1057C00065726E656C2070616E69633A0A25730AB2
:1057D0000A002A2A2A2068616C7465642E0A0A006D
:1057E0006D61696E28293A205468697320697320B5
:1057F00052494F5421202856657273696F6E3A20C2
:10580000323031382E31302D5243312D3532302D5A
:10581000676437633832290A0069646C65006D611A
:10582000696E005F517374617465006E616D65002F
:1058300009706964207C20252D3231737C20252D50
:10584000397351207C20707269207C2073746163ED
:105850006B202028207573656429207C2062617389
:1058600065206164647220207C2063757272656EAD
:105870007420202020200A000920202D207C20696F
:1058800073725F737461636B2020202020202020BE
:10589000202020207C202D20202020202020202D92
:1058A000207C2020202D207C2025366920282535AD
:1058B0006929207C2025313070207C2025313070F2
:1058C0000A000925336869207C20252D3230732099
:1058D0007C20252D387320252E3173207C20253304
:1058E00069207C20253669202825356929207C20DF
:1058F00025313070207C2025313070200A007C005A
:1059000053554D000925357320252D3231737C25E3
:1059100031337325367320253669202825356929CA
:105920000A000000545900085C5900086559000835
:105930006E590008745900087C5900088559000800
:105940008E59000897590008000000009F59000870
:10595000A759000873746F7070656400736C656597
:1059600070696E6700626C206D7574657800626C9A
:1059700020727800626C2073656E6400626C207225
:1059800065706C7900626C20616E79666C00626C87
:1059900020616C6C666C00626C206D626F780072C6
:1059A000756E6E696E670070656E64696E67000281
:1059B0000100000000000040FFFF000001000000A7
:1059C000001C000000040040FFFF00000200000077
:1059D000001D00007363616E20696E7465726661FC
:1059E0006365732E2E2E004552524F52206C6F610C
:1059F00064696E672069666163650053656C656301
:105A00007465642025640A0073657420616464729F
:105A10006573732E2E2E007365742073726320617C
:105A2000646472206C656E2E2E2E00696E74657231
:105A300066616365206C6F61646564207375636380
:105A400065737366756C6C792100454E54455245FB
:105A50004421006572726F72206C6F6164696E67B9
:105A600020696E746572666163650A0069666163C8
:105A7000653A2025640A00416464723A00737461D7
:105A80007274696E672072656365697665720A0073
:105A90007374617274696E672072616E646F6D20D9
:105AA00067656E657261746F720A006572726F72FB
:105AB0003A20696E76616C696420696E74657266FD
:105AC00061636520676976656E0062636173740067
:105AD0006572726F723A20696E76616C69642061DA
