:020000040800F2
:10000000000200209504000831040008ED030008F8
:1000100041040008510400086104000800000000C9
:10002000000000000000000000000000D1030008F4
:100030007104000800000000B503000881040008F6
:1000400031010008310100083101000831010008C8
:1000500031010008310100082111000821110008B8
:1000600021110008211100082111000831010008A8
:100070003101000831010008310100083101000898
:100080003101000831010008310100083101000888
:100090003101000831010008310100082111000878
:1000A0003101000831010008310100083101000868
:1000B000A5150008AB150008310100083101000842
:1000C0003101000831010008310100083101000848
:1000D000310100085D0800086308000831010008CC
:1000E0002111000831010008310100083101000828
:1000F0003101000831010008310100083101000818
:100100003101000831010008310100083101000807
:1001100031010008310100083101000831010008F7
:1001200031010008310100083101000831010008E7
:1001300000F0A6B900F0B8BA7047000070B50C46E0
:10014000064600F0A1FA094B094A1D682C44944266
:1001500002D8084A944207D20C234FF0FF3533608F
:1001600000F09AFA284670BD1C60F9E700020020F2
:1001700000000120142800201946104600F0A0BA03
:100180001946104600F0A4BA132303604FF0FF3065
:100190007047132303604FF0FF3070471323036051
:1001A0004FF0FF3070470023022903608CBF00200E
:1001B00001207047134910B50C68002094FAA4F18F
:1001C0008442B1FA81F108BF4FF0FF310E4C0F4B62
:1001D00054F8211018600E4B09681A68A1F1080440
:1001E00094420ED022B110790A2804BF0B2010715E
:1001F0000A22012001F8042C31F9021C054A1C6076
:10020000118010BD90020020A40200209C0200205A
:100210009802002094020020092930B503791AD9E8
:10022000092B14D842791A4B00F1080453F82250D4
:100230007DB12D68856053F822502C6043F8224030
:100240000123144A4479A3401468234313600171C5
:1002500030BD8460F2E7092BF9D945790C4B53F88E
:1002600025203AB11468A2420BBF0022246843F84B
:1002700025201460427953F82230002BE7D1012366
:10028000044C03FA02F2236823EA02032360DEE748
:10029000A40200209002002008B5094B1B681A79BF
:1002A000092A02D95B79834205D900F0F8F918B11F
:1002B0000122044B1A6008BDBDE8084000F072B886
:1002C000980200209C020020002408B500F0DCF910
:1002D000084B094A1B88094D1BB242F82340084AC3
:1002E000214613682868013B1360FFF795FF2C60D7
:1002F00000F054F894020020E4020020980200204C
:10030000A002002013444FF0773223F0030310B50E
:100310001C1F43F8042C620742BF4FF08832A3F140
:10032000080443F8082C4FF0807344E902030D4B96
:10033000002244F80C3C0323022044E90532012347
:10034000224644E907300B2342F8201D42F8043DC1
:10035000013B032BFAD120466FF0020340F8443DE5
:1003600010BD00BFC90200080548064A064B0168D7
:10037000914201D1984201D3181A70470430F6E730
:1003800000000020FEE7FEE700020020EFF30880F7
:1003900070470000004870470000002000F078F926
:1003A00001DFFEE7024A536843F080535360704711
:1003B00000ED00E0EFF3098020E9F00F40F804EDD4
:1003C00002490968086000F003F800009802002064
:1003D000FFF7F0FE04480068016801C9B1E8F00FBA
:1003E00081F3098800470000980200200D4B0E4A57
:1003F0000E496846904203D8984201D9002102E094
:1004000009468D46012104207246024202D1EFF3D3
:10041000088001E0EFF309802DE9F00F6B4600F052
:100420006FF800BF580100200000012000020020EA
:1004300008B50249042000F083FC00BFFD59000804
:1004400008B50249062000F07BFC00BFEA5900080D
:1004500008B50249072000F073FC00BFC45700082C
:1004600008B50249082000F06BFC00BF095A0008DB
:1004700008B50249092000F063FC00BFD657000808
:1004800008B502490A2000F05BFC00BFE8570008ED
:100490007047704708B5FFF7FBFF6A46114B1249DA
:1004A000934213D3114A124B12498B4211D30021AC
:1004B000114B124A934211D3FFF7EBFF00F01AFCE5
:1004C00003F030FFBDE8084000F074BC43F8041BA3
:1004D000E6E752F8040F43F8040BE6E743F8041B81
:1004E000E8E700BF00000020FEE7FEE744610008E7
:1004F000000200209002002090020020142800201A
:100500002DE9F04F9A464A4B93469A6B8FB003926F
:100510005A6B9F6A0492DA6A044605921A6BDB6B87
:1005200006920793434B88461A68434B9A4202D07F
:10053000424803F0DFFFB8F1000F4ED000254048DD
:1005400003F0D8FF2E463F4803F0D4FF39463E481B
:1005500003F048FF05993D4803F044FF06993C48E5
:1005600003F040FF07993B4803F03CFF3A0403D5F2
:100570000399394803F036FF3B0603D50499374801
:1005800003F030FF364803F0B5FF5946354803F015
:1005900029FFB8F1000F1BD1334803F0ABFF314600
:1005A000324803F01FFF6946314BC91A03D549424F
:1005B000304803F017FF20468268C36801698C4603
:1005C00041698E46AD46514691E8F00F416800689A
:1005D00001BE2949052000F0B3FBD4E902300890A0
:1005E0002069D4E906690990606919F4007F0A90CE
:1005F0002248D4E9001208BF04F12005CDE90C23FC
:1006000018BF04F124050B9103F074FF089B0B99AC
:1006100000931B48DDE90C2303F0E4FEDDE9091239
:10062000CDF800903346174803F0DCFE8BE700BF9F
:1006300000ED00E000000020FEE7FEE7F6570008AE
:100640000C580008D1580008DA580008EA58000889
:10065000FA5800080A5900081A5900082A590008CF
:100660003A5900083F5900085159000882590008BA
:1006700058010020AA590008D75900083B58000823
:100680005658000893580008EFF3108072B6704770
:1006900062B6EFF31080704780F310887047EFF375
:1006A0000580C0B270470000024B034A0349002096
:1006B00000F078B804020020390F000820A10700DC
:1006C0000A460146014800F042BC00BF0402002077
:1006D00010B50C460A460146002000F025F82046D9
:1006E00010BD000038B5142343430C4AD458256884
:1006F000AA0608D50A4B616803EBC002C9B253F8D9
:100700003030506898472B0748BF6368054B1B681B
:100710001BB1BDE83840FFF745BE38BD205A000880
:10072000A80300209C020020012810B50AD8142339
:1007300058430A4B0A441B58914207D11A68520683
:10074000FCD510BD0649032000F0FAFA11F8010BA0
:100750001C682406FCD55860EEE700BF205A00084C
:10076000485A0008012810B5044603D90A49032055
:1007700000F0E6FA094B53F8303013B1012000F0D5
:1007800013FD1422064B02FB04346168207CBDE893
:10079000104000F033BE00BF485A0008A8030020F4
:1007A000205A000801282DE9F84304460D46174653
:1007B00003D92649032000F0C3FA4FF01408244E51
:1007C000244A08FB0068D8F80C9042F8307002EB1D
:1007D000C00203215360484600F0CBFB484600F0BE
:1007E0001EFC0B21484600F0F8FB27B10421D8F885
:1007F000080000F0BEFB2046FFF7B4FF14235C4363
:10080000002306EB0408345998F81000E3602361D4
:10081000636100F0D7FDB0FBF5F080B2A0608FB14E
:10082000012198F811305AB203F01F0301FA03F3C3
:100830000949520941F8223042F22C03E3600020BA
:10084000BDE8F88342F20803F8E700BF485A000801
:10085000205A0008A803002000E100E00020FFF774
:1008600041BF0120FFF73EBF10B598B1012821D04C
:100870000024164A136923F004031361FFF704FFF1
:10088000BFF34F8F30BFFFF707FFECB1BDE810405B
:1008900000F02EBD0E4B1A6842F00E021A605A6824
:1008A00042F480725A60094A0124136943F0040338
:1008B0001361E3E7064B1A6822F003021A601A6814
:1008C00042F001021A60EEE710BD00BF00ED00E04B
:1008D0000070004008B5FFF7D7FEBDE808400020D3
:1008E000FFF7C2BF002000F00BBE000038B5044C7B
:1008F0002568FFF7F7FF2368AB42F9D1184338BDED
:10090000C0030020034B196819B982B2084600F0F1
:10091000D7BD7047B803002010B5094A136843B12A
:100920009C6881688C4207D303D15C6841688C4223
:1009300002D90360106010BD1A461B68EFE700BFC4
:10094000C40300202DE9F047294E3268B24602F573
:100950008032326032681AB9264B1A6801321A6046
:100960000020254B254C1A681860236884461946D8
:10097000234FDFF880E0DFF88C803A6021B1DEF8A9
:1009800000508E68AE4217D900B12160BCF1000F53
:1009900010D00021CCF800103AB3C3B151685868A8
:1009A00081428CBF19461146084612681B6882B9FD
:1009B00003603960BDE8F0874D68DAF8009005EA19
:1009C00008054D45E0D18C4601200968D6E711465F
:1009D000EAE70BB90260ECE754685D68AC428CBF93
:1009E0001C46144604602046DFE73B60E2E700BF98
:1009F000C0030020BC030020C8030020C403002063
:100A0000CC0300200000FFFF01232DE9F041324F0D
:100A1000324C3B602368CBB9FFF794FF4FF6FF756C
:100A2000FFF760FFA842FBD000254FF000082368C5
:100A300083B9FFF757FF1430854228D9FFF782FFAB
:100A4000FFF750FF8542FBD30025F0E7FFF74AFF91
:100A50000546EAE75E68FFF745FF854205D8B3B271
:100A6000834202D91B1A132BE3D823685E68FFF771
:100A700039FF854202D8B6B28642F6D823681A6892
:100A8000C3E901882260D3E903209047CFE72368B8
:100A90006BB15E68FFF72AFF063E14308642C6D36C
:100AA000002330463B60BDE8F041FFF72BBFFFF766
:100AB00019FF8542064602D9FFF744FFC4E700F15B
:100AC00014039BB2984204D9FFF70CFF8642FBD96E
:100AD000F2E74FF6FF76E3E7B8030020CC030020EF
:100AE000144A1368834210D11B6813601BB1586805
:100AF0000638FFF707BF4FF6FF70FAE7984219680C
:100B000001D1116070471A460B46002BF6D10A4AF4
:100B100013681BB9094A136833B9704798421968BA
:100B2000EFD01A460B46F4E798421968E9D01A4606
:100B30000B46F1E7CC030020C8030020C4030020CB
:100B400008B50023054A1846054900F0EBFCBDE84E
:100B500008404FF0FF30FFF7D5BE00BF090A00087C
:100B600040420F00F8B504460D46FFF7BFFE0023D4
:100B700023602B1A1E2B07460DD8ADB2FFF7B2FE2D
:100B80008542FBD3FFF7AEFE8542FBD8D4E90330A4
:100B900098470020F8BDFFF777FD636806460BB95C
:100BA000A36813B12046FFF79BFF1D4BA81F1A68CF
:100BB000874288BF0132A2601B68A26865609A42C2
:100BC00005D8184B1A68030C1B049A4206D020461D
:100BD000FFF7A2FE3046FFF75FFDDAE7BFB2B8428B
:100BE0000ED9114B19461A6812B15768BD4213D27B
:100BF00022601C600B689C42ECD1FFF783FEE9E7A2
:100C00000A4A136813B159688D4202D223601460F6
:100C1000E0E71A461B68F5E713461268E4E700BFF1
:100C2000BC030020C0030020CC030020C803002028
:100C300038B50446FFF728FD636805460BB9A3687D
:100C400013B12046FFF74CFF2846BDE83840FFF7B8
:100C500023BDC36870B504460D46CBB1FFF7E8FF6E
:100C60001D2D0DD8FFF73EFE0646FFF73BFE801B0D
:100C700080B28542F9D8D4E90330BDE87040184706
:100C8000FFF734FE29182046BDE87040FFF76ABF21
:100C900070BD00002DE9F04704460E4615461AB90E
:100CA000BDE8F047FFF7D5BFFFF7EEFC63680746E6
:100CB0000BB9A36813B12046FFF712FFDFF830A08D
:100CC000FFF714FEDAF800808146FFF70FFE81453A
:100CD000F6D83618454428BF013520466660A56021
:100CE000FFF71AFE3846BDE8F047FFF7D5BC00BF56
:100CF000BC03002070B50E4E0E4D00F055FB0E4C9F
:100D00000321304600F035F90321284600F031F97F
:100D10000321204600F02DF9304600F080F92846E6
:100D200000F07DF92046BDE8704000F078B900BFC2
:100D300002140140050C01400A10014070470000F8
:100D400008B50F4B0C461A689AB9012203281A609D
:100D500003D171460B4803F045FB21460A4803F0D6
:100D600041FB00F051FA094803F03CFB084803F04E
:100D700039FBFFF789FCFFF7E1FFFFF7ABFD00BF91
:100D8000D00300205A5A00085E5A0008865A00080C
:100D90007A5A000808B500F073FE034803F022FBFE
:100DA00000F038FC002008BD885A000808B500F0A3
:100DB000DFF9FCE71FB50024FFF766FC0D4B0F229F
:100DC0001B684FF4807102930B4B019400930B4806
:100DD0000C2300F03BF80A4B07221B684FF4C0615C
:100DE000CDE90143074B084800930C2300F02EF88F
:100DF000FFF7D4FA18020020AD0D0008D40300203C
:100E00001C020020950D0008D404002038B50B7991
:100E1000092B03D908490320FFF792FF4C7901F110
:100E20000802036813B98B60026038BD13F8035CD5
:100E3000AC42F8D31846F4E7485A0008031F53F8A9
:100E4000042F9A42FBD0181A704700000F2A2DE990
:100E5000F74F05468B4691469A4633D810F0030368
:100E60000FBF0B46C3F10403ED18CB1A303B23F040
:100E700003031AF0080F05EB030419D12D6003E0FA
:100E800012600432A242FBD30193FFF7FDFB012263
:100E900080462749019B51F8226017B2AEB101325A
:100EA000212AF8D14046FFF7F7FB6FF08A073BE0B5
:100EB0002A46E7E701212046FFF7AEF94046FFF753
:100EC000EBFB31E06FF015072EE041F822402A4697
:100ED000DDE90C01E780FFF715FA0E9B154AA362C6
:100EE0004FF0FF33C4E9073613681AF0010F03F11E
:100EF000010320606562C4F82CB084F80590267167
:100F0000C4E90266C4E90466A6611360D2D10B216C
:100F10002046FFF781F91AF0040FCFD14046FFF7C2
:100F2000BBFB4846FFF7B8F9384603B0BDE8F08F81
:100F3000E4020020A002002038B5054600F054FB72
:100F4000044605F1100000F0EFFD204638BDF8B56D
:100F500004460D46164600F1100732462946204643
:100F600000F02FFB00B1F8BD0121384600F0ACFDC8
:100F7000F3E7FF29F8B504460E4620F00F0500F010
:100F80000F0727D00421C0F38323023B994001209F
:100F900000F034FA0F21FB1004F0070455F8232069
:100FA000A400A14022EA010245F8232055F82310AD
:100FB00006F00F0202FA04F40C4345F82340012323
:100FC0000020EA68BB40182E0CBF134322EA03033B
:100FD000EB60F8BD4FF0FF30FBE738B50D4604215C
:100FE000C0F383230446023B9940012000F006FA37
:100FF0000F2024F00F03C4F3C00204F0070453F8D9
:101000002210A400A04021EA000143F8221053F866
:10101000221005FA04F40C4343F8224038BD0123A2
:1010200020F00F0200F00F0003FA00F0106170478B
:10103000012320F00F0200F00F0003FA00F05061CE
:10104000704700002DE9F84F4FF0010900F00F053F
:1010500009FA05FA6FEA0A089B462E4C17462268E1
:10106000064602EA08022260FFF783FF2A4A0A9B2B
:1010700042F835B002EBC50253604946484600F0DD
:10108000BDF90F2005F00C0303F1804303F5803315
:1010900006F0030299689200904021EA00019960ED
:1010A000C6F383269968023E96400E439E60A3686D
:1010B000042D08EA0303A360A26807EA090303FA00
:1010C00005F343EA0203A360E36827FA09F708EA95
:1010D0000303E360E26807FA05F747EA0207E760FF
:1010E0000E4B0EDC063509FA05F51D60636800201D
:1010F00008EA0303636023684AEA03032360BDE848
:10110000F88F092DD5BF4FF400024FF480721A609A
:101110005A60EBE700040140D40A002000E100E03F
:101120002DE9F04100244FF001080E4D0E4F6E697D
:101130002A68164008FA04F3334206D06B6107EBC5
:10114000C40357F83420586890470134102CF1D16B
:10115000064B1B681BB1BDE8F041FFF723B9BDE8A2
:10116000F08100BF00040140D40A00209C0200204E
:10117000F8B50C4D2E6816F47F4F11D1F4B200343F
:1011800018BF0124FFF780FA2B6807469E4202D160
:101190002046FFF769FB3846BDE8F840FFF77CBA08
:1011A0000224EFE72002002038B5094D04462B5CED
:1011B000FF2B03D107490320FFF7C2FDFFF764FAB5
:1011C0002B5D0133DBB22B55BDE83840FFF764BA25
:1011D00020020020485A000838B5094D04462B5C0F
:1011E0001BB908490320FFF7ABFDFFF74DFA2B5D54
:1011F000013BDBB22B55BDE83840FFF74DBA00BFCD
:1012000020020020485A00082DE9F04F2D4B8BB0EA
:101210001B882D4A2D492E48ADF8243003F0E2F802
:10122000FFF7A2F80546FFF7B5F80446FFF7AEF85A
:101230002A46009023464FF40071264803F0D2F866
:1012400001264FF40077DFF89C90DFF89CA0DFF8D0
:101250009CB025EAE57559F826401CB394F8048043
:10126000E26A5AF82830606A079317440692FFF73B
:10127000E5FD069AB4F90610101A22680544059295
:10128000626A079BCDE90302E26A584602926279DC
:10129000019209AAB8F1090FC8BF01320092A26AEF
:1012A00003F0A0F80136212ED5D10B4BCDE9017505
:1012B00000930A4A19460A4803F094F80BB0BDE8B7
:1012C000F08F00BFCB5A0008CD5A0008D35A00084F
:1012D000D85A0008205B0008A65B0008A85B00083D
:1012E000AC5B0008E4020020CC5B00086A5B0008ED
:1012F00038B5FFF7C9F900231D4D0446AB6000F077
:101300003BF84FF480636B602B465A6812F00C0F69
:10131000FBD11221174A116081221A601A6842F427
:1013200080321A601A689103FCD55A6822F47C1244
:101330005A605A6842F4E8125A605A6842F400321D
:101340005A601A6842F080721A601A689201FCD5DD
:101350005A6842F002025A605A6802F00C02082AE7
:10136000FAD100F015F82046BDE83840FFF794B9EF
:101370000010024000200240044B1A6842F00102B3
:101380001A601A689207FCD5704700BF001002402F
:10139000044B5A6812F00C0F1EBF1A6822F00102AB
:1013A0001A6070470010024008B500F0B9FD4FF018
:1013B0008051002000F022F8FFF79AFFBDE80840B6
:1013C00000F025B9034A044B00280CBF104618460C
:1013D000704700BF0051250200A24A04044A054B91
:1013E000002818BF1346044A105C5843704700BFDA
:1013F00000A24A0400512502575C000801280AD0C7
:1014000004D302280CD0BFF34F8F7047074AD3692B
:101410001943D161F7E7054A936919439161F2E7EE
:10142000024A536919435161EDE700BF00100240C1
:10143000012809D002D302280CD07047084AD3698A
:1014400023EA0101D1617047054A936923EA01014A
:1014500091617047024A536923EA01015161704763
:10146000001002402DE9F84307460024114A030109
:10147000D558DFF848802E69EB6808EBC0091E409C
:101480000223A340334209D0EA68214622EA03033B
:10149000EB60D9F8040058F8373098470134042C31
:1014A000EED1054B1B681BB1BDE8F843FEF77ABFD0
:1014B000BDE8F8835C5C00089C020020540B00200F
:1014C000032910B516DC0D4B00011C181858636871
:1014D0001A4001F10C0300EB83035A6002230269F6
:1014E00003FA01F122EA01020261C3681943C160F3
:1014F000002010BD4FF0FF30FBE700BF5C5C000830
:10150000024B00011B58586A704700BF5C5C000822
:10151000034B00011A58136843F00103136070472E
:101520005C5C000801282DE9F84305460F4630D8D9
:10153000194E040106EB0408184998F80C9041F87C
:10154000302001EBC0014B604846D8F80810FFF787
:1015500055FF36590024D8F804303460484674608A
:10156000F362FFF73BFFB0FBF7F0012398F80D2083
:10157000013851B202F01F02B06273619340084A11
:101580004909284642F82130FFF7C2FF2046BDE84E
:10159000F8834FF0FF30FAE75C5C0008540B002042
:1015A00000E100E00020FFF75DBF0120FFF75ABF18
:1015B00082680168531C83604368013B1340C85C28
:1015C0007047F8B505460F46164614461CB1AA6882
:1015D000EB689A4201D1301BF8BD2846FFF7E8FFBF
:1015E000013C07F8010BF1E7C26830B58468436835
:1015F000121B9A4208D0C2680468551CC5600020BE
:10160000013B1340E15430BD4FF0FF30FBE70020B9
:1016100001F058BC2DE9F041FE20A0B002F0FAFE26
:10162000434802F0DFFE434802F0DCFEDFF8388179
:10163000414F4146384602F08FFF002402F060FE21
:101640003B5D9842F9D10134E4B2052CF6D1FE207D
:1016500002F0E0FE394802F0C5FE364802F0C2FE54
:1016600002F04EFE364BC0B2012818700BD0022893
:101670001DD0FF2002F0CEFE324802F0B3FE2D480E
:1016800002F0B0FED5E7FE2002F0C4FE2E4802F0C4
:10169000A9FE284802F0A6FE02F032FE2B4C207074
:1016A00002F02EFE6070204600F0F4F8C1E7FE2044
:1016B00002F0B0FE264802F095FE1E4802F092FEAF
:1016C00002F01EFE214C0025207002F019FE607011
:1016D00002F016FEC6B2EBB29E421DD822786378A5
:1016E000FF2A1FD1FF2B1DD11A491B4802F00AFF08
:1016F000FE2002F08FFE194802F074FE0D4802F041
:1017000071FE31466846164A00F030F832466946A6
:10171000114800F071F98CE702F0F2FD0DF80500B8
:101720000135D8E70F490C4802F0ECFEE0E700BFB6
:101730007C5C0008865A00086A0B0020945C000854
:10174000670B0020FC5C0008AF5C0008680B002001
:10175000C75C0008DF5C0008640B0020E55C000843
:1017600018610008885E00088E5C00082DE9F843C7
:10177000054616460446DFF82C80DFF82C90471803
:10178000BC4201D1BDE8F883A54204D01EB1314668
:10179000404602F027FE14F8011B484602F022FEE4
:1017A000EEE700BF965F00088D5E00082DE9FF415F
:1017B000314C0746B4F900000E4668BBFE2002F02B
:1017C00029FE2E4D2E4802F00DFE2E4802F00AFE94
:1017D000A846286800F0FCFC286078B10223B0F924
:1017E000200000220093272103AB208000F0F0FBB3
:1017F0000028EEDBBDF80C30032BEAD1D8F800301E
:101800006BB9FF2002F006FE1F4802F0EBFD1D48F9
:1018100002F0E8FD4FF0FF3004B0BDE8F081FE209B
:1018200002F0F8FDB4F90010184802F0DBFD15488D
:1018300002F0D8FDB4F9000000963B4600220221D8
:1018400000F0ECFBB042E5D1022204AB23F8026DBC
:10185000B4F9000000920521002200F0DFFB02280D
:10186000D8D1FE2002F0D6FD094802F0BBFD0548A4
:1018700002F0B8FD0020CFE7700B0020740B0020B1
:10188000C15D0008865A0008E75D0008185E000880
:10189000375E000810B50446FE2002F0BBFD6278FA
:1018A0002178144802F09EFD134802F09BFD0221AE
:1018B0002046FFF77BFF00280BDAFF2002F0AAFD8D
:1018C0000E4802F08FFD0C4802F08CFD4FF0FF3007
:1018D00010BDF02002F09EFD094963782278B1F92D
:1018E0000010084802F07EFD034802F07BFD002056
:1018F000EEE700BF695E0008865A0008925E0008A5
:10190000700B0020B25E000808B500F07DFC0030CE
:1019100018BF012008BD00002DE9F74307460D461A
:1019200090469946FFF7F0FF60B9FF2002F072FD84
:101930002B4802F057FD2B4802F054FD012003B064
:10194000BDE8F0836946284600F06AFCC4B24CB991
:101950002549284602F0F6FD90B1FF2002F05AFD1D
:101960002248E6E7002600234A464146184601F091
:101970002BF8054630B9FF2002F04CFD1C48D8E793
:101980008026F0E7002123466A46084600F096FDCF
:10199000044668B9FF2002F03DFD154802F022FD23
:1019A000104802F01FFD2146284601F0F1F8C5E776
:1019B0004368056001461E71384600F0FCFA0028B5
:1019C0000BDCFF2002F026FD0A4802F00BFD054863
:1019D00002F008FD00212046E7E70020AFE700BF46
:1019E0003D5D0008865A0008DF5C0008625D000863
:1019F000855D0008A55D0008F8B51B4C05462088EC
:101A00000E4601381F2817460CD9FF2002F002FDB0
:101A1000164802F0E7FC164802F0E4FC4FF0FF34F1
:101A20002046F8BDFE2002F0F5FC124802F0DAFC78
:101A30000F4802F0D7FCB4F90000FBB23246294649
:101A4000FFF76AFF044620B1FF2002F0E3FC0A48DA
:101A5000DFE7F02002F0DEFC084802F0C3FC044897
:101A600002F0C0FCDCE700BF700B0020D25E000873
:101A7000865A0008155F0008345F00086A5F000896
:101A800008B501F0CDF9FFF75BF800F081FFBDE884
:101A9000084000F001B8000013B5074C0749204684
:101AA00001F07CFB0094064B02224FF48061054854
:101AB00000F04AFE02B010BD780F00209C5F0008C5
:101AC000B45F0008780B002070B504460D46FEF7A1
:101AD000DBFD236806463BB94FF0FF332360FEF77A
:101AE000DBFD0125284670BDC5B10E4B02211D68E6
:101AF0002846FEF791FB236801330AD105F108035C
:101B000023600023AB603046FEF7C6FDFEF74AFCBB
:101B1000E7E729462046FFF779F9F4E7FEF7BCFD31
:101B2000E0E700BF9802002070B50446FEF7ACFD68
:101B3000256806461DB9BDE87040FEF7ADBD6B1CBB
:101B400002D100232360F6E7284650F808390B211C
:101B50002360FEF761FB236813B94FF0FF33236066
:101B600015F8034C3046FEF797FD2046BDE870405F
:101B7000FEF792BBF8B505460E46FEF785FD354BE0
:101B8000354A1B8807461BB252F823301A6A002ACE
:101B90004DD0D3E90541A14249D0611C5961D969B1
:101BA0000C4046B9196931B9611C04D13846FEF7B9
:101BB00073FD2046F8BD002C3DDB02EBC40103C9D8
:101BC00085E803001E69002E37D03168002C1961AA
:101BD0000CDBD3E906505969691A8842B1BF4FF04E
:101BE000FF35691C0540996102EBC505736893E8F0
:101BF000030085E8030016F8043C052B15D00023EC
:101C00000B217360A6F10800FEF706FB16F8034CE3
:101C10003846FEF741FD0E2C1AD82046FEF73CFB55
:101C200016E03846FEF738FD12E00F24F0E74FF0DB
:101C3000FF34002EB6D0DD60C4E7002CF1DA184680
:101C40000321FEF7E9FA3846FEF726FDFEF7AAFB68
:101C50000124AEE794020020E402002010B5D0E990
:101C6000063244691C1BA24201DA002010BD5C1C34
:101C700013408461F9D4026A03C902EBC30383E809
:101C800003000120F2E700002DE9F8431E46264B31
:101C9000074653F82150254B91461B8803803DB9D8
:101CA0003046FEF7F9FC4FF0FF342046BDE8F883DC
:101CB0002B79032B2ED01E4B01462846D3F80080EB
:101CC000FFF7CCFF044650B13046FEF7E5FC98F82C
:101CD0000430052B01D1FEF765FB0124E5E7B9F1DE
:101CE000000F03D13046FEF7D7FCDEE798F804304A
:101CF0004046052B0CBF05210421C8F80C70FEF7E7
:101D00008BFA414605F11000FFF780F83046FEF7E8
:101D1000C3FCE0E7EB6803C883E803000B21284617
:101D2000FEF77AFAF2E700BFE402002094020020F6
:101D30009802002038B50446FEF7A6FC074B214662
:101D40001B8805462380064B1868FFF787FF04466B
:101D50002846FEF7A1FC204638BD00BF94020020B3
:101D60009802002008B50F4B53F82130B3B121225F
:101D700002801A79032A0BD103C8DA6882E80300CB
:101D800018460B21FEF748FA0120074B186008BDE2
:101D900001461846BDE80840FFF760BF4FF0FF302E
:101DA000F5E700BFE40200209C02002070B5044665
:101DB0000D46FEF774FC28B129462046BDE8704068
:101DC000FFF7D0BF094B1B881BB2AB4204D12046A2
:101DD000BDE87040FFF7AEBFFEF756FC294603464C
:101DE00001222046BDE87040FFF74EBF940200205C
:101DF00070B504460D46FEF752FC064628B129464A
:101E00002046BDE87040FFF7ADBF0A4B1B881BB2F0
:101E1000AB4204D12046BDE87040FFF78BBFFEF710
:101E200033FC3246034629462046BDE87040FFF7A2
:101E30002BBF00BF940200202DE9F041124F06464F
:101E40003B880C461BB29342154603D10F49032031
:101E5000FEF776FFFEF718FC80463A880C4B12B26C
:101E600053F8227005213846FEF7D6F996E80300AC
:101E7000FC60434684E80300012229462046BDE871
:101E8000F041FFF701BF00BF94020020485A00084C
:101E9000E402002070B504460D46FEF7F5FBB4F9E8
:101EA0000020114B064653F822401CB90F4903206D
:101EB000FEF746FF2379052B04D0FEF7EDFB4FF02C
:101EC000FF3070BDE36895E8030083E803000B2151
:101ED0002046FEF7A1F964793046FEF7DDFB204687
:101EE000FEF7DAF90120ECE7E4020020485A000886
:101EF0000121FFF73FBE000008B5074B4A1E1B68D3
:101F00001140186203D005490320FEF719FFC3E909
:101F10000511DA6108BD00BF98020020485A000888
:101F20000C4B0D4A10B59A60102200210B4C83F81F
:101F30002220DA77601801313C2980F80023F9D19A
:101F40001A6942F010021A615A6942F400725A6129
:101F500010BD00BF00ED00E00000000800E100E05F
:101F60002DE9F3410446884617461E4600F00BFC57
:101F7000054648B14146204600F000FC691E044673
:101F8000304600F0F3FD1CB9284602B0BDE8F081F0
:101F9000B4F908106846ADF802700196FFF728FF03
:101FA000002803DC0021304600F0F2FD204600F05E
:101FB000F8FB0446E7E740F2022307B5019101462A
:101FC0006846ADF80230FFF713FF03B05DF804FB7D
:101FD00000B589B006930A9B8DF81410ADF81C303B
:101FE0004FF40173ADF81620ADF80630024605AB8C
:101FF00003A901A80293FFF71FFF40F20523BDF8D4
:102000000E209A4203D004490320FEF799FE04985B
:1020100009B05DF804FB00BF485A000800B589B05C
:1020200006930A9B8DF81410ADF81C3040F2032380
:10203000ADF81620ADF80630024605AB03A901A89D
:102040000293FFF7F9FE40F20523BDF80E209A42F5
:1020500003D004490320FEF773FE049809B05DF82D
:1020600004FB00BF485A0008036810B45C69034AC7
:10207000A44601231C2110BC604700BF0760000874
:1020800073B5837F0446033B012B456826D82B6834
:102090000DF106021E69052102232846B0470228D9
:1020A00003D012490320FEF74BFEBDF80630082B83
:1020B0000CBF0321022123772B6804F114021E694F
:1020C00028460823B04710F1860F09D0236900285D
:1020D00043F00103236107DC02B070BD0221EBE78E
:1020E000237F002BF8D0DCE72077F5E7485A00087B
:1020F000A0F130020346D0B2092802D811460846A2
:102100007047A3F14102052A02D8A3F13701F6E78F
:10211000A3F16102052A98BFA3F15701EFE7000080
:1021200013B5806891B941F23423ADF800100190E5
:10213000B0F920106846ADF80230FFF737FE0028EE
:1021400002DC0E4802F0D6F902B010BD0229FBD124
:1021500003689B68984704460028F5D00346084961
:1021600040F2012290F91000FFF7FAFE0146002824
:10217000EAD1204600F00CFDE6E700BFBE5F000894
:102180000000FFFFF0B585B00A9E0E4CD4E9005761
:10219000B74213D025B9C4E902550B9D25601FB184
:1021A00009490320FEF7CCFDCDE90143074B6660EA
:1021B00000930823FEF74AFE0028F1DD014805B030
:1021C000F0BD00BFB80F0020485A0008DD2200080B
:1021D00008B50A4B58B1984203D209490320FEF7CB
:1021E000AFFD2430074B984203D3002008BD1846AA
:1021F000F8E70268002AF9D12430F4E7B80F00208C
:10220000485A0008DC0F002010B504460020FFF7F4
:10221000DFFF18B1B0F92030A342F8D110BD0000A3
:102220002DE9F84F80460F4619B924490320FEF7DF
:1022300087FD18B900252846BDE8F88F0378002BE4
:10224000F8D003461E4675780133002DFAD13C467E
:102250004FF001094FF0FF313078FFF749FFB0F13F
:10226000000B06F1FF3A15DAB9F1000FE2D14FF099
:102270000109C2450CD2B9F1000FDBD1013CA742E4
:10228000D9D223783A7804F8012907F8013BF6E718
:102290005646DFE7D0450FD8002116F8010CA6F10D
:1022A000020AFFF725FF4BEA001B84F800B0013556
:1022B00001344FF00009DCE70020F4E7485A000839
:1022C00020B1036813B1083001F026BE704720B179
:1022D000036813B1083001F023BE70472DE9F041C7
:1022E00040F205230026044694B0CDE90066ADF81F
:1022F0000230FFF7E5FF394B08211B8804A823842F
:102300006568FFF7F9FD364B2846C5E901342B68AF
:102310009B689847011E55DB2846FFF7A5FE6068BD
:1023200002AA036827211E690223B047022803D0AE
:102330002C490320FEF704FDBDF808302046A377A2
:10234000FFF79EFE4023637723681B680BB120468E
:1023500098472046FFF7BBFF40F2032641F234279F
:1023600040F2022802A8FFF7C3FDBDF80A30B342CD
:102370001AD0B3F5017F09D243450FD023685B69BA
:10238000002BEFD002A920469847EBE717D0BB42BD
:10239000F4D12B682846DB689847E3E72368039964
:1023A0005B6820469847DDE723681B690399204650
:1023B00098476946019002A8FFF76CFDD2E72368B1
:1023C000DB68F3E7084802F00DF830462660268403
:1023D0006660C5E9016614B0BDE8F0819402002092
:1023E00021210008485A0008E35F000870B50C4638
:1023F0000546FFF765FF2178238907290ED1012BB8
:1024000003D00A490320FEF79BFC62681C46697FE3
:1024100011702846FFF75BFF204670BD68680268B0
:1024200016696268B0470446F3E700BF485A0008DF
:1024300070B50E460546FFF743FF3178338907290B
:102440000DD01A29686815D0026854697268A047CF
:10245000041E1EDC2846FFF73AFF204670BD012B04
:1024600003D015490320FEF76BFC726812786A7777
:102470000124EFE7726829691478012C0CBF41F43C
:10248000803121F48031296101684C691A21A0470B
:10249000EEE73378022BDDD3052B09D9192BD9D1DF
:1024A00073681B78052BD5D16868FFF7DDFDD1E790
:1024B0002846FFF7E5FDCDE7485A00082DE9F04131
:1024C000174603F108020A440E46002180461C46C6
:1024D00008464FF0FF3300F077FA0546E0B10023DD
:1024E00040680670447043808380C380B8F1000F59
:1024F00005D026B132464146083001F046FF5FB1B3
:1025000054B168684378A34206D103782246083361
:102510003946184401F039FF2846BDE8F081000033
:10252000F0B5456891B02B7FEA8903F02803ADF838
:1025300018200E4621B96FF01504204611B0F0BDE9
:1025400091F9102001323CD149680F79FA060A78D6
:1025500054BF43F0010443F0110417F0C00F03BF50
:1025600002F108035B1891F801C04FF0020C18BF8C
:10257000154B12B30831A87E471CAF76CDE9034056
:10258000BDF818000AAFADF80800ADF80400CDF8AA
:1025900000C0384600F00AFB0028CCD03368099010
:1025A000CDE907372B6807A91B6828469847002103
:1025B0000446304600F0ECFABFE7027F00F1140158
:1025C000D9E76FF04C04B8E7206000082DE9F0432C
:1025D000456887B02B6807465C68002328461A4682
:1025E0001946A0470228064640F3A1800023024670
:1025F0001946184600F0E8F92B68044648B95F68A8
:102600000146034632462846B847204607B0BDE893
:10261000F083D3F80480416801AB32462846C047B6
:10262000B0F1000805DC0021204600F0B1FA0024DA
:10263000EBE73F6917F480371FD000231A4619468D
:102640001846FFF73BFF05460028ECD043689DF88D
:1026500006205A71BDF80420DA803A4A12885A805E
:102660000023036023461A682AB91D6041462046AC
:1026700000F02AFAC9E71346F5E7606800F028FB86
:102680000028D0D00146A8EB00083A46204600F0CA
:10269000B5F906460028C6D047686A4604A93846F8
:1026A00000F088FB81466A4602A9384600F032FBFA
:1026B000B9F1000FB7DB0028B5DBC1B25FFA89F3CF
:1026C00004AA02A8FFF7FAFE07460028ABD0B9F12A
:1026D000020F43680BD19DF81020FF2A07D19DF807
:1026E0001120FF2A03D11A7962F07F021A719DF836
:1026F000062018215A71BDF804202846DA80114AB4
:1027000012885A802B6804F11002D3F8109001232C
:10271000C8473146204600F04AF800233B60234674
:1027200000E013461A68002AFBD11F609EE70028CC
:102730007FF77DAF2B6802465C6800232846194668
:10274000A04774E79402002013B5044C0194049C44
:102750000094FFF717FD02B010BD00BF086000082D
:1027600040B901B17047044B186800B9704743681D
:102770009342FBD00068F8E7DC0F00200A460146D0
:102780000020FFF7EDBF70B5054600200E46044659
:1027900032462946FFF7E4FF08B9204670BD0134F0
:1027A000F6E718B142680021FFF7DABF704710B5AD
:1027B00004468C42084606D124680021016000F0DE
:1027C000E7F9204610BD23461A68002AF5D0824258
:1027D00002D102681A60F0E71346F5E7002170B5F0
:1027E000174A0730136820F0070003B35C6884427F
:1027F00010D3241A072C1844124E0ED9C6F108051E
:102800000544B5F5C05F16D9002111601A68C0E90A
:10281000002405E019461B68E7E71C6849B9146005
:10282000094A801B118880B2814200D2108018466C
:1028300070BD0C60F4E709B91060E7E70860E5E7F0
:10284000E00F0020E80F0020E827002008B502492B
:102850000320FEF775FA00BF485A0008012101481D
:10286000FFF732B9E40F002038B51D4BC31AB3F59A
:10287000C05F1FD200231B4C22680AB182421AD3C8
:10288000073121F007010260174A4518521B072A39
:1028900098BF891841608BB92060036853B14268C2
:1028A00002449A1A072A05D81A6802601A1A5B6845
:1028B0001344436038BD13461268DEE75A68186057
:1028C0001A44821A072AE8D808B9FFF7BFFF02683E
:1028D000C11A1A60426818460A445A60DDE700BF10
:1028E000E80F0020E00F0020E82700202DE9F84342
:1028F000814614200F4616469846FFF76FFF0446A0
:1029000050B166B13046FFF769FF054640B9204631
:102910001421FFF7A9FF2C462046BDE8F883354671
:102920000123C4E90095A66084F81080E360002FBD
:10293000F2D032463946284601F027FDECE7000088
:10294000F8B504460026104D04B9F8BD631BB3F575
:10295000C05F01D3FFF77AFFE3681BB90B4903207F
:10296000FEF7EEF9012B27680AD1D4E90101E660F0
:10297000FFF77AFF14212046FFF776FF3C46E3E796
:10298000013BE360FAE700BFE80F0020485A000867
:1029900008B5FFF763FF094B094A182113600022AD
:1029A00059711A705A709A70DA701A719A71DA71D4
:1029B0000448BDE80840FFF7B7B800BFE80F0020A3
:1029C000E00F0020E40F0020B2F5C05FF8B5054627
:1029D0000E4614461F460DD8FFF740FF22463B46E1
:1029E00031462846FFF782FF04460348FFF79CF86C
:1029F0002046F8BD0024FBE7E40F00202DE9F84352
:102A00000D4604469146FFF729FF2DB124B1A36876
:102A1000AB4201D3636833B92A48FFF785F8002633
:102A20003046BDE8F8831420FFF7D8FE064600289C
:102A3000F2D0A26895423DD0EB1D23F007039D42E2
:102A400038D22846FFF7CAFE074620B9142130467F
:102A5000FFF70AFFE0E7A068401BFFF7BFFE8046D4
:102A600030B914213046FFF7FFFE29463846EFE71C
:102A70002A466168384601F088FCD4E901124046D4
:102A8000521B294401F081FCD4E90101FFF7ECFE5F
:102A9000C4F80480A3680B485B1BA3602368B5607F
:102AA000C6E90037012386F81090F3602660FFF72F
:102AB0003BF8B5E7954208BF0023676818BF7B194C
:102AC0006360E7E7E40F002070B504460D46FFF7AA
:102AD000C5FE1CB922490320FEF732F9D4E90101F1
:102AE00041B90028F6D1A9420CD11E48FFF71CF8C5
:102AF000002019E00028EDD01B4BC31AB3F5C05FCE
:102B0000F1D3E7E72DB9F0B1FFF7AEFE6560A56040
:102B1000EBE7A94217D22846FFF760FE064620B928
:102B20001048FFF701F80C2070BD616829B1A26858
:102B3000AA4228BF2A4601F028FCD4E90101FFF788
:102B400093FE6660E3E7EB1DCA1D23F0070322F046
:102B500007029342DBD2C91A1844FFF785FED6E775
:102B6000485A0008E40F0020E80F002038B504465A
:102B70000D46FFF773FE24B9BDE838400348FEF761
:102B8000D3BFE3682B44E3602468F4E7E40F00203C
:102B900010B50446FFF762FE2046FFF7D1FEBDE800
:102BA00010400148FEF7C0BFE40F0020F8B504460E
:102BB00010259DF824000F461E466570069B9DF863
:102BC000281000F0070C2070154602B11FB1002B31
:102BD0006ED0002E72D100252846F8BDBCF1020F40
:102BE00071D1A170002B67D09DF82020022BE270DC
:102BF0009DF8212022710ED0082B32D0002BEAD173
:102C0000052365B39DF81C105A1CE1549DF81D1056
:102C10000233A1541DE01A462C49304601F0A6FBB0
:102C200018B9237823F020032370637843F0080356
:102C30006370737863713378A37107237DB1BDF836
:102C40001C10BDF820209142DCD1227842F04002D5
:102C50002270022D12D0082D1BD0002DBBD11D4695
:102C6000BAE71C23221D637006F1080313F8011D47
:102C7000B34202F8011FF9D10D23DFE7627862F059
:102C80007F02627079785A1CE15439780233A1547A
:102C9000E5E7627862F03F02627007F108021C44C7
:102CA00012F8011DBA4204F8011BF9D10833D6E726
:102CB000BCF1000F92D1A1700323A2E710F0050F21
:102CC0008FD1A17090E7002D8BD185E7206000089F
:102CD0004278014602F00C03082B11D00C2B11D0C6
:102CE000B3B90078400613D4032012F0C00210D00C
:102CF0000B785B0658BF0230802A05D1023070473E
:102D00000720F2E70D20F0E7C02A01D10830704714
:102D10000020704770B501B11AB925490320FEF7AC
:102D20000FF8437803F00C03082B08D103785C06F6
:102D300003D5C37813700379537007230FE00C2B6E
:102D400008D103785B0603D5C378137003795370F9
:102D50000D2304E043BB03785E0625D403234478A7
:102D600014F0C0041CD005786D0605D4C65C5D1C4B
:102D70001670455D02335570802C13D1C25C03443C
:102D800002204A705B780B7070BD034401F10802A9
:102D900013F8010B02F8010D8A42F9D10820F3E77C
:102DA0002046F1E7C02CF0D06FF01500ECE700BF33
:102DB000485A000808B501B11AB918490320FDF7AF
:102DC000BFFF437803F00C03082B09D1C3781370BD
:102DD0000379537043794B70837902200B7008BDDF
:102DE0000C2B0ED1C378137010F8043F537001F10F
:102DF000080310F8012F03F8012D8B42F9D10820A8
:102E0000EDE73BB9037813F0400F14BF6FF01500E6
:102E10000020E4E76FF01500E1E700BF485A000822
:102E200007B504210DEB010001F0BAF8019800F09C
:102E300003F803B05DF804FB0146014800F084B9D3
:102E4000EC270020134970B5D1E901460A6884EAED
:102E50000603C86822F000425A4082EA420280EA31
:102E6000500050400D6940F300031D4075404D6017
:102E70004D6982EA80222B4053400C608B6004EB4A
:102E800013238C69C860584043F300032340584023
:102E900070BD00BFEC27002010B51C24084B0B218F
:102EA00004FB0034E068FEF798F860680B21FEF739
:102EB00094F8A0680421BDE81040FEF75AB800BF9E
:102EC0002460000810B5044618B10C490320FDF732
:102ED00037FF0B4B1860FFF7DFFF20464FF48041B0
:102EE000FEF78CFA074B20461C604FF48041DC61F2
:102EF0005C60BDE81040FEF79BBA00BF485A00086E
:102F0000082800200038004010B50C46A8B94B1C1A
:102F100016D021F0FF0313F5807F02D111F0FF0FCF
:102F20000ED114F5807F0BD003212046FEF721F847
:102F30002046FEF774F8002010BD4FF0FF30FBE78D
:102F40006FF00100F8E700002DE9F84305461C2664
:102F500018486E4398460F46DFF86090012100EB59
:102F600085001446FEF7B0FD0120FEF71DF909EBC0
:102F700006031D7E59692846FEF740FA0E4A05EB06
:102F80008505154415F8082059F8061044EAC204CE
:102F900044F0040417F5807F0C6015BF0B684B6884
:102FA00043F4407343F0040314BF0B604B600020F4
:102FB000BDE8F8830828002040600008246000086D
:102FC0001C2343430C4A10B50446D018D3580022A2
:102FD0001A605A68416922F004025A60007EFEF7C6
:102FE00027FA0120FEF7F8F8044800EB8400BDE85A
:102FF0001040FEF799BD00BF24600008082800209B
:103000002DE9F8438846DDE9086791461D4623B956
:103010001EB932490320FDF793FE1C235843304B61
:1030200018F5807F1C58236843F04003236005D0C7
:10303000B8F1FF3F02D04046FDF7FAFF66BB2F44D0
:10304000BD4220D1A3689807FCD5A3681906FCD41B
:10305000A368DA071ED4A3689A07FCD5A3681B06E9
:10306000FCD4B9F1000F37D1B8F1FF3F34D0236859
:1030700018F5807F23F0400323602DD04046BDE843
:10308000F843FDF7CCBFA3689E07FCD515F8013BBC
:103090002373D5E7E368DBE7E5B930463744B84248
:1030A000D9D0A3689B07FCD52573A368DE07FCD5A0
:1030B000237B00F8013BF2E7A2689007FCD5EA5CAD
:1030C0002273A268D107FCD5227BF25401339F42C0
:1030D000F2D1C0E70023FAE7BDE8F883485A0008B8
:1030E00024600008036830B5D0E90115C26881EAA0
:1030F000050423F00043634083EA430382EA52025B
:103100005A4042F3000483EA82230160C2600169ED
:10311000426921401440694063404160836030BD92
:10312000036833F000430DD143685BB983684BB942
:10313000C3683BB9492354224E21C0E900235923D7
:10314000C0E902137047000038B501250369044641
:1031500043604369016083608369C3600E486B1EEE
:1031600003F0030354F8233005F0030183EA93735B
:1031700000FB035354F8212001355340082D44F837
:103180002130ECD12046FFF7CBFF2046FFF7AAFF06
:10319000013DFAD138BD00BF6589076C064B10B5FB
:1031A0001822044640F8203B01F0EFF8002384F891
:1031B0003A300823A38710BD6060000813B50446A9
:1031C00000F070F9204600F0F9FE94F83A301BB98F
:1031D0000321204600F041FE0821684600F0E0FE91
:1031E0009DF80030019A23F0010343F002038DF8AB
:1031F0000030009B12BA1BBA204600F0E6FCBDF876
:103200000010204649BA89B200F0D0FC20461A21AD
:1032100000F00FFD2046002100F030FD2046012285
:10322000802100F0A9FD20460122102100F0A4FD1C
:103230000123174A1621204600F080FF80222046F5
:103240000C2100F0A0F80421204600F0AEF8042183
:1032500000F0FD02204600F096F80321204600F021
:10326000A4F8032100F0F002204600F08CF80822B8
:1032700020460E2100F087F80F21204600F095F837
:103280001621204684F83C1000F0E7FD02B010BD86
:103290004A60000810B590F83D301921013380F8DC
:1032A0003D30044600F0D9FD0223192818BF84F8E8
:1032B0003C0084F83B3010BD70B51D46144690F8B4
:1032C0003B306E1C134480F83B3013460A46F1B283
:1032D00000F07DF8601970BD10B5012300F13B02CC
:1032E0000021044600F073F802222046114600F047
:1032F0004AF863683BB1228FD20704D52046BDE867
:1033000010400321184710BDF8B50821044600F00D
:10331000A4FD15210746204600F047F860F07F0223
:10332000D2B215210646204600F02DF8062120468F
:1033300000F093FD0821204600F037F860F07F028E
:10334000D2B20821204600F01EF80121204600F0EC
:103350002CF803060546F8D532462046152100F024
:1033600012F80821204600F078FD3946204600F08A
:1033700074FDC5F38010F8BD90F82430816A0022F6
:10338000006AFFF7E1BD70B504460D461646FFF72B
:10339000F3FF334645F0C002A16A206A00F099FFAE
:1033A000206ABDE87040FFF70BBE38B504460D46F5
:1033B000FFF7E2FF45F080020023A16A206A00F0D7
:1033C00088FF0546206AFFF7FBFD284638BDF7B5A4
:1033D00004460F4615461E46FFF7CEFFA16A40235E
:1033E0000122206A00F064FF3B46A16A0122206AA4
:1033F00000F05EFF0022206A019600922B46A16A2F
:10340000FFF7FEFD206A03B0BDE8F040FFF7D8BD2E
:1034100010B50446FFF7B0FFA16A206A2023BDE87B
:103420001040012200F044BF07B5CDE9001200238F
:10343000816A0122006AFFF7E3FD03B05DF804FB37
:1034400010B50446816A01230022006A00F030FFB3
:10345000206ABDE81040FFF7B3BD08B590F83A30D8
:103460000F2B04D00121FFF7A0FF00F01F03184627
:1034700008BD10B50446FFF7F0FF0F2811D1206BEF
:10348000FDF7D6FD00214FF4997000F0E1FE012117
:103490002046FFF78AFF00F01F00082884F83A0052
:1034A000F5D110BD10B50446406BFDF7C1FD0021FC
:1034B0003E2000F0CDFE606BFDF7B1FD00213E2007
:1034C00000F0C6FE01212046FFF76FFF00F01F034A
:1034D00010F0170F84F83A30F4D110BD38B5082138
:1034E000044600F0BAFC082105462046FFF75DFFC0
:1034F000E37E00F0E00203F01F0320461A43082198
:10350000FFF741FF29462046BDE8384000F0A5BC42
:1035100043680BB100211847704700002DE9F047C0
:103520000446884616461F46FFF797FF8146002C43
:1035300000F0EE800F2840F0F080B8F1190F5ED057
:103540002046FFF796FFB8F1290F23D8DFE808F0EF
:10355000372215282222302222222222222222222F
:103560004F22B3B6A0A622AA222222B9BCBFC222F1
:1035700022C5C8222222222243D7022F03D99649EC
:103580000320FDF7DDFB3188204600F00FFBB9F189
:103590000F0F5CD1B8F1190F59D06FF085054FE0CE
:1035A000082FECD8D6E90023204600F00EFBEEE70A
:1035B000022FE4D83188204600F045FBE7E7022FD0
:1035C000DDD13178A1F10B030F2B00F201812046F0
:1035D00000F02FFBDBE7022FD1D13378002B40F036
:1035E000F7800225B9F10F0F40F0948028E0022FF8
:1035F000C5D8B6F90010204600F040FBF1E7012FD6
:10360000BDD83378013B052BC1D801A252F823F075
:103610005F360008633600088F35000867360008FB
:1036200089360008293600080821204600F015FCDC
:10363000B9F10F0F4FF001056CD1B8F1190F69D036
:103640000F21204600F009FC15F1860F62D13B46A0
:10365000324641462046BDE8F04700F06FBD0F21DD
:10366000E3E71621E1E7238F5A06E1D594F83D30D0
:1036700013B9012384F83D301921204600F0EDFBF9
:103680002046FFF729FED3E72046FFF797FDCFE757
:1036900080213278204600F06FFB0AE032784FF448
:1036A0008071F7E7012F3FF66AAF3178204600F0CE
:1036B000FAFA012596E732784021EBE732782021AB
:1036C000E8E732780421E5E732780821E2E732784A
:1036D0000121DFE732780221DCE732781021D9E7D7
:1036E000012F3FF64CAF238FDB0671D53378052BC6
:1036F0006ED896F90010204600F0F0FAD9E7012FB5
:103700003FF63DAF96F90010204600F022FBD0E7CF
:103710006FF012052846BDE8F087B8F1290F96D85A
:1037200001A353F828F000BFBF3500084F3600084A
:103730007B350008A13500084F3600084F360008D9
:10374000B13500084F3600084F3600084F360008E4
:103750004F3600084F3600084F3600084F36000835
:103760004F3600084F360008EF3500084F36000886
:10377000B7360008BD360008913600089D360008AF
:103780004F360008A53600084F360008FF35000800
:103790004F360008C3360008C9360008CF36000887
:1037A000D53600084F3600084F360008DB360008D3
:1037B000E13600084F3600084F3600084F36000843
:1037C0004F3600084F360008D7350008FF3600088E
:1037D0006FF0150506E700BF485A00082DE9F041D3
:1037E0000446FFF73AFE0F2806463ED00F2120463A
:1037F000FFF7DBFD022107462046FFF7D6FD7B07DA
:10380000054603D5636801212046984738072CD523
:10381000162E01D0112E08D1238F190725D502218C
:1038200063682046BDE8F0411847192E01D0122EDA
:103830001BD194F83D301BB912490320FDF780FAE3
:10384000013BDBB284F83D3023B994F83C102046AC
:1038500000F003FB636843B1228F920705D505F0A2
:10386000E005202D09D002D83DB1BDE8F081602DE2
:1038700005D0A02DF9D10621D3E70421D1E70721F6
:10388000CFE700BF485A000813B50446816A006AB2
:10389000FFF73AFB0321206BFDF76BFB206BFDF775
:1038A000C7FB0321606BFDF764FB606BFDF7B7FBA3
:1038B000094B012204210094E06AFDF7C3FB204676
:1038C000FFF77CFC1C212046FFF76FFD033818BF73
:1038D0004FF0FF3002B010BD113500082DE9F34163
:1038E00004460F46092190461E4600F0B6FA2046CF
:1038F000FFF78EFD01220DF103012046FFF794FD35
:103900009DF8035005F07F05023D5FB92046FFF7A3
:1039100097FDB8F1000F11D094F83C10204600F04C
:103920009CFA0BE045450DD92046FFF789FD94F838
:103930003C10204600F091FA6FF06805284602B06E
:10394000BDE8F0812A4639462046FFF76DFD022288
:1039500001A92046FFF768FD76B10122B11C20467F
:10396000FFF762FD2046FFF76BFD07212046FFF7BA
:103970001CFD5B383080CFE72046FFF761FDCBE7C9
:1039800070B506460D460024FFF784FC3DB9338F21
:103990005B0602D43046FFF79FFC204670BDAA6844
:1039A000A31C13447F2B07D8234669683046FFF7D2
:1039B00083FC2D680446E9E76FF08A00EEE700001B
:1039C00008B5FFF74AFD0838C0B2112896BF024B70
:1039D0000220185C08BD00BF4B6000082DE9F843C9
:1039E0000F46164698460546002800F0AA80A1F129
:1039F0001203162B48D8DFE803F0242E4747474729
:103A0000471C4732363A3F474743474747474747B0
:103A10000C00B8F1010F03D858490320FDF790F9C5
:103A20000023737000F00DF9022430702046BDE8C9
:103A3000F883B8F1000FEFD0FFF7C2FF3070012418
:103A4000F4E7038F13F0400F02D001243470EDE748
:103A500000233370F3E7038F13F0200FF4E7038F95
:103A6000C3F38003F5E7038FC3F3C003F1E790F8D6
:103A7000383003F00103ECE7038FC3F34003E8E7BA
:103A8000038FC3F30013E4E74346324600F0ACFA79
:103A900010F1860F0446C9D12846FFF7DEFC0F2837
:103AA000814651D12846FFF7E4FC172F24D00AD8CD
:103AB000102F15D0142F37D0012F4FD00F212846AB
:103AC00000F0CBF9B2E7292F1FD0312F24D0222FBD
:103AD000F4D1B8F1000F9FD0284600F0F8F811E0BB
:103AE000B8F1010F98D9284600F0BCF802243080C4
:103AF000B9F10F0F9AD1E1E7B8F1000F8CD0284649
:103B000000F0CAF830700124F2E7B8F1000F83D05A
:103B1000284600F014F9F5E7B8F1000F3FF47CAF48
:103B2000284600F022F9EDE7B8F1000F3FF474AF3A
:103B30002E212846FFF739FC80F01000C0F300105A
:103B4000E0E76FF0120471E7172FD5D00ED8102FD1
:103B5000C6D0142FE8D0012F7FF468AFB8F1000F62
:103B60003FF45AAF2846FFF7CFFBCBE7292FCCD045
:103B7000312FD1D0222F7FF459AFAAE7485A00083D
:103B800038B50D4602210446FFF7FDFB162D07D080
:103B90002046FFF762FCA842FAD184F83A5038BDBB
:103BA0002046FFF75AFC1F28FAD0F6E710B5044666
:103BB0000A0A017442742021FFF7E5FB227C2046AB
:103BC000BDE810402121FFF7DEBB2DE9F843064692
:103BD00017461D4600246FF0070900F11208E200A5
:103BE000C2F12001A2F1200305FA01F127FA02F245
:103BF0000A4325FA03F31A4309FB04F308F8012BDF
:103C000003F13802C2F1200105FA01F1183327FA55
:103C100002F20A4325FA03F31A4304F12401D2B253
:103C2000C9B230460134FFF7AEFB082CD7D1BDE84E
:103C3000F883A1F10B020F2A02D8C176FFF74EBC20
:103C400070470020704738B505460C46CAB222219D
:103C5000FFF799FB220A2846BDE838402321FFF7E9
:103C600092BB000008B50521FFF79FFB024B00F057
:103C70000F0033F9100008BD8E600008113109B241
:103C80001429A8BF1421034B21EAE1715A5C0521D4
:103C9000FFF779BB7860000808B52C21FFF785FB9A
:103CA000C0F3071008BD38B50C462C210546FFF7B8
:103CB0007CFB072C28BF072400F00F0040EA041209
:103CC000D2B22846BDE838402C21FFF75CBB08B5CE
:103CD0002C21FFF76AFBC0F3420008BD38B50C1E6B
:103CE000054611DB052CA8BF05242C212846FFF72B
:103CF0005CFB20F00E0242EA44022846BDE8384050
:103D0000D2B22C21FFF73FBB0724EEE738B50546BA
:103D10000C4699B10A782D21FFF735FB2E21284654
:103D2000FFF743FB637800F0F80203F007031A4340
:103D30002846BDE838402E21FFF725BB38BD08B521
:103D40000921FFF732FB00F00F0040005B3840B262
:103D500008BD0029C4BF494249B25B31C1F34302E7
:103D600042F0C0020921FFF70EBB08B50721FFF79B
:103D70001CFB5B3840B208BD38B50446038F1546BE
:103D80004AB10B43202923872ED007D8042954D0C9
:103D9000102911D038BD23EA0103F3E780293FD071
:103DA000B1F5807FF6D12E212046FFF7FEFA002DD7
:103DB00050D040F020023EE07DB104F112012046D7
:103DC000FFF7A4FF04212046FFF788FF53222F218D
:103DD0002046BDE83840FFF7D6BA2046BDE8384057
:103DE0004FF0FF31FFF77ABF2E212046FFF7DDFAB3
:103DF00085B140F01002D2B22E212046FFF7C3FA5F
:103E000017212046FFF7D1FA3DB140F00202D2B2AD
:103E10001721DDE700F0EF02EEE700F0FD02F7E723
:103E20002E212046FFF7C1FA1DB100F0EF022E212E
:103E3000CEE740F01002D2B2F9E70E212046FFF79C
:103E4000B4FA25B140F00402D2B20E21C0E700F06E
:103E5000FB02FAE700F0DF02E9E770B504460D4621
:103E60002046FFF7FAFAA0F11103DBB2012B064658
:103E7000F6D91F28F4D0032D05D12A460821204663
:103E8000FFF77EFE1BE0A84219D0162819D1192D84
:103E900023D1092220461146FFF772FE0F2D14D1BF
:103EA000032208212046FFF76BFE0F212046FFF773
:103EB0007CFA206BFDF7B3F80F2384F83A303046D4
:103EC00070BD1928EAD1162DE2E70F2E02D1204647
:103ED000FFF7CFFA2A462946D1E70F2DFAD1DFE7BF
:103EE00070B50E4600210446FDF7EEFD094D50B9B0
:103EF000E2882B8812B21BB29A4204D04EB901213B
:103F00002046FDF7E1FD01202B88E380A3880133E3
:103F1000A38070BD940200200021FFF7E1BF0000E4
:103F200008B50C4BC1881B8809B21BB2994203D05B
:103F300009490320FCF704FF8388002BF8D0013BDC
:103F40009BB2838023B9C380BDE80840FDF7ECBD78
:103F500008BD00BF94020020485A00087FB50C46F7
:103F6000054600B119B90D490320FCF7E9FE0A46E0
:103F700001AE232100F02DFA304600F093F9002322
:103F8000B3FBF4F204FB1232F05CA95C0133414054
:103F90000C2BA954F4D104B070BD00BF485A0008DE
:103FA00010B50446FFF7DAFF034A1378591C117065
:103FB00022785340237010BD2402002070B50446BF
:103FC000FEF740FF00232246A38323732323A0761A
:103FD00022F80E3F236820465D690621AC46BDE805
:103FE0007040022360470000062938B505460C469C
:103FF000104643D009D803292CD034D8002941D009
:1040000002291AD06FF0850336E0162940D008D86F
:10401000082953D01129F5D1012B10D9662313801B
:1040200016E01A2940D0272944D01829EAD1012BBB
:1040300005D195F90C2002701EE0012B03D83E49F2
:104040000320FCF77DFE0A4605F1100100F09DF902
:10405000022311E0072BF2D9082205F1120100F02A
:1040600094F9082308E0022BE9D1AA8B520702D564
:104070000822028000E00380184638BD022BDED102
:10408000EA89F6E7022BDAD1EB7E13800123F3E70E
:10409000012BD4D1AB8B13F0200F02D0012303707E
:1040A000EAE700230370F1E7012BC8D1AB8B13F0D3
:1040B000020FF2E7022BC2D10322DAE7072BBED9A7
:1040C000AB8B00225B074BBF2346022305F1120195
:1040D00005F11001042B4270027018D0082B03D098
:1040E000022BBED1134619E00A7882F00202027058
:1040F0004A7842708A788270CA78C2700A790271EE
:104100004A7942718A798271CA79C271B4E70B78AF
:1041100083F0020303704B7843700223FF240022D4
:10412000C470FE24827004714271CA5C19448271A9
:104130004B78C37195E700BF485A000870B5154623
:104140001C461A296CD8DFE801F00E6B1A2A3A3A9D
:104150004D6B6B6B6B6B6B6B6B6B6B6B6B6B6B6BCD
:10416000526B656B5C00022C03D02F490320FCF7D7
:10417000E7FD1388FF2BF8D8C376204670BD022CCC
:10418000F3D800F1100602220021304600F021F998
:1041900022462946304600F0F8F80224EDE7082CC4
:1041A000E3D800F1120608220021304600F011F990
:1041B00022462946304600F0E8F80824DDE7022CC4
:1041C000D3D11388022B04D0082B07D06FF06904D9
:1041D000D3E7838B23F004038383CEE7838B43F001
:1041E0000403F9E7022CC0D11388C381C5E7127814
:1041F000838B1AB143F020038383CEE723F020039F
:10420000FAE71278838B12B143F00203F4E723F04C
:104210000203F1E7012CA8D192F900300373ACE757
:104220006FF08504A9E700BF485A0008FDF77CBC81
:1042300038B504460020FDF763F90546A4B2002016
:10424000FDF75EF9401B80B2A042F8D338BD0000F4
:1042500030B587B004460D46FCF721FA48B11DB1D0
:104260000E490320FCF76CFD2046FFF7E1FF07B085
:1042700030BD0B4B0090CDE902000121684604934C
:10428000CDF814D0FDF720FC214601A82A46FCF702
:1042900001FD01216846FDF717FCE8E7485A0008D0
:1042A0002D4200080C22014900F06FB8E8F7FF1F0B
:1042B00010B586B006AC04F8093D012301930DF159
:1042C000170300932346FEF79BFE9DF8170006B0E8
:1042D00010BDF0B585B01F4604AB03F8012D0024D6
:1042E000012205460E46CDE90042FEF789FE3B4617
:1042F000224631462846FFF7DBFF05B0F0BD00003F
:10430000074B10B51C6824B1A36913B9204600F00F
:10431000EDFA61682046BDE8104000F08DBB00BF9B
:104320002802002070B500250C4E0D4CA41BA410D3
:10433000A54209D1FBF7FEFE00250A4E0A4CA41B3C
:10434000A410A54205D170BD56F825309847013517
:10435000EEE756F8253098470135F2E74861000846
:1043600048610008486100084861000830B5002431
:10437000A24201D1002007E0035D01340D1915F8B8
:10438000015CAB42F4D0581B30BD10B5431E0A444B
:10439000914200D110BD11F8014B03F8014FF7E72E
:1043A000884210B501EB020307D8421E99420AD099
:1043B00011F8014B02F8014FF8E78342F5D9811853
:1043C000D21AD34200D110BD13F8014D01F8014DAE
:1043D000F7E703460244934200D1704703F8011BFC
:1043E000F9E700000FB40A4B13B51C6824B1A369A8
:1043F00013B9204600F07AFA05AB049AA16820466A
:10440000019300F0C9FD02B0BDE8104004B0704750
:104410002802002038B5084B05461C6824B1A36962
:1044200013B9204600F062FAA26829462046BDE88A
:10443000384001F04FB800BF2802002070B50E468A
:10444000054618B183690BB900F050FAAB69AC6846
:1044500013B9284600F04AFA234B9C4217D16C68E6
:10446000A3891B071DD52369DBB1013EA36816F89C
:10447000011F013BA360E9B9002B2EDA22460A2175
:10448000284600F071F8013011D00A2011E0174BD6
:104490009C4201D1AC68E3E7154B9C4208BFEC6835
:1044A000DEE72146284600F0B1F80028DDD04FF0C5
:1044B000FF3070BD002B04DAA2699A4206DC0A299B
:1044C00004D023685A1C22601970CFE72246284680
:1044D00000F04AF80130C9D1E9E70A2023685A1CE4
:1044E00022601870E5E700BFD4600008F46000089F
:1044F000B4600008024B01461868FFF79FBF00BF79
:10450000280200200EB46FF0004100B59CB01DAB36
:1045100002900690079104910848094953F8042B2A
:104520000591006802A9019300F016FC0022029B8D
:104530001A701CB05DF804EB03B07047280200202D
:104540000802FFFF10F8012B11F8013B012A28BFD8
:104550009A42F7D0D01A7047034611F8012B03F89E
:10456000012B002AF9D17047F8B50E4614460546CE
:1045700018B183690BB900F0B9F9214B9C422AD1DB
:104580006C68A369A360A3891A072ED5236963B356
:1045900023692068F6B2C01A63693746834204DC97
:1045A0002146284600F026F928BBA3680130013BCC
:1045B000A36023685A1C22601E706369834204D082
:1045C000A389DB0719D50A2E17D12146284600F00A
:1045D00011F990B10FE00B4B9C4201D1AC68D0E7D0
:1045E000094B9C4208BFEC68CBE72146284600F007
:1045F0000DF80028CCD04FF0FF373846F8BD00BF8B
:10460000D4600008F4600008B4600008324B70B554
:104610001D6806460C4625B1AB6913B9284600F063
:1046200065F92E4B9C420FD16C68B4F90C309AB2EC
:1046300015072CD4D00611D40922326043F0400370
:10464000A3814FF0FF303EE0254B9C4201D1AC6886
:10465000EBE7244B9C4208BFEC68E6E7510712D514
:10466000616B41B104F14403994202D0304600F03D
:1046700073FA00236363A38923F02403A381002337
:10468000636023692360A38943F00803A38123693E
:104690004BB9A38903F42073B3F5007F03D02146FF
:1046A000304600F019FAA28912F001030CD0002361
:1046B000A36063695B42A361236953B9B4F90C3009
:1046C00013F08000BAD170BD920758BF6369A36030
:1046D000F2E70020F7E700BF28020020D4600008BE
:1046E000F4600008B46000088A892DE9F0410546AD
:1046F00010070C4658D44B68002B05DC0B6C002BC4
:1047000002DC0020BDE8F081E66A002EF9D000232B
:1047100012F480522F68216A2B6032D0606DA38919
:104720005A0705D56368C01A636B0BB1236CC01AB6
:1047300000230246E66A216A2846B047431CA38943
:1047400006D129681D2948D8294ACA40D60744D528
:10475000002262602269D904226004D5421C01D182
:104760002B6803B96065616B2F600029C9D004F123
:104770004403994202D0284600F0EEF9002060631D
:10478000C0E701232846B047411CC8D12B68002B45
:10479000C5D01D2B01D0162B01D12F60B1E7A38905
:1047A00043F04003A381ADE70F69002FA9D0930721
:1047B00018BF00230E6808BF4B69A6EB07080F60FF
:1047C0008B60B8F1000F9CDD43463A46216A2846CB
:1047D000A66AB047002806DCA38943F04003A38102
:1047E0004FF0FF308EE70744A8EB0008E9E700BF71
:1047F0000100402038B50B6905460C46DBB118B105
:1048000083690BB900F072F80C4B9C4209D16C68BB
:10481000B4F90C307BB121462846BDE83840FFF79B
:1048200063BF074B9C4201D1AC68F1E7054B9C424A
:1048300008BFEC68ECE7002038BD00BFD46000087A
:10484000F4600008B4600008014620B9044B054933
:10485000186800F0D3B8044B1868FFF7CBBF00BF4F
:10486000B0600008F547000828020020002310B5BA
:104870000446C0E90033836081814366C281C0E998
:1048800004338361194608225C30FFF7A2FD054B13
:1048900024626362044BA362044BE362044B236310
:1048A00010BD00BF99550008BB550008F35500081E
:1048B00017560008014900F0A1B800BFF5470008ED
:1048C00070B568254A1E55430E4605F1740100F087
:1048D0008FF9044640B10021C0E900160C30A060F9
:1048E00005F16802FFF775FD204670BD836910B5BC
:1048F000044633BBC0E912330365124B124A1B68EE
:104900008262984204BF0123836100F01FF8606057
:10491000204600F01BF8A060204600F017F80022A7
:10492000E06004216068FFF7A1FF01220921A0686F
:10493000FFF79CFF02221221E068FFF797FF012397
:10494000A36110BDB0600008B5480008F8B51B4B66
:1049500007461E68B36913B93046FFF7C7FF4836EC
:10496000D6E90134013B03D5336833B13668F7E744
:10497000B4F90C506DB16834F4E704213846FFF700
:104980009FFF30600028F1D10C2304463B60204695
:10499000F8BD0B4B6566C4E90055A560C4E9033555
:1049A000C4E905550822294604F15C00FFF711FD12
:1049B000C4E90D55C4E91255E9E700BFB06000082D
:1049C0000100FFFF2DE9F0418846002600F1480470
:1049D00014B93046BDE8F081D4E90175013F01D535
:1049E0002468F5E7AB89012B06D9B5F90E30013300
:1049F00002D02846C04706436835EFE72DE9F84363
:104A000080468946002600F1480414B93046BDE8C6
:104A1000F883D4E90175013F01D52468F5E7AB8936
:104A2000012B07D9B5F90E30013303D02946404692
:104A3000C84706436835EEE738B50C46054618B159
:104A400083690BB9FFF752FF0E4B9C420BD16C6888
:104A50006368013B002B63600FDA21462846BDE8FE
:104A6000384000F06DBD084B9C4201D1AC68EFE7C7
:104A7000064B9C4208BFEC68EAE723685A1C226098
:104A8000187838BDD4600008F4600008B4600008ED
:104A900070B50E46B1F90E1096B0002914461D46A9
:104AA00007DA00232B60B3891A0610D44FF4806311
:104AB0000EE06A46FBF772FB0028F2DB019A02F473
:104AC0007042A2F500535A425A412A60EEE7402351
:104AD0000020236016B070BD8B8973B59D07064614
:104AE0000C4607D504F1470323602361012363616A
:104AF00002B070BD01AB6A46FFF7CAFF00990546D8
:104B0000304600F075F848B9B4F90C309A05EFD486
:104B100023F0030343F00203A381E3E70D4BB362E9
:104B2000A389206043F08003A381009B206163611F
:104B3000019B5BB1B4F90E103046FBF734FB28B192
:104B4000A38923F0030343F00103A381A3891D4339
:104B5000A581CDE7B548000838B50546002943D002
:104B600051F8043C0C1F002BB8BFE41800F065FDA1
:104B70001E4A1368104633B9636014602846BDE8C6
:104B8000384000F05BBDA3420BD921686218934204
:104B900001BF1A685B685218226063600460EDE729
:104BA00013465A680AB1A242FAD919685818A042A5
:104BB0000BD120680144581882421960DED1106878
:104BC0005268014419605A60D8E702D90C232B605F
:104BD000D4E7206821188A4201BF11685268091879
:104BE000216062605C60C9E738BD00BF0C2800200E
:104BF00070B5CD1C25F0030508350C2D38BF0C25EC
:104C0000002D064601DBA94203D90C2333600020A6
:104C100070BD00F012FD214A1468214691B9204C64
:104C200023681BB93046FBF789FA206029463046D5
:104C3000FBF784FA431C24D10C233046336000F088
:104C4000FDFCE4E70B685B1B18D40B2B0FD90B6042
:104C5000CC18CD50304600F0F1FC04F10B00231DC0
:104C600020F00700C31AD3D05A42E250D0E74B6875
:104C70008C4216BF636013600C46EBE70C46496834
:104C8000CCE7C41C24F00304A04205D0211A30460E
:104C9000FBF754FA0130CFD02560DBE70C28002069
:104CA000102800202DE9F0478E6882469E420C466F
:104CB0009046994637D88A8912F4906F31D00223F2
:104CC000256809696F1A656905EB450595FBF3F5DC
:104CD00009F101033B449D4238BF1D46530530D5C1
:104CE0002946FFF785FF064650B90C234FF0FF30E9
:104CF000CAF80030A38943F04003A381BDE8F087E0
:104D00003A462169FFF741FBA38923F4906343F0FE
:104D10008003A38126613E4426604E466561ED1BFB
:104D2000A5604E4500D94E46324641462068FFF701
:104D300037FBA36800209B1BA36023681E442660EA
:104D4000DCE72A4600F07BFC06460028E2D1216918
:104D50005046FFF701FFC8E72DE9F04F1D468B894C
:104D60009DB01F0680460C4616460FD50B696BB9E1
:104D70004021FFF73DFF2060206128B90C23C8F8CF
:104D800000304FF0FF30C8E04023636100230993F7
:104D900020238DF8293030234FF0010B8DF82A3075
:104DA000039537463D4615F8013B0BB1252B3ED107
:104DB000B7EB060A0BD05346324621464046FFF772
:104DC00071FF013000F0A480099B534409933B78A4
:104DD000002B00F09D8000234FF0FF32CDE905232A
:104DE000049307938DF853301A932F46052217F832
:104DF000011B504800F013FC049BD0B9D90644BFF6
:104E000020228DF853201A0744BF2B228DF85320FF
:104E10002A782A2A15D02F4600200A25079A3946D3
:104E200011F8013B303B092B4DD9B8B10FE02F46AB
:104E3000B8E7404A3D46801A0BFA00F01843049048
:104E4000D3E7039A111D12680391002A01DB079230
:104E500004E0524243F00203079204933B782E2B66
:104E60000CD17B782A2B33D1039B02371A1D1B6888
:104E70000392002BB8BF4FF0FF3305932E4D032252
:104E80003978284600F0CBFB38B14023401B03FAA9
:104E900000F0049B01370343049339780622274826
:104EA0007E1C8DF8281000F0BAFB002838D0244B67
:104EB00013BB039B073323F0070308330393099BBA
:104EC0004B4409936DE705FB023201200F46A6E72C
:104ED00000230A25194601370593384610F8012B9F
:104EE000303A092A03D9002BC8D00591C6E705FB43
:104EF000012101230746F0E703AB00932246114B43
:104F000004A94046AFF30080B0F1FF3F8146D6D1FF
:104F1000A3895B063FF535AF09981DB0BDE8F08F5A
:104F200003AB00932246074B04A9404600F0C0F9AA
:104F3000EAE700BF146100081A6100081E6100085A
:104F400000000000A54C0008936810B4013B002B42
:104F5000936007DA9469A34201DB0A2902D110BCED
:104F6000FFF702BB1368581C10601970084610BC8C
:104F70007047F8B506460F461446D518AC4201D125
:104F8000002007E03A4614F8011B3046FFF7DCFF2B
:104F9000431CF3D1F8BD00002DE9F04F0C469DB045
:104FA00017461D46064618B183690BB9FFF79EFCEC
:104FB0007C4B9C4258D17468A38918075ED523693D
:104FC000002B5BD00023099320238DF82930302358
:104FD0004FF0010B8DF82A300395B846454615F879
:104FE000013B0BB1252B54D1B8EB070A0BD053462C
:104FF0003A4621463046FFF7BCFF013000F0C28040
:10500000099B5344099398F80030002B00F0BA80B4
:1050100000234FF0FF32CDE90523049307938DF869
:1050200053301A93A846052218F8011B5E4800F079
:10503000F6FA049B78BBD90644BF20228DF8532092
:105040001A0744BF2B228DF853202A782A2A2AD007
:10505000A84600200A25079A414611F8013B303B3B
:10506000092B69D960B324E0504B9C4201D1B4684C
:10507000A2E74F4B9C4208BFF4689DE721463046AB
:10508000FFF7C4FA00289DD04FF0FF301DB0BDE8F7
:10509000F08FA846A2E7444A4546801A0BFA00F072
:1050A00018430490BEE7039A111D12680391002A69
:1050B00001DB079204E0524243F00203079204939B
:1050C00098F800302E2B0ED198F801302A2B38D1C9
:1050D000039B08F102081A1D1B680392002BB8BF3E
:1050E0004FF0FF330593334D032298F80010284604
:1050F00000F095FA40B14023401B03FA00F0049BF6
:1051000008F101080343049398F8001006222A4886
:1051100008F101078DF8281000F081FA002837D037
:10512000264B1BBB039B073323F007030833039372
:10513000099B4B44099350E705FB02320120884646
:105140008AE700230A25194608F10108059340461D
:1051500010F8012B303A092A03D9002BC3D005914E
:10516000C1E705FB012101238046F0E703AB009373
:105170002246134B04A93046AFF30080B0F1FF3F45
:105180008146D5D1A3895B063FF57EAF09987DE7BF
:1051900003AB009322460A4B04A9304600F088F87E
:1051A000ECE700BFD460000814610008F460000858
:1051B000B46000081A6100081E61000800000000C9
:1051C000734F00082DE9F04791461F468A680B6926
:1051D00006469342B8BF1346C9F8003091F8432001
:1051E0000C46DDF8208012B10133C9F80030236885
:1051F000990642BFD9F800300233C9F8003025685B
:1052000015F0060507D104F1190AE368D9F8002062
:105210009B1AAB4229DC94F843302268003318BF54
:10522000012392062ED404F1430239463046C0478A
:10523000013021D02368E56803F00603042B18BF72
:105240000025D9F800204FF0000908BFAD1AA36867
:10525000226908BF25EAE5759342C4BF9B1AED1881
:105260001A344D451AD1002008E001235246394630
:105270003046C047013003D14FF0FF30BDE8F08722
:105280000135C2E73020E11881F843005A1C94F838
:1052900045102244023382F84310C4E7012322461A
:1052A00039463046C0470130E6D009F10109D8E758
:1052B0002DE9F04301F1430C0C46097E85B06E29BF
:1052C0001746064698460C9A00F0B38022D8632908
:1052D00036D00AD8002900F0B980582900F0838020
:1052E00004F1420584F8421032E0642901D06929B2
:1052F000F6D120681368050603F104012AD51B685E
:105300001160002B03DA2D225B4284F843206F48A2
:105310000A2239E0732900F09D8008D86F2920D037
:105320007029DDD1236843F02003236003E0752951
:1053300017D07829D4D17823654884F8453055E0D2
:10534000136804F14205191D1B68116084F842308E
:1053500001238CE01B6810F0400F116018BF1BB2D6
:10536000CFE713682568181D1060280601D51B6853
:1053700002E06806FBD51B886F2914BF0A220822A9
:105380005248002184F843106568002DA560C0F2E2
:105390009580216821F004012160002B3DD1002D72
:1053A00040F08E806546082A0BD12368DB0708D5BC
:1053B000236962689A42DEBF302305F8013C05F19B
:1053C000FF35ACEB05032361CDF800803B4603AA13
:1053D00021463046FFF7F6FE01304DD14FF0FF3049
:1053E00005B0BDE8F083394884F84510136821689A
:1053F0001D1D1B6815600A060BD5CA0744BF41F086
:10540000200121601BB9226822F0200222601022B4
:10541000B7E74D0648BF9BB2EFE76546B3FBF2F135
:1054200002FB1133C35C05F8013D0B460029F5D1A1
:10543000B9E713682568181D6169106028061B68A4
:1054400001D5196002E06A06FBD519800023654684
:105450002361B9E71368191D11601D686268002196
:10546000284600F0DCF808B1401B606063682361E7
:10547000002384F84330A7E723692A46394630469B
:10548000C0470130AAD023689B0713D4E068039B70
:105490009842B8BF1846A3E701234A46394630462A
:1054A000C04701309AD00135E368039A9B1AAB429A
:1054B000F2DCEBE7002504F11909F5E7002BACD18C
:1054C000037804F1420584F842306CE72561000856
:1054D0003661000870B50D461446064618B183695A
:1054E0000BB9FFF703FA134B9C4212D17468A368FF
:1054F000013B002BA36016DAA269934202DBEBB2F8
:105500000A2B10D1224629463046BDE87040FFF7ED
:105510002BB8094B9C4201D1B468E8E7074B9C4289
:1055200008BFF468E3E72368E8B25A1C22601D70E4
:1055300070BD00BFD4600008F4600008B4600008CB
:1055400038B50C46054618B183690BB9FFF7CEF99B
:105550000E4B9C420DD16C682146284600F09EF807
:1055600088B96368013B636023685A1C226018781D
:1055700038BD074B9C4201D1AC68EDE7054B9C421E
:1055800008BFEC68E8E74FF0FF30F1E7D4600008AF
:10559000F4600008B460000810B50C46B1F90E10B4
:1055A000FAF7EAFD0028ABBF636DA3891B1823F44B
:1055B0008053ACBF6365A38110BD2DE9F0411F4648
:1055C0008B890546DB050C46164605D502230022CD
:1055D000B1F90E10FAF7DDFDA389324623F48053AA
:1055E000A381B4F90E103B462846BDE8F041FAF716
:1055F000C7BD10B50C46B1F90E10FAF7CAFD431C31
:10560000A38915BF606523F4805343F48053A381BD
:1056100018BFA38110BDB1F90E10FAF7B5BD10B5D2
:10562000C9B202449042034601D1002303E01C7832
:1056300001308C42F6D1184610BD70477047F8B55E
:10564000074614460E4621B9BDE8F8401146FFF75B
:10565000CFBA22B9FFF780FA25462846F8BD00F0F8
:10566000A9F8A0420FD221463846FFF7C1FA0546F5
:105670000028F2D031462246FEF787FE31463846F2
:10568000FFF76AFAE9E73546E7E7838903F009039C
:10569000092B01D1FFF7D8B800207047F8B50C46A8
:1056A000054618B183690BB9FFF720F93C4B9C42C2
:1056B0000AD16C680023B4F90C20636093B29E0693
:1056C0000CD54FF0FF3068E0364B9C4201D1AC68FE
:1056D000F0E7354B9C4208BFEC68EBE758074AD42B
:1056E000D90605D4092342F040022B60A281E8E7E5
:1056F0001A070BD521462846FFF77CF80028E0D191
:10570000A389A06023F00803A381A061A38943F0CB
:105710000403A38123691BB921462846FFF7DCF95E
:10572000B4F90C70BEB2B3070FD00123A3811F4B95
:105730001F49186806F00906FFF744F9092EA781EA
:1057400003D121462846FEF7CFFF2269666A226010
:105750006369216A2846B047002860601EDC18BFD4
:105760000022B4F90C3016BF626043F0200343F00E
:105770004003A381A5E7616B0029CBD004F144036A
:10578000994202D02846FFF7E7F90020236C6063B6
:105790006360002BBED0E36B2360F8BD0020FCE704
:1057A000D4600008F4600008B4600008B06000082D
:1057B0008B56000851F8043C181F002BBCBF0B5837
:1057C000C0187047425553204641554C542048411B
:1057D0004E444C4552004445425547204D4F4E20C3
:1057E00048414E444C45520044554D4D5920484186
:1057F0004E444C4552000A49535220737461636B06
:10580000206F766572666C6F7765640053746163B0
:105810006B20706F696E74657220636F7272757041
:105820007465642C20726573657420746F20746FC6
:1058300070206F6620737461636B000A436F6E742F
:10584000657874206265666F72652068617264664F
:1058500061756C743A0020202072303A203078252F
:1058600030386C780A20202072313A203078253088
:10587000386C780A20202072323A2030782530386F
:105880006C780A20202072333A2030782530386C2A
:10589000780A0020207231323A2030782530386C76
:1058A000780A2020206C723A2030782530386C78C5
:1058B0000A20202070633A2030782530386C780A2E
:1058C00020207073723A2030782530386C780A0ABC
:1058D000004653522F4641523A0020434653523A13
:1058E0002030782530386C780A0020484653523AE8
:1058F0002030782530386C780A0020444653523ADC
:105900002030782530386C780A0020414653523ACE
:105910002030782530386C780A0020424641523ACF
:105920002030782530386C780A004D4D4641523A87
:105930002030782530386C780A004D697363004553
:1059400058435F5245543A2030782530386C780AF5
:1059500000417474656D7074696E6720746F207295
:1059600065636F6E737472756374207374617465AC
:1059700020666F7220646562756767696E672E2E98
:105980002E00496E204744423A0A20207365742055
:105990002470633D3078256C780A20206672616D32
:1059A0006520300A202062740A000A49535220738D
:1059B0007461636B206F766572666C6F77656420C7
:1059C0006279206174206C656173742025642062A3
:1059D000797465732E0A0048415244204641554C63
:1059E000542048414E444C4552004D454D204D41B8
:1059F0004E4147452048414E444C4552004E4D498A
:105A00002048414E444C455200555341474520469D
:105A100041554C542048414E444C45520000000032
:105A200000380140004000000A0801400908014018
:105A3000012500000044004000000200030801406E
:105A400002080140002600004641494C45442041DF
:105A50005353455254494F4E2E0025700A002A2AAE
:105A60002A2052494F54206B65726E656C2070611C
:105A70006E69633A0A25730A0A002A2A2A20686195
:105A80006C7465642E0A0A006D61696E28293A20DB
:105A9000546869732069732052494F542120285655
:105AA000657273696F6E3A20323031382E31302D85
:105AB0005243312D3532302D676437633832290A2D
:105AC0000069646C65006D61696E005F517374619B
:105AD0007465006E616D650009706964207C202525
