:020000040800F2
:10000000000200209504000831040008ED030008F8
:1000100041040008510400086104000800000000C9
:10002000000000000000000000000000D1030008F4
:100030007104000800000000B503000881040008F6
:1000400031010008310100083101000831010008C8
:1000500031010008310100082111000821110008B8
:1000600021110008211100082111000831010008A8
:100070003101000831010008310100083101000898
:100080003101000831010008310100083101000888
:100090003101000831010008310100082111000878
:1000A0003101000831010008310100083101000868
:1000B000A5150008AB150008310100083101000842
:1000C0003101000831010008310100083101000848
:1000D000310100085D0800086308000831010008CC
:1000E0002111000831010008310100083101000828
:1000F0003101000831010008310100083101000818
:100100003101000831010008310100083101000807
:1001100031010008310100083101000831010008F7
:1001200031010008310100083101000831010008E7
:1001300000F0A6B900F0B8BA7047000070B50C46E0
:10014000064600F0A1FA094B094A1D682C44944266
:1001500002D8084A944207D20C234FF0FF3533608F
:1001600000F09AFA284670BD1C60F9E700020020F2
:1001700000000120F42900201946104600F0A0BA22
:100180001946104600F0A4BA132303604FF0FF3065
:100190007047132303604FF0FF3070471323036051
:1001A0004FF0FF3070470023022903608CBF00200E
:1001B00001207047134910B50C68002094FAA4F18F
:1001C0008442B1FA81F108BF4FF0FF310E4C0F4B62
:1001D00054F8211018600E4B09681A68A1F1080440
:1001E00094420ED022B110790A2804BF0B2010715E
:1001F0000A22012001F8042C31F9021C054A1C6076
:10020000118010BDFC030020100400200804002011
:100210000404002000040020092930B503791AD90C
:10022000092B14D842791A4B00F1080453F82250D4
:100230007DB12D68856053F822502C6043F8224030
:100240000123144A4479A3401468234313600171C5
:1002500030BD8460F2E7092BF9D945790C4B53F88E
:1002600025203AB11468A2420BBF0022246843F84B
:1002700025201460427953F82230002BE7D1012366
:10028000044C03FA02F2236823EA02032360DEE748
:1002900010040020FC03002008B5094B1B681A79E4
:1002A000092A02D95B79834205D900F0F8F918B11F
:1002B0000122044B1A6008BDBDE8084000F072B886
:1002C0000404002008040020002408B500F0DCF934
:1002D000084B094A1B88094D1BB242F82340084AC3
:1002E000214613682868013B1360FFF795FF2C60D7
:1002F00000F054F800040020500400200404002002
:100300000C04002013444FF0773223F0030310B5A0
:100310001C1F43F8042C620742BF4FF08832A3F140
:10032000080443F8082C4FF0807344E902030D4B96
:10033000002244F80C3C0323022044E90532012347
:10034000224644E907300B2342F8201D42F8043DC1
:10035000013B032BFAD120466FF0020340F8443DE5
:1003600010BD00BFC90200080548064A064B0168D7
:10037000914201D1984201D3181A70470430F6E730
:1003800000000020FEE7FEE700020020EFF30880F7
:1003900070470000004870470000002000F078F926
:1003A00001DFFEE7024A536843F080535360704711
:1003B00000ED00E0EFF3098020E9F00F40F804EDD4
:1003C00002490968086000F003F8000004040020F6
:1003D000FFF7F0FE04480068016801C9B1E8F00FBA
:1003E00081F3098800470000040400200D4B0E4AE9
:1003F0000E496846904203D8984201D9002102E094
:1004000009468D46012104207246024202D1EFF3D3
:10041000088001E0EFF309802DE9F00F6B4600F052
:100420006FF800BF580100200000012000020020EA
:1004300008B50249042000F083FC00BFAD6C000841
:1004400008B50249062000F07BFC00BF9A6C00084A
:1004500008B50249072000F073FC00BF746A000869
:1004600008B50249082000F06BFC00BFB96C000819
:1004700008B50249092000F063FC00BF866A000845
:1004800008B502490A2000F05BFC00BF986A00082A
:100490007047704708B5FFF7FBFF6A46114B1249DA
:1004A000934213D3114A124B12498B4211D30021AC
:1004B000114B124A934211D3FFF7EBFF00F01AFCE5
:1004C00005F09CFABDE8084000F074BC43F8041B3A
:1004D000E6E752F8040F43F8040BE6E743F8041B81
:1004E000E8E700BF00000020FEE7FEE7A485000863
:1004F00000020020FC030020FC030020F42900205F
:100500002DE9F04F9A464A4B93469A6B8FB003926F
:100510005A6B9F6A0492DA6A044605921A6BDB6B87
:1005200006920793434B88461A68434B9A4202D07F
:10053000424805F0D7FBB8F1000F4ED000254048E7
:1005400005F0D0FB2E463F4805F0CCFB39463E482F
:1005500005F040FB05993D4805F03CFB06993C48F9
:1005600005F038FB07993B4805F034FB3A0403D506
:100570000399394805F02EFB3B0603D5049937480B
:1005800005F028FB364805F0ADFB5946354805F027
:1005900021FBB8F1000F1BD1334805F0A3FB314616
:1005A000324805F017FB6946314BC91A03D5494259
:1005B000304805F00FFB20468268C36801698C460D
:1005C00041698E46AD46514691E8F00F416800689A
:1005D00001BE2949052000F0B3FBD4E902300890A0
:1005E0002069D4E906690990606919F4007F0A90CE
:1005F0002248D4E9001208BF04F12005CDE90C23FC
:1006000018BF04F124050B9105F06CFB089B0B99B6
:1006100000931B48DDE90C2305F0DCFADDE9091243
:10062000CDF800903346174805F0D4FA8BE700BFA9
:1006300000ED00E000000020FEE7FEE7A66A0008EB
:10064000BC6A0008816B00088A6B00089A6B00087E
:10065000AA6B0008BA6B0008CA6B0008DA6B0008C6
:10066000EA6B0008EF6B0008016C0008326C0008B0
:10067000580100205A6C0008876C0008EB6A0008DB
:10068000066B0008436B0008EFF3108072B67047EA
:1006900062B6EFF31080704780F310887047EFF375
:1006A0000580C0B270470000024B034A0349002096
:1006B00000F078B804020020390F000820A10700DC
:1006C0000A460146014800F042BC00BF0402002077
:1006D00010B50C460A460146002000F025F82046D9
:1006E00010BD000038B5142343430C4AD458256884
:1006F000AA0608D50A4B616803EBC002C9B253F8D9
:100700003030506898472B0748BF6368054B1B681B
:100710001BB1BDE83840FFF745BE38BDD06C0008BE
:100720001405002008040020012810B50AD814235D
:1007300058430A4B0A441B58914207D11A68520683
:10074000FCD510BD0649032000F0FAFA11F8010BA0
:100750001C682406FCD55860EEE700BFD06C00088A
:10076000F86C0008012810B5044603D90A49032093
:1007700000F0E6FA094B53F8303013B1012000F0D5
:1007800013FD1422064B02FB04346168207CBDE893
:10079000104000F033BE00BFF86C000814050020C4
:1007A000D06C000801282DE9F84304460D46174691
:1007B00003D92649032000F0C3FA4FF01408244E51
:1007C000244A08FB0068D8F80C9042F8307002EB1D
:1007D000C00203215360484600F0CBFB484600F0BE
:1007E0001EFC0B21484600F0F8FB27B10421D8F885
:1007F000080000F0BEFB2046FFF7B4FF14235C4363
:10080000002306EB0408345998F81000E3602361D4
:10081000636100F0D7FDB0FBF5F080B2A0608FB14E
:10082000012198F811305AB203F01F0301FA03F3C3
:100830000949520941F8223042F22C03E3600020BA
:10084000BDE8F88342F20803F8E700BFF86C00083F
:10085000D06C00081405002000E100E00020FFF744
:1008600041BF0120FFF73EBF10B598B1012821D04C
:100870000024164A136923F004031361FFF704FFF1
:10088000BFF34F8F30BFFFF707FFECB1BDE810405B
:1008900000F02EBD0E4B1A6842F00E021A605A6824
:1008A00042F480725A60094A0124136943F0040338
:1008B0001361E3E7064B1A6822F003021A601A6814
:1008C00042F001021A60EEE710BD00BF00ED00E04B
:1008D0000070004008B5FFF7D7FEBDE808400020D3
:1008E000FFF7C2BF002000F00BBE000038B5044C7B
:1008F0002568FFF7F7FF2368AB42F9D1184338BDED
:100900002C050020034B196819B982B2084600F083
:10091000D7BD70472405002010B5094A136843B1BC
:100920009C6881688C4207D303D15C6841688C4223
:1009300002D90360106010BD1A461B68EFE700BFC4
:10094000300500202DE9F047294E3268B24602F505
:100950008032326032681AB9264B1A6801321A6046
:100960000020254B254C1A681860236884461946D8
:10097000234FDFF880E0DFF88C803A6021B1DEF8A9
:1009800000508E68AE4217D900B12160BCF1000F53
:1009900010D00021CCF800103AB3C3B151685868A8
:1009A00081428CBF19461146084612681B6882B9FD
:1009B00003603960BDE8F0874D68DAF8009005EA19
:1009C00008054D45E0D18C4601200968D6E711465F
:1009D000EAE70BB90260ECE754685D68AC428CBF93
:1009E0001C46144604602046DFE73B60E2E700BF98
:1009F0002C050020280500203405002030050020AB
:100A0000380500200000FFFF01232DE9F041324F9F
:100A1000324C3B602368CBB9FFF794FF4FF6FF756C
:100A2000FFF760FFA842FBD000254FF000082368C5
:100A300083B9FFF757FF1430854228D9FFF782FFAB
:100A4000FFF750FF8542FBD30025F0E7FFF74AFF91
:100A50000546EAE75E68FFF745FF854205D8B3B271
:100A6000834202D91B1A132BE3D823685E68FFF771
:100A700039FF854202D8B6B28642F6D823681A6892
:100A8000C3E901882260D3E903209047CFE72368B8
:100A90006BB15E68FFF72AFF063E14308642C6D36C
:100AA000002330463B60BDE8F041FFF72BBFFFF766
:100AB00019FF8542064602D9FFF744FFC4E700F15B
:100AC00014039BB2984204D9FFF70CFF8642FBD96E
:100AD000F2E74FF6FF76E3E7240500203805002013
:100AE000144A1368834210D11B6813601BB1586805
:100AF0000638FFF707BF4FF6FF70FAE7984219680C
:100B000001D1116070471A460B46002BF6D10A4AF4
:100B100013681BB9094A136833B9704798421968BA
:100B2000EFD01A460B46F4E798421968E9D01A4606
:100B30000B46F1E738050020340500203005002081
:100B400008B50023054A1846054900F0EBFCBDE84E
:100B500008404FF0FF30FFF7D5BE00BF090A00087C
:100B600040420F00F8B504460D46FFF7BFFE0023D4
:100B700023602B1A1E2B07460DD8ADB2FFF7B2FE2D
:100B80008542FBD3FFF7AEFE8542FBD8D4E90330A4
:100B900098470020F8BDFFF777FD636806460BB95C
:100BA000A36813B12046FFF79BFF1D4BA81F1A68CF
:100BB000874288BF0132A2601B68A26865609A42C2
:100BC00005D8184B1A68030C1B049A4206D020461D
:100BD000FFF7A2FE3046FFF75FFDDAE7BFB2B8428B
:100BE0000ED9114B19461A6812B15768BD4213D27B
:100BF00022601C600B689C42ECD1FFF783FEE9E7A2
:100C00000A4A136813B159688D4202D223601460F6
:100C1000E0E71A461B68F5E713461268E4E700BFF1
:100C2000280500202C050020380500203405002070
:100C300038B50446FFF728FD636805460BB9A3687D
:100C400013B12046FFF74CFF2846BDE83840FFF7B8
:100C500023BDC36870B504460D46CBB1FFF7E8FF6E
:100C60001D2D0DD8FFF73EFE0646FFF73BFE801B0D
:100C700080B28542F9D8D4E90330BDE87040184706
:100C8000FFF734FE29182046BDE87040FFF76ABF21
:100C900070BD00002DE9F04704460E4615461AB90E
:100CA000BDE8F047FFF7D5BFFFF7EEFC63680746E6
:100CB0000BB9A36813B12046FFF712FFDFF830A08D
:100CC000FFF714FEDAF800808146FFF70FFE81453A
:100CD000F6D83618454428BF013520466660A56021
:100CE000FFF71AFE3846BDE8F047FFF7D5BC00BF56
:100CF0002805002070B50E4E0E4D00F055FB0E4C31
:100D00000321304600F035F90321284600F031F97F
:100D10000321204600F02DF9304600F080F92846E6
:100D200000F07DF92046BDE8704000F078B900BFC2
:100D300002140140050C01400A10014070470000F8
:100D400008B50F4B0C461A689AB9012203281A609D
:100D500003D171460B4804F03DFF21460A4804F0D8
:100D600039FF00F051FA094804F034FF084804F054
:100D700031FFFFF789FCFFF7E1FFFFF7ABFD00BF95
:100D80003C0500200A6D00080E6D0008366D000855
:100D90002A6D000808B500F055FE034804F01AFF5C
:100DA00000F038FC002008BD386D000808B500F0E0
:100DB000DFF9FCE71FB50024FFF766FC0D4B0F229F
:100DC0001B684FF4807102930B4B019400930B4806
:100DD0000C2300F03BF80A4B07221B684FF4C0615C
:100DE000CDE90143074B084800930C2300F02EF88F
:100DF000FFF7D4FA18020020AD0D000840050020CE
:100E00001C020020950D00084006002038B50B7923
:100E1000092B03D908490320FFF792FF4C7901F110
:100E20000802036813B98B60026038BD13F8035CD5
:100E3000AC42F8D31846F4E7F86C0008031F53F8E7
:100E4000042F9A42FBD0181A704700000F2A2DE990
:100E5000F74F05468B4691469A4633D810F0030368
:100E60000FBF0B46C3F10403ED18CB1A303B23F040
:100E700003031AF0080F05EB030419D12D6003E0FA
:100E800012600432A242FBD30193FFF7FDFB012263
:100E900080462749019B51F8226017B2AEB101325A
:100EA000212AF8D14046FFF7F7FB6FF08A073BE0B5
:100EB0002A46E7E701212046FFF7AEF94046FFF753
:100EC000EBFB31E06FF015072EE041F822402A4697
:100ED000DDE90C01E780FFF715FA0E9B154AA362C6
:100EE0004FF0FF33C4E9073613681AF0010F03F11E
:100EF000010320606562C4F82CB084F80590267167
:100F0000C4E90266C4E90466A6611360D2D10B216C
:100F10002046FFF781F91AF0040FCFD14046FFF7C2
:100F2000BBFB4846FFF7B8F9384603B0BDE8F08F81
:100F3000500400200C04002038B5054600F054FB96
:100F4000044605F1100000F0D1FD204638BDF8B58B
:100F500004460D46164600F1100732462946204643
:100F600000F02FFB00B1F8BD0121384600F08EFDE6
:100F7000F3E7FF29F8B504460E4620F00F0500F010
:100F80000F0727D00421C0F38323023B994001209F
:100F900000F034FA0F21FB1004F0070455F8232069
:100FA000A400A14022EA010245F8232055F82310AD
:100FB00006F00F0202FA04F40C4345F82340012323
:100FC0000020EA68BB40182E0CBF134322EA03033B
:100FD000EB60F8BD4FF0FF30FBE738B50D4604215C
:100FE000C0F383230446023B9940012000F006FA37
:100FF0000F2024F00F03C4F3C00204F0070453F8D9
:101000002210A400A04021EA000143F8221053F866
:10101000221005FA04F40C4343F8224038BD0123A2
:1010200020F00F0200F00F0003FA00F0106170478B
:10103000012320F00F0200F00F0003FA00F05061CE
:10104000704700002DE9F84F4FF0010900F00F053F
:1010500009FA05FA6FEA0A089B462E4C17462268E1
:10106000064602EA08022260FFF783FF2A4A0A9B2B
:1010700042F835B002EBC50253604946484600F0DD
:10108000BDF90F2005F00C0303F1804303F5803315
:1010900006F0030299689200904021EA00019960ED
:1010A000C6F383269968023E96400E439E60A3686D
:1010B000042D08EA0303A360A26807EA090303FA00
:1010C00005F343EA0203A360E36827FA09F708EA95
:1010D0000303E360E26807FA05F747EA0207E760FF
:1010E0000E4B0EDC063509FA05F51D60636800201D
:1010F00008EA0303636023684AEA03032360BDE848
:10110000F88F092DD5BF4FF400024FF480721A609A
:101110005A60EBE700040140400C002000E100E0D1
:101120002DE9F04100244FF001080E4D0E4F6E697D
:101130002A68164008FA04F3334206D06B6107EBC5
:10114000C40357F83420586890470134102CF1D16B
:10115000064B1B681BB1BDE8F041FFF723B9BDE8A2
:10116000F08100BF00040140400C00200804002072
:10117000F8B50C4D2E6816F47F4F11D1F4B200343F
:1011800018BF0124FFF780FA2B6807469E4202D160
:101190002046FFF769FB3846BDE8F840FFF77CBA08
:1011A0000224EFE72002002038B5094D04462B5CED
:1011B000FF2B03D107490320FFF7C2FDFFF764FAB5
:1011C0002B5D0133DBB22B55BDE83840FFF764BA25
:1011D00020020020F86C000838B5094D04462B5C4D
:1011E0001BB908490320FFF7ABFDFFF74DFA2B5D54
:1011F000013BDBB22B55BDE83840FFF74DBA00BFCD
:1012000020020020F86C00082DE9F04F2D4B8BB028
:101210001B882D4A2D492E48ADF8243004F0DAFC05
:10122000FFF7A2F80546FFF7B5F80446FFF7AEF85A
:101230002A46009023464FF40071264804F0CAFC69
:1012400001264FF40077DFF89C90DFF89CA0DFF8D0
:101250009CB025EAE57559F826401CB394F8048043
:10126000E26A5AF82830606A079317440692FFF73B
:10127000E5FD069AB4F90610101A22680544059295
:10128000626A079BCDE90302E26A584602926279DC
:10129000019209AAB8F1090FC8BF01320092A26AEF
:1012A00004F098FC0136212ED5D10B4BCDE9017508
:1012B00000930A4A19460A4804F08CFC0BB0BDE8BA
:1012C000F08F00BF7B6D00087D6D0008836D000806
:1012D000886D0008D06D0008566E0008586E000832
:1012E0005C6E0008500400207C6E00081A6E000836
:1012F00038B5FFF7C9F900231D4D0446AB6000F077
:101300003BF84FF480636B602B465A6812F00C0F69
:10131000FBD11221174A116081221A601A6842F427
:1013200080321A601A689103FCD55A6822F47C1244
:101330005A605A6842F4E8125A605A6842F400321D
:101340005A601A6842F080721A601A689201FCD5DD
:101350005A6842F002025A605A6802F00C02082AE7
:10136000FAD100F015F82046BDE83840FFF794B9EF
:101370000010024000200240044B1A6842F00102B3
:101380001A601A689207FCD5704700BF001002402F
:10139000044B5A6812F00C0F1EBF1A6822F00102AB
:1013A0001A6070470010024008B500F0C5FB4FF00E
:1013B0008051002000F022F8FFF79AFFBDE80840B6
:1013C00000F025B9034A044B00280CBF104618460C
:1013D000704700BF0051250200A24A04044A054B91
:1013E000002818BF1346044A105C5843704700BFDA
:1013F00000A24A0400512502076F000801280AD004
:1014000004D302280CD0BFF34F8F7047074AD3692B
:101410001943D161F7E7054A936919439161F2E7EE
:10142000024A536919435161EDE700BF00100240C1
:10143000012809D002D302280CD07047084AD3698A
:1014400023EA0101D1617047054A936923EA01014A
:1014500091617047024A536923EA01015161704763
:10146000001002402DE9F84307460024114A030109
:10147000D558DFF848802E69EB6808EBC0091E409C
:101480000223A340334209D0EA68214622EA03033B
:10149000EB60D9F8040058F8373098470134042C31
:1014A000EED1054B1B681BB1BDE8F843FEF77ABFD0
:1014B000BDE8F8830C6F000808040020C00C002071
:1014C000032910B516DC0D4B00011C181858636871
:1014D0001A4001F10C0300EB83035A6002230269F6
:1014E00003FA01F122EA01020261C3681943C160F3
:1014F000002010BD4FF0FF30FBE700BF0C6F00086D
:10150000024B00011B58586A704700BF0C6F00085F
:10151000034B00011A58136843F00103136070472E
:101520000C6F000801282DE9F84305460F4630D816
:10153000194E040106EB0408184998F80C9041F87C
:10154000302001EBC0014B604846D8F80810FFF787
:1015500055FF36590024D8F804303460484674608A
:10156000F362FFF73BFFB0FBF7F0012398F80D2083
:10157000013851B202F01F02B06273619340084A11
:101580004909284642F82130FFF7C2FF2046BDE84E
:10159000F8834FF0FF30FAE70C6F0008C00C002012
:1015A00000E100E00020FFF75DBF0120FFF75ABF18
:1015B00082680168531C83604368013B1340C85C28
:1015C0007047F8B505460F46164614461CB1AA6882
:1015D000EB689A4201D1301BF8BD2846FFF7E8FFBF
:1015E000013C07F8010BF1E7C26830B58468436835
:1015F000121B9A4208D0C2680468551CC5600020BE
:10160000013B1340E15430BD4FF0FF30FBE70020B9
:1016100002F0CEBB00B50648A1B004F063FB802207
:101620006946044801F0ACFA002021B05DF804FBE3
:10163000287000082C6F00082DE9F041054604468B
:10164000094FDFF828804618B44201D1BDE8F08187
:10165000A54202D0384604F0BDFA14F8011B4046FA
:1016600004F0B8FAF0E700BF886B00083970000892
:101670002DE9F043054689B00A2004F0C3FA5B4C1B
:101680002B687F225E68214603AB2846B047074699
:10169000204601F04FF9064628B9554804F022FBD0
:1016A00009B0BDE8F083534804F094FA7F21204646
:1016B000FFF7C2FF504804F08DFA02AA06A920469F
:1016C00001F0AAF901AA804604A9204601F054F9C4
:1016D0002378054603F00703032B6DD8DFE803F0FA
:1016E0000266686A454804F0FDFABDF808104448EF
:1016F00004F070FA414606A8FFF79EFFBDF80410FB
:10170000404804F067FA294604A8FFF795FF3E48D1
:1017100004F060FA2378354618074CBF3B483C4834
:1017200004F058FA3B4804F055FA2378DFF81C918E
:10173000D9064CBF3548364804F04CFA364804F018
:1017400049FA2378C6F101089A064CBF2F48304861
:1017500004F040FA314804F03DFA23785B064CBFB0
:101760002F48304804F0BEFA2F4804F033FA61786D
:101770002E48C1F3011104F02DFAA1782C4804F091
:1017800029FA0022B91BA01901F07CF9294804F0BC
:1017900021FABD4212D3184804F01CFA9DF80E201D
:1017A000BDF90C10244804F015FA79E723489AE7AC
:1017B000234898E7234896E7234894E7605DA0F123
:1017C00020035F2B88BF3F2004F01CFA4A2208EB5D
:1017D0000501B1FBF2F302FB1313012B04D1B54257
:1017E00002D0484604F0F6F90135D2E7D00C0020CB
:1017F0005570000878700008366D00088370000886
:10180000A2700008C3700008E3700008EF700008C1
:10181000F3700008F77000080571000810710008E7
:101820001C710008897200081E71000828710008E8
:101830002D71000837710008447100088A70000893
:101840008F700008937000089A7000083D710008BE
:1018500008B5074B1B6823B15868FFF709FF002044
:1018600008BD044804F0B6F94FF0FF30F8E700BFB8
:10187000540D00203E700008F7B507460E46154689
:1018800000F0CEFA28B9224804F02CFA012003B067
:10189000F0BD6946304600F0F5FA044630B91D49FE
:1018A000304604F06AFA78B11B48EDE70026284676
:1018B00004F06DFA002302462946184600F0B6FEF1
:1018C000054618B91548DFE78026F0E70021E3B2A6
:1018D0006A46084600F024FC044638B90F4804F074
:1018E00001FA2146284600F085FFCFE743680560EE
:1018F00001461E71384600F06AF9002805DC0848E8
:1019000004F0F0F900212046EDE70020BFE700BF1A
:1019100058710008777100087D7100089A710008FD
:10192000B47100082DE9F041804688B038480F4670
:1019300004F050F9374D384C286800F055FA28600B
:1019400078B10223B0F9200000220093272102ABD6
:10195000208000F049F90028EEDBBDF80830032BA9
:10196000EAD1B4F900102D4804F034F92C4804F001
:1019700031F90221B4F9000000912A4B002200F055
:1019800059F90228064614D108AD274804F022F977
:1019900025F8166D254804F01DF9B4F900000096ED
:1019A0002B460022052100F045F9022808D02048E6
:1019B00000E0204804F096F9002008B0BDE8F0816E
:1019C000194804F007F91C4A05AB10685168B8F1D2
:1019D000010F03C39068C8BF7D681860174BD8BF5C
:1019E00003AD18689B880390ADF81030B4F900205F
:1019F00005AB2946124804F0EDF805AA2946B4F9CA
:101A00000000FFF739FF084804F0E4F8D4E700BF0E
:101A1000506F0008540D0020500D0020676F000823
:101A2000756F000837700008A56F0008AA6F0008DE
:101A3000C86F0008886F0008167000082270000840
:101A4000E66F000808B501F04FF8FFF779F800F0ED
:101A5000D1FDBDE8084000F001B8000013B5074C07
:101A60000749204602F010FB0094064B02224FF477
:101A70008061054800F09AFC02B010BD58110020AA
:101A8000FC71000814720008580D002070B504465F
:101A90000D46FEF7F9FD236806463BB94FF0FF33CC
:101AA0002360FEF7F9FD0125284670BDC5B10E4B38
:101AB00002211D682846FEF7AFFB236801330AD1D7
:101AC00005F1080323600023AB603046FEF7E4FD18
:101AD000FEF768FCE7E729462046FFF797F9F4E7A9
:101AE000FEF7DAFDE0E700BF0404002070B504460D
:101AF000FEF7CAFD256806461DB9BDE87040FEF731
:101B0000CBBD6B1C02D100232360F6E7284650F8BA
:101B100008390B212360FEF77FFB236813B94FF0D0
:101B2000FF33236015F8034C3046FEF7B5FD204621
:101B3000BDE87040FEF7B0BB0C4B0D4A10B59A6083
:101B4000102200210B4C83F82220DA776018013133
:101B50003C2980F80023F9D11A6942F010021A6179
:101B60005A6942F400725A6110BD00BF00ED00E0F6
:101B70000000000800E100E02DE9F341044688463A
:101B800017461E4600F031FC054648B14146204646
:101B900000F026FC691E0446304600F019FE1CB910
:101BA000284602B0BDE8F081B4F908106846ADF8E7
:101BB0000270019603F086FA002803DC002130460B
:101BC00000F018FE204600F01EFC0446E7E740F255
:101BD000022307B5019101466846ADF8023003F0D3
:101BE00071FA03B05DF804FB00B589B006930A9B57
:101BF0008DF81410ADF81C304FF40173ADF81620B9
:101C0000ADF80630024605AB03A901A8029303F024
:101C10007DFA40F20523BDF80E209A4203D0044914
:101C20000320FFF78DF8049809B05DF804FB00BFAE
:101C3000F86C000800B589B006930A9B8DF8141063
:101C4000ADF81C3040F20323ADF81620ADF8063095
:101C5000024605AB03A901A8029303F057FA40F22C
:101C60000523BDF80E209A4203D004490320FFF754
:101C700067F8049809B05DF804FB00BFF86C000831
:101C8000036810B45C69034AA44601231C2110BCFC
:101C9000604700BF6772000873B5837F0446033B4B
:101CA000012B456826D82B680DF106021E69052117
:101CB00002232846B047022803D012490320FFF729
:101CC0003FF8BDF80630082B0CBF03210221237713
:101CD0002B6804F114021E6928460823B04710F14E
:101CE000860F09D02369002843F00103236107DC34
:101CF00002B070BD0221EBE7237F002BF8D0DCE7B8
:101D00002077F5E7F86C0008A0F130020346D0B266
:101D1000092802D8114608467047A3F14102052A56
:101D200002D8A3F13701F6E7A3F16102052A98BFB3
:101D3000A3F15701EFE7000013B5806891B941F2B4
:101D40003423ADF800100190B0F920106846ADF8CA
:101D5000023003F095F9002802DC0E4803F0C2FFC0
:101D600002B010BD0229FBD103689B689847044666
:101D70000028F5D00346084940F2012290F91000EE
:101D8000FFF7FAFE01460028EAD1204600F032FDB6
:101D9000E6E700BF1E7200080000FFFFF0B585B047
:101DA0000A9E0E4CD4E90057B74213D025B9C4E9B6
:101DB00002550B9D25601FB109490320FEF7C0FFA6
:101DC000CDE90143074B666000930823FFF73EF817
:101DD0000028F1DD014805B0F0BD00BF98110020DA
:101DE000F86C0008411F000808B50A4B58B198422A
:101DF00003D209490320FEF7A3FF2430074B984282
:101E000003D3002008BD1846F8E70268002AF9D17C
:101E10002430F4E798110020F86C0008BC11002071
:101E200010B504460020FFF7DFFF18B1B0F92030ED
:101E3000A342F8D110BD00002DE9F84380460E46BC
:101E400015460AB120B919B10D490320FEF778FFF4
:101E500000242F462C7006F1FF39B44202D12846E7
:101E6000BDE8F88318F80410384603F0D5F9A14509
:101E700014BF3A2300233844471C03700134ECE7B5
:101E8000F86C00082DE9F84F80460F4619B924492F
:101E90000320FEF755FF18B900252846BDE8F88F46
:101EA0000378002BF8D003461E4675780133002DC9
:101EB000FAD13C464FF001094FF0FF313078FFF77F
:101EC00023FFB0F1000B06F1FF3A15DAB9F1000F6C
:101ED000E2D14FF00109C2450CD2B9F1000FDBD1BC
:101EE000013CA742D9D223783A7804F8012907F8AF
:101EF000013BF6E75646DFE7D0450FD8002116F83C
:101F0000010CA6F1020AFFF7FFFE4BEA001B84F862
:101F100000B0013501344FF00009DCE70020F4E7A0
:101F2000F86C000820B1036813B1083002F06ABFF2
:101F3000704720B1036813B1083002F067BF7047E3
:101F40002DE9F04140F205230026044694B0CDE986
:101F50000066ADF80230FFF7E5FF394B08211B881A
:101F600004A82384656803F031F9364B2846C5E997
:101F700001342B689B689847011E55DB2846FFF704
:101F80007FFE606802AA036827211E690223B0470A
:101F9000022803D02C490320FEF7D2FEBDF80830FA
:101FA0002046A377FFF778FE4023637723681B68FA
:101FB0000BB1204698472046FFF7BBFF40F20326AF
:101FC00041F2342740F2022802A803F0FBF8BDF8E2
:101FD0000A30B3421AD0B3F5017F09D243450FD07E
:101FE00023685B69002BEFD002A920469847EBE7F6
:101FF00017D0BB42F4D12B682846DB689847E3E74B
:10200000236803995B6820469847DDE723681B69CE
:102010000399204698476946019002A803F0A4F866
:10202000D2E72368DB68F3E7084803F0D3FD3046C6
:10203000266026846660C5E9016614B0BDE8F081BB
:1020400000040020391D0008F86C000843720008E5
:1020500070B50C460546FFF765FF217823890729EF
:102060000ED1012B03D00A490320FEF769FE6268F6
:102070001C46697F11702846FFF75BFF204670BD44
:102080006868026816696268B0470446F3E700BFF3
:10209000F86C000870B50E460546FFF743FF31782F
:1020A000338907290DD01A29686815D00268546948
:1020B0007268A047041E1EDC2846FFF73AFF204640
:1020C00070BD012B03D015490320FEF739FE72685D
:1020D00012786A770124EFE7726829691478012C75
:1020E0000CBF41F4803121F48031296101684C69D1
:1020F0001A21A047EEE73378022BDDD3052B09D94F
:10210000192BD9D173681B78052BD5D16868FFF7D7
:10211000B7FDD1E72846FFF7BFFDCDE7F86C000813
:102120002DE9F041174603F108020A440E4600214A
:1021300080461C4608464FF0FF3300F077FA05460C
:10214000E0B1002340680670447043808380C38000
:10215000B8F1000F05D026B132464146083003F0F1
:1021600080FC5FB154B168684378A34206D103781C
:10217000224608333946184403F073FC2846BDE86C
:10218000F0810000F0B5456891B02B7FEA8903F03B
:102190002803ADF818200E4621B96FF0150420462B
:1021A00011B0F0BD91F9102001323CD149680F798E
:1021B000FA060A7854BF43F0010443F0110417F003
:1021C000C00F03BF02F108035B1891F801C04FF084
:1021D000020C18BF154B12B30831A87E471CAF760E
:1021E000CDE90340BDF818000AAFADF80800ADF81E
:1021F0000400CDF800C0384600F00AFB0028CCD01F
:1022000033680990CDE907372B6807A91B68284672
:10221000984700210446304600F0ECFABFE7027F01
:1022200000F11401D9E76FF04C04B8E780720008A0
:102230002DE9F043456887B02B6807465C680023AA
:1022400028461A461946A0470228064640F3A180B0
:10225000002302461946184600F0E8F92B680446A8
:1022600048B95F680146034632462846B8472046CB
:1022700007B0BDE8F083D3F80480416801AB324673
:102280002846C047B0F1000805DC0021204600F0D8
:10229000B1FA0024EBE73F6917F480371FD0002321
:1022A0001A4619461846FFF73BFF05460028ECD0B2
:1022B00043689DF806205A71BDF80420DA803A4A36
:1022C00012885A800023036023461A682AB91D60C9
:1022D0004146204600F02AFAC9E71346F5E7606850
:1022E00000F028FB0028D0D00146A8EB00083A46B1
:1022F000204600F0B5F906460028C6D047686A4671
:1023000004A9384600F088FB81466A4602A938468F
:1023100000F032FBB9F1000FB7DB0028B5DBC1B22A
:102320005FFA89F304AA02A8FFF7FAFE074600281D
:10233000ABD0B9F1020F43680BD19DF81020FF2AF2
:1023400007D19DF81120FF2A03D11A7962F07F028C
:102350001A719DF8062018215A71BDF804202846EC
:10236000DA80114A12885A802B6804F11002D3F8DF
:1023700010900123C8473146204600F04AF8002358
:102380003B60234600E013461A68002AFBD11F6019
:102390009EE700287FF77DAF2B6802465C6800232C
:1023A00028461946A04774E70004002013B5044CE2
:1023B0000194049C0094FFF7F1FC02B010BD00BF33
:1023C0006872000840B901B17047044B186800B941
:1023D000704743689342FBD00068F8E7BC110020C7
:1023E0000A4601460020FFF7EDBF70B50546002004
:1023F0000E46044632462946FFF7E4FF08B9204658
:1024000070BD0134F6E718B142680021FFF7DABF6A
:10241000704710B504468C42084606D12468002156
:10242000016000F0E7F9204610BD23461A68002A33
:10243000F5D0824202D102681A60F0E71346F5E750
:10244000002170B5174A0730136820F0070003B366
:102450005C68844210D3241A072C1844124E0ED9FB
:10246000C6F108050544B5F5C05F16D90021116015
:102470001A68C0E9002405E019461B68E7E71C68F4
:1024800049B91460094A801B118880B2814200D288
:102490001080184670BD0C60F4E709B91060E7E7DA
:1024A0000860E5E7C0110020C8110020C8290020FD
:1024B00008B502490320FEF743FC00BFF86C000892
:1024C00001210148FFF7E2BAC411002038B51D4BC5
:1024D000C31AB3F5C05F1FD200231B4C22680AB198
:1024E00082421AD3073121F007010260174A4518CA
:1024F000521B072A98BF891841608BB92060036876
:1025000053B1426802449A1A072A05D81A68026031
:102510001A1A5B681344436038BD13461268DEE73D
:102520005A6818601A44821A072AE8D808B9FFF7CF
:10253000BFFF0268C11A1A60426818460A445A600E
:10254000DDE700BFC8110020C0110020C82900200D
:102550002DE9F843814614200F4616469846FFF7AA
:102560006FFF044650B166B13046FFF769FF05467C
:1025700040B920461421FFF7A9FF2C462046BDE8AC
:10258000F88335460123C4E90095A66084F81080DD
:10259000E360002FF2D032463946284603F061FA54
:1025A000ECE70000F8B504460026104D04B9F8BD6C
:1025B000631BB3F5C05F01D3FFF77AFFE3681BB974
:1025C0000B490320FEF7BCFB012B27680AD1D4E995
:1025D0000101E660FFF77AFF14212046FFF776FF3E
:1025E0003C46E3E7013BE360FAE700BFC811002087
:1025F000F86C000808B5FFF763FF094B094A18217A
:102600001360002259711A705A709A70DA701A7138
:102610009A71DA710448BDE80840FFF767BA00BF55
:10262000C8110020C0110020C4110020B2F5C05F05
:10263000F8B505460E4614461F460DD8FFF740FF75
:1026400022463B4631462846FFF782FF04460348B0
:10265000FFF74CFA2046F8BD0024FBE7C411002028
:102660002DE9F8430D4604469146FFF729FF2DB1A9
:1026700024B1A368AB4201D3636833B92A48FFF79A
:1026800035FA00263046BDE8F8831420FFF7D8FE5F
:1026900006460028F2D0A26895423DD0EB1D23F0FB
:1026A00007039D4238D22846FFF7CAFE074620B9E5
:1026B00014213046FFF70AFFE0E7A068401BFFF750
:1026C000BFFE804630B914213046FFF7FFFE294691
:1026D0003846EFE72A466168384603F0C2F9D4E984
:1026E00001124046521B294403F0BBF9D4E9010111
:1026F000FFF7ECFEC4F80480A3680B485B1BA360E3
:102700002368B560C6E90037012386F81090F360AE
:102710002660FFF7EBF9B5E7954208BF002367682D
:1027200018BF7B196360E7E7C411002070B5044649
:102730000D46FFF7C5FE1CB922490320FEF700FB3A
:10274000D4E9010141B90028F6D1A9420CD11E48B3
:10275000FFF7CCF9002019E00028EDD01B4BC31A7D
:10276000B3F5C05FF1D3E7E72DB9F0B1FFF7AEFEE7
:102770006560A560EBE7A94217D22846FFF760FE27
:10278000064620B91048FFF7B1F90C2070BD61680A
:1027900029B1A268AA4228BF2A4603F062F9D4E907
:1027A0000101FFF793FE6660E3E7EB1DCA1D23F00E
:1027B000070322F007029342DBD2C91A1844FFF73D
:1027C00085FED6E7F86C0008C4110020C81100206F
:1027D00038B504460D46FFF773FE24B9BDE838400E
:1027E0000348FFF783B9E3682B44E3602468F4E708
:1027F000C411002010B50446FFF762FE2046FFF723
:10280000D1FEBDE810400148FFF770B9C4110020A7
:10281000F8B5044610259DF824000F461E46657045
:10282000069B9DF8281000F0070C2070154602B199
:102830001FB1002B6ED0002E72D100252846F8BDA6
:10284000BCF1020F71D1A170002B67D09DF8202040
:10285000022BE2709DF8212022710ED0082B32D07D
:10286000002BEAD1052365B39DF81C105A1CE154D6
:102870009DF81D100233A1541DE01A462C49304624
:1028800003F0E0F818B9237823F02003237063786D
:1028900043F008036370737863713378A37107237F
:1028A0007DB1BDF81C10BDF820209142DCD122780A
:1028B00042F040022270022D12D0082D1BD0002DB4
:1028C000BBD11D46BAE71C23221D637006F1080325
:1028D00013F8011DB34202F8011FF9D10D23DFE700
:1028E000627862F07F02627079785A1CE15439781C
:1028F0000233A154E5E7627862F03F02627007F1AB
:1029000008021C4412F8011DBA4204F8011BF9D157
:102910000833D6E7BCF1000F92D1A1700323A2E7E0
:1029200010F0050F8FD1A17090E7002D8BD185E7B6
:10293000807200084278014602F00C03082B11D087
:102940000C2B11D0B3B90078400613D4032012F039
:10295000C00210D00B785B0658BF0230802A05D128
:10296000023070470720F2E70D20F0E7C02A01D1BE
:10297000083070470020704770B501B11AB9254979
:102980000320FEF7DDF9437803F00C03082B08D190
:1029900003785C0603D5C37813700379537007235B
:1029A0000FE00C2B08D103785B0603D5C3781370B6
:1029B000037953700D2304E043BB03785E0625D4EE
:1029C0000323447814F0C0041CD005786D0605D4A8
:1029D000C65C5D1C1670455D02335570802C13D1AA
:1029E000C25C034402204A705B780B7070BD0344E4
:1029F00001F1080213F8010B02F8010D8A42F9D126
:102A00000820F3E72046F1E7C02CF0D06FF0150066
:102A1000ECE700BFF86C000808B501B11AB9184915
:102A20000320FEF78DF9437803F00C03082B09D13E
:102A3000C37813700379537043794B708379022004
:102A40000B7008BD0C2B0ED1C378137010F8043F27
:102A5000537001F1080310F8012F03F8012D8B4288
:102A6000F9D10820EDE73BB9037813F0400F14BF0C
:102A70006FF015000020E4E76FF01500E1E700BFFC
:102A8000F86C00082DE9F0471546814614480F46BA
:102A900002F01AFC002D08BF10250024DFF844A026
:102AA00007F1FF38BC4201D1BDE8F087504602F083
:102AB0000BFC661C19F8040002F0EEFBB6FBF5F304
:102AC00005FB13630BB1444507D10A2003F09AF8C4
:102AD000444502D0304602F0EBFB3446E2E700BF4B
:102AE000827200084171000807B504210DEB010056
:102AF00002F016FC019800F003F803B05DF804FB47
:102B00000146014801F096BACC290020134970B55E
:102B1000D1E901460A6884EA0603C86822F0004247
:102B20005A4082EA420280EA500050400D6940F368
:102B300000031D4075404D604D6982EA80222B40A4
:102B400053400C608B6004EB13238C69C8605840C1
:102B500043F300032340584070BD00BFCC29002040
:102B600008B53E2003F04EF8202003F04BF8034B4D
:102B70001B689868BDE8084002F036BE28020020B5
:102B80002DE9F04F83B000AF06460D463A604FF096
:102B90000008FFF7E5FF2C463B6803F1FF39631B94
:102BA0004B4580F2F98002F017FF031EC0F2F4805B
:102BB0000D2B01D00A2B1BD184F800800D2003F0CF
:102BC00021F80A2003F01EF8A5420ED000202B4663
:102BD0008346197820292FD9222901D0272936D1D7
:102BE0005C78F4B96E4803F07DF8FFF7B9FFD2E7DF
:102BF000082B01D07F2B10D1A542D0D004F8018C36
:102C0000082002F0FFFF202002F0FCFF082004F162
:102C1000FF3B02F0F7FF5C46C1E704F1010B2370B4
:102C2000F7E75C2C0DD001331C788C42D8D1597851
:102C30002029D7D80BF1010B1C78CCB103F8018BFC
:102C4000C7E79C78002CCDD001300233ECE71C782C
:102C500059785C2C0AD101300029C3D0591C4B1C77
:102C600049782229BED02029F1D8E3E71946F6E7B2
:102C7000BBF1000FB9D04FEA8B030E3323F00703EB
:102C8000C7F804D0ADEB030DEA46AC464AF82B403A
:102C90009CF8003061460CF1010C002BF8D0222B7F
:102CA00001D0272B00D101314AF824108C469CF822
:102CB00000300131002BF9D101345C45E8D1AAF193
:102CC000040C10B15CF8041F91B9DAF80090D6B189
:102CD00034462068B8B1494603F04FF800283BD08D
:102CE0000C34F6E75C2B03D123783BB90138ECD0E8
:102CF0000C4611F8013B002BF4D1E2E794F801E017
:102D000004F801EBF0E7274CF4B9DAF80010264894
:102D100003F033F8002839D1244A2549254802F028
:102D200059FF254802F0DEFFFEB1DFF8889006F17A
:102D30000C040C3454F8181CB9B154F8142C48463F
:102D400002F048FFF5E70C3420680028DDD0494642
:102D500003F013F80028F6D1A468002CD5D0514612
:102D60005846A047D7F804D03FE70E4C002CF9D0C6
:102D7000DFF840900C340C3454F8181C0029F1D0C2
:102D800054F8142C484602F025FFF4E7DAF8001056
:102D90000A4802F01FFFE5E70C37BD46BDE8F08F9B
:102DA0008B72000810730008A4720008A972000852
:102DB000B5720008BD720008C7720008EF72000803
:102DC00008B502F017FA002008BD08B5FEF71CFA96
:102DD000002008BD012838B511D10C4D00202C6809
:102DE000FEF78EFB2B689C42F8D10443214608482D
:102DF00002F0F0FE2046FFF783FE002038BD486851
:102E000002F03DFC044601460248F1E72C05002093
:102E10005A7400088074000808B5FFF777FE014671
:102E2000024802F0D7FE002008BD00BF557400081C
:102E3000013810F8013F0BB901207047303B092BD6
:102E4000F7D900207047000017283AD012D805287B
:102E50002BD007D8022823D0032824D000283CD127
:102E60001E481EE0072826D027D3102827D0112877
:102E700021D070472C2828D007D8282819D02928F5
:102E800021D0222829D116480BE034280FD002D8AF
:102E90002D281CD070473A281BD03B281BD07047E8
:102EA000104802F097BE1048FBE71048F9E71048B9
:102EB000F7E71048F5E71048F3E71048F1E7104846
:102EC000EFE71048EDE71048EBE71048E9E7104856
:102ED000E7E71048E5E71048E3E770472F70000880
:102EE000E07C0008587C0008687C0008757C0008BD
:102EF0008B7C00089D7C0008A27C0008A67C000852
:102F0000B97C0008CB7C0008ED7C0008047D00083B
:102F1000AF7700080F7D0008197D000808B501464D
:102F2000034802F057FEBDE80840024802F0DABE4E
:102F30002A7D00084F7D0008F8B501460C4802F0D4
:102F400049FE00240B4D0C4E0C4F55F83410304602
:102F500002F040FE0E2C02D0384602F03BFE013457
:102F60000F2CF2D10648BDE8F84002F0BBBE00BF0E
:102F7000A274000880820008B9740008566E000828
:102F8000BC740008A0F13003DAB2092A01D818464F
:102F90007047A0F16103DAB2052AF8D94138C3B20B
:102FA000052B88BF4FF0FF30704700007FB500252C
:102FB000164601221C4604AB03F8015D00922A4626
:102FC000FEF712FEA8420EDB9DF80F30012B0AD14E
:102FD00031460648013402F0FDFD082C03D90448AF
:102FE00002F0F8FD2C46204604B070BDB97400080C
:102FF000DA7A00082DE9F04188B00146044602AFB4
:10300000B44802F0E7FD082302210093002207F1F3
:1030100010032046FEF7E8FD011E11DB01EB410322
:10302000073323F007036D46ADEB030D02AA07F14A
:103030001000FEF701FF0146A74802F0CBFDAD46A8
:10304000022300220093114607F108032046FEF7F1
:10305000CBFD002803DB3989A04802F0BBFD042327
:1030600000220093342107F10C032046FEF7BCFD3B
:10307000002803DBF9689A4802F0ACFD0223002225
:103080000093282107F108032046FEF7ADFD002834
:1030900003DB3989934802F09DFD0223002200934F
:1030A000062107F108032046FEF79EFD002803DBFA
:1030B00039898D4802F08EFD0123002200933A21C8
:1030C0007B1D2046FEF790FD002806DB7A79874BB2
:1030D000874853F8221002F07DFD0123002200935F
:1030E0003B217B1D2046FEF77FFD002803DB79791D
:1030F000804802F06FFD0123002200933C217B1DDC
:103100002046FEF771FD002806DB7A797A4B7B4872
:1031100053F8221002F05EFD794802F05BFD0823AF
:1031200000220093032107F110032046FEF75CFD07
:10313000051E1ADB05EB4503073323F007036E4634
:10314000ADEB030D0DF108086E4802F043FD424659
:10315000294607F11000FEF76FFE01466A4802F0AB
:1031600039FD6748B54602F035FD02230022009381
:10317000102107F10A032046FEF736FD002804DB84
:10318000B7F90A10614802F025FD0125BB1D009525
:10319000002219212046FEF727FD002836DBBA79E8
:1031A0005B4B5C4853F8221002F014FD012300220F
:1031B000009317217B1D2046FEF716FD002804DB37
:1031C0007979554802F006FD013501267B1D0096F0
:1031D000002222212046FEF707FD002818DB0022EE
:1031E00007F1180303F8112D212100962046FEF760
:1031F000FBFC002806DBFB79B34203D17979474811
:1032000002F0E8FC3E4802F0E5FC03E00025CDE7D3
:10321000002DF7D10023424A13212046FFF7C6FEB6
:10322000404A034614212046FFF7C0FE3E4A0346AB
:1032300016212046FFF7BAFE3C4A034612212046DB
:10324000FFF7B4FE3A4A03461A212046FFF7AEFEC6
:10325000384A034625212046FFF7A8FE364A034692
:1032600021212046FFF7A2FE344A00F109031F2165
:103270002046FFF79BFE324A03463E212046FFF7D9
:1032800095FE304A034637212046FFF78FFE2E4A2F
:10329000034635212046FFF789FE022305460093A9
:1032A000002207F1080305212046FEF79DFC0028B7
:1032B00004DB3989254802F08DFC013515B1104831
:1032C00002F088FC224802F00DFD1837BD46BDE82B
:1032D000F08100BF8E79000899790008A67900086E
:1032E000B5790008C8790008D47900081C7C00086A
:1032F000E0790008EC790008287C0008F5790008DE
:10330000DA7A0008FE790008FA7900080C7A0008D9
:103310003C7C00081F7A00082B7A00083F7A0008DE
:10332000527A00085C7A0008667A0008707A000811
:103330007A7A0008847A0008937A00089A7A00085A
:10334000A27A0008AC7A0008B67A0008BF7A0008B2
:10335000376D00087FB505460C46104602A9164693
:10336000FEF790FD28B9124802F0BCFC012004B021
:1033700070BD009002AB002221462846FEF75AFCA1
:10338000002807DA0B4802F025FC2046FFF75CFD19
:103390000948E9E7094802F01DFC2046FFF754FD03
:1033A00032462946064802F015FC0020DFE700BF40
:1033B000E67A0008597B0008376D00086F7B00082B
:1033C0007D7B00087FB5064610460D46012402F0BD
:1033D00056F904AB03F8010D00220094294630464B
:1033E000FEF728FC00280BDA0C4802F0F3FB284615
:1033F000FFF72AFD0A4802F075FC204604B070BDB4
:10340000084802F0E7FB2846FFF71EFD9DF80F2055
:103410003146054802F0DEFB0020EFE7597B00084B
:10342000376D00086F7B0008037C00087FB50646F7
:1034300010460D461446FFF7FBFC014668B10A2210
:103440000021204602F0B6FD0390013023D11E4832
:1034500002F048FC012004B070BD1022204602F0AA
:10346000A9FD03900130F2D00124039BB3F5803F06
:10347000EDD2022300220093294603AB3046FEF72B
:10348000D9FB002809DA114802F0A4FB2846FFF70F
:10349000DBFC0F48DCE70024E7E70E4802F09AFB6C
:1034A0002846FFF7D1FC31460B4802F093FB039905
:1034B00024B10A4802F08EFB0020CCE7084802F055
:1034C00089FB2046C7E700BF967B0008597B0008B0
:1034D000376D00086F7B0008E47B0008FA7B00086A
:1034E0005574000810B504460146094802F072FB05
:1034F0002046FFF713FD2046FFF71EFD2146054835
:1035000002F068FB2146BDE81040034802F062BBB0
:1035100006820008118200085D82000803282DE958
:10352000F3410C4607DC0968294802F053FB0120EF
:1035300002B0BDE8F081486802F0A1F806B230465A
:10354000FEF76EFC18B9234802F0CCFBEFE76946A2
:10355000A068FEF797FC804630B91F49A06802F0CA
:103560000CFC80B11D48EFE70027E468204602F01C
:103570000EFC0023024621461846FFF757F8054681
:1035800018B91748E0E78027EFE700215FFA88F3D2
:103590006A460846FEF7C4FD044638B9104802F0F2
:1035A000A1FB21462846FFF725F9C0E743680560DF
:1035B00001461F713046FEF70AFB002805DC09486A
:1035C00002F090FB00212046EDE70020B0E700BFAD
:1035D0006579000858710008777100087D7100084E
:1035E0009A710008B47100082DE9F04F012887B0E6
:1035F000804602AF0D4628DD4A681046FFF718FCEA
:103600008146002800F0AD83104602F038F806B27B
:103610003046FEF705FC002800F0A183B8F1020F48
:1036200015D13046FFF7E6FC002409E0B4F920008C
:10363000FFF7E0FC2046FEF7D7FB04460028F5D153
:1036400020461437BD46BDE8F08F0024F2E7B149AB
:10365000A86802F092FB0446002840F0C082B8F14E
:10366000040FD5F800A004DC5046FFF757FC0124F6
:10367000E6E7D5E90385A848414602F07EFB30B96C
:103680002A4602213046FFF765FE0446D8E7414648
:10369000A24802F072FB0028F2D04146A04802F096
:1036A0006CFB10B92A460321ECE741469D4802F025
:1036B00064FB28B92A4629213046FFF783FEE4E758
:1036C0004146994802F059FBF8B92846FFF7B0FB8C
:1036D0000146002834D12022284602F06BFCF86015
:1036E000013035D0042300220093342107F10C036C
:1036F0003046FEF79FFA002831DA8C4802F06AFA69
:103700008B4802F067FA8B4823E041468A4802F072
:1037100034FB0028D9D04146884802F02EFB00280F
:1037200031D12946864802F028FB002839D02946A5
:10373000844802F022FB002846D101233B7331E08C
:103740000A220021284602F035FCF860013003D13E
:103750007D4802F0C7FA8AE74FF00009C2E77B48CC
:1037600002F038FA724802F035FA3146784802F031
:1037700031FAF968B9F1000F03D0764802F02AFA5D
:103780005EE77548FAE74146744802F0F6FA002809
:10379000C7D04146724802F0F0FA20BB2A463B21CE
:1037A0008AE738734FF0010807F10C03CDF8008069
:1037B00000223A213046FEF73DFA00280DDA29466C
:1037C000684802F007FA52E72946674802F0D5FA3E
:1037D00008B90223B2E76548BBE72A463146644888
:1037E00002F0F8F92CE74146624802F0C6FA0028D8
:1037F000D4D04146604802F0C0FA58B929465F4823
:1038000002F0BBFAB8B129465D4802F0B6FA20BB17
:10381000022311E041465B4802F0AFFA0028EDD0E8
:103820004146594802F0A9FA58BB2A4600213046C1
:10383000FFF7FCFD29E701234FF001083B7300224D
:10384000CDF8008007F10C033C213046FEF7F2F979
:10385000002812DA29464D48B3E729464C4802F0C1
:103860008CFA08B90323E7E729464A4802F085FAAB
:1038700008B90423E0E748486BE72A463146474841
:10388000AEE74146464802F078FA0028CDD04146DE
:10389000444802F072FA10B92A4622210CE7414648
:1038A000414802F06AFA10B92A46072104E7414666
:1038B0003E4802F062FA0028F6D041463C4802F049
:1038C0005CFA0446002840F0BD80284602F05FFA0A
:1038D0004FEA500909F1070323F00703EA460E28CF
:1038E000ADEB030D83460DF1080867D1314802F0B6
:1038F00071F900218B457BD8CDF80090434600221A
:103900002D213046FEF796F9002880F289802A485A
:103910007CE000BF33780008C1740008C67400085A
:10392000D1740008DB740008E9740008597B0008B2
:103930008B7C0008376D0008F37400080F7D0008C9
:10394000467500084D750008F87400086F7B000884
:10395000E47B0008FA7B0008557400084A750008EB
:10396000D775000882750008517500085575000864
:10397000A8750008E8750008EB750008F7750008E1
:10398000FE750008FB7500082F7000083B760008E4
:1039900002760008067600080A76000863760008BA
:1039A0009476000899760008A6760008A9760008A3
:1039B00096770008B37600089A770008102801D19E
:1039C000994894E7202801D1984890E7302801D100
:1039D00097488CE7402801D1964888E7802801D194
:1039E000954884E7954802F0F5F80124D54627E686
:1039F000685CFFF7C7FA6A1878605078FFF7C2FA78
:103A00007B685A1C01D0421C03D18D4802F06AF930
:103A1000EBE74A0800EB031008F80200023169E7FF
:103A20003146884802F0D6F8874EC144C14503D1DB
:103A3000864802F057F9D9E718F8011B304602F022
:103A4000C9F8F3E74146824802F097F910B92A46CF
:103A50000621ECE641467F4802F08FF90028F6D0B7
:103A600041467D4802F089F90028F0D041467B4864
:103A700002F083F910B92A462821D8E64146784851
:103A800002F07BF90446F8B9284601F0F8FD02225D
:103A900007F1100323F8040D10210092304622464E
:103AA000FEF7C8F8002804DA6E4802F093F86E4872
:103AB00027E66E4802F08EF86B4802F08BF8B7F9F3
:103AC0000C2031466A488BE641466A4802F055F9B7
:103AD00010B92A461721EFE54146674802F04DF933
:103AE00010B92A460521A2E64146644802F045F98C
:103AF000044600287FF4B8AD2946614802F03DF93C
:103B000090B9002301253B73002207F10C030095B7
:103B100019213046FEF78EF800285A4B3A7B59DAC5
:103B200053F8221058484CE62946584802F025F927
:103B30000028E6D02946564802F01FF908B90123AB
:103B4000E0E72946534802F018F90028F7D0294643
:103B5000514802F012F908B90223D3E729464F4829
:103B600002F00BF90028F7D029464D4802F005F97C
:103B700008B90323C6E729464A4802F0FEF80028A0
:103B8000F7D02946484802F0F8F808B90423B9E705
:103B90002946464802F0F1F80028F7D02946444863
:103BA00002F0EBF808B90523ACE72946414802F0DA
:103BB000E4F80028F7D029463F4802F0DEF808B9BB
:103BC00006239FE729463D4802F0D7F80028F7D0A2
:103BD0003B48BEE553F8222031463A4800E63A49D0
:103BE000A86802F0CAF838B9B8F1030F02D1296801
:103BF0003648E6E53648ACE53649A86802F0BDF837
:103C000038B9B8F1030F02D129683348D9E53348F0
:103C10009FE53349A86802F0B0F80446002861D156
:103C20002868FFF75FFC0BE5D0760008ED7600080A
:103C30000B770008297700084777000865770008A8
:103C40007F770008BE77000839700008376D0008DC
:103C5000F0770008F4770008F87700089D7C0008EA
:103C6000FF770008597B0008B97C00086F7B0008CB
:103C7000037C0008057800080D7800087D6D0008B9
:103C8000157800083C7C0008947800081978000832
:103C9000248300081D780008716D0008237800084F
:103CA000C96E0008287800082B7800082E780008D4
:103CB00031780008377800083D780008457800081A
:103CC0004D780008B6780008E178000811820008F5
:103CD000E5780008087900085D8200080C79000882
:103CE000A4720008D5F808802A6898F800300025EA
:103CF0002D2B0CBF4FF0000A4FF0010ADFF8809027
:103D000008BF08F10108414659F835007A6002F011
:103D100034F84FEAC50B04467A68C8B9012507F1A3
:103D20001003D94403F804AD024699F80410009535
:103D30003046FDF77FFF002801DA0C4809E5397BA2
:103D40000B4A0C4B0C4800290CBF1146194615E5CF
:103D500001350F2DD7D11046FFF7EEF887E407485D
:103D6000F7E40868FFF7BEFB81E400BF3279000882
:103D7000BE740008376D00084E79000858710008BD
:103D80008082000810B51C24084B0B2104FB003472
:103D9000E068FDF722F960680B21FDF71EF9A068C5
:103DA0000421BDE81040FDF7E4B800BF6C830008B3
:103DB00010B5044618B10C490320FCF7C1FF0B4BAA
:103DC0001860FFF7DFFF20464FF48041FDF716FB38
:103DD000074B20461C604FF48041DC615C60BDE80D
:103DE0001040FDF725BB00BFF86C0008E829002053
:103DF0000038004010B50C46A8B94B1C16D021F075
:103E0000FF0313F5807F02D111F0FF0F0ED114F5DF
:103E1000807F0BD003212046FDF7ABF82046FDF74D
:103E2000FEF8002010BD4FF0FF30FBE76FF00100FF
:103E3000F8E700002DE9F84305461C2618486E43B4
:103E400098460F46DFF86090012100EB850014468C
:103E5000FDF71CFE0120FDF7A7F909EB06031D7E07
:103E600059692846FDF7CAFA0E4A05EB850515443F
:103E700015F8082059F8061044EAC20444F0040476
:103E800017F5807F0C6015BF0B684B6843F44073D7
:103E900043F0040314BF0B604B600020BDE8F883BF
:103EA000E8290020888300086C8300081C23434312
:103EB0000C4A10B50446D018D35800221A605A682C
:103EC000416922F004025A60007EFDF7B1FA012038
:103ED000FDF782F9044800EB8400BDE81040FDF7CF
:103EE00005BE00BF6C830008E82900202DE9F843D7
:103EF0008846DDE9086791461D4623B91EB9324957
:103F00000320FCF71DFF1C235843304B18F5807F1E
:103F10001C58236843F04003236005D0B8F1FF3FED
:103F200002D04046FDF784F866BB2F44BD4220D145
:103F3000A3689807FCD5A3681906FCD4A368DA0720
:103F40001ED4A3689A07FCD5A3681B06FCD4B9F15C
:103F5000000F37D1B8F1FF3F34D0236818F5807FC8
:103F600023F0400323602DD04046BDE8F843FDF721
:103F700056B8A3689E07FCD515F8013B2373D5E717
:103F8000E368DBE7E5B930463744B842D9D0A368E7
:103F90009B07FCD52573A368DE07FCD5237B00F8BF
:103FA000013BF2E7A2689007FCD5EA5C2273A268A5
:103FB000D107FCD5227BF25401339F42F2D1C0E7F6
:103FC0000023FAE7BDE8F883F86C00086C8300086A
:103FD000036830B5D0E90115C26881EA050423F011
:103FE0000043634083EA430382EA52025A4042F3A9
:103FF000000483EA82230160C260016942692140B2
:104000001440694063404160836030BD036833F011
:1040100000430DD143685BB983684BB9C3683BB9B2
:10402000492354224E21C0E900235923C0E9021339
:104030007047000038B501250369044643604369B1
:10404000016083608369C3600E486B1E03F0030345
:1040500054F8233005F0030183EA937300FB035304
:1040600054F8212001355340082D44F82130ECD17B
:104070002046FFF7CBFF2046FFF7AAFF013DFAD10C
:1040800038BD00BF6589076C064B10B51822044681
:1040900040F8203B01F0E5FC002384F83A30082387
:1040A000A38710BDA883000813B5044600F070F97B
:1040B000204601F043F994F83A301BB90321204619
:1040C00000F041FE0821684601F02AF99DF8003011
:1040D000019A23F0010343F002038DF80030009BA6
:1040E00012BA1BBA204600F0E6FCBDF800102046CC
:1040F00049BA89B200F0D0FC20461A2100F00FFD29
:104100002046002100F030FD20460122802100F0F1
:10411000A9FD20460122102100F0A4FD0123174A29
:104120001621204601F0CAF9802220460C2100F019
:10413000A0F80421204600F0AEF8042100F0FD02B2
:10414000204600F096F80321204600F0A4F8032151
:1041500000F0F002204600F08CF8082220460E21E4
:1041600000F087F80F21204600F095F81621204630
:1041700084F83C1000F0E7FD02B010BD9283000807
:1041800010B590F83D301921013380F83D300446D8
:1041900000F0D9FD0223192818BF84F83C0084F8E8
:1041A0003B3010BD70B51D46144690F83B306E1C78
:1041B000134480F83B3013460A46F1B200F07DF814
:1041C000601970BD10B5012300F13B0200210446C7
:1041D00000F073F802222046114600F04AF86368A6
:1041E0003BB1228FD20704D52046BDE81040032101
:1041F000184710BDF8B50821044600F0A4FD1521AC
:104200000746204600F047F860F07F02D2B2152141
:104210000646204600F02DF80621204600F093FDCA
:104220000821204600F037F860F07F02D2B2082162
:10423000204600F01EF80121204600F02CF803066D
:104240000546F8D532462046152100F012F808211F
:10425000204600F078FD3946204600F074FDC5F395
:104260008010F8BD90F82430816A0022006AFFF7C0
:10427000E1BD70B504460D461646FFF7F3FF334621
:1042800045F0C002A16A206A01F0E3F9206ABDE8A6
:104290007040FFF70BBE38B504460D46FFF7E2FF4E
:1042A00045F080020023A16A206A01F0D2F9054698
:1042B000206AFFF7FBFD284638BDF7B504460F46D8
:1042C00015461E46FFF7CEFFA16A40230122206A51
:1042D00001F0AEF93B46A16A0122206A01F0A8F97B
:1042E0000022206A019600922B46A16AFFF7FEFD8C
:1042F000206A03B0BDE8F040FFF7D8BD10B5044612
:10430000FFF7B0FFA16A206A2023BDE81040012218
:1043100001F08EB907B5CDE900120023816A0122B0
:10432000006AFFF7E3FD03B05DF804FB10B5044637
:10433000816A01230022006A01F07AF9206ABDE84F
:104340001040FFF7B3BD08B590F83A300F2B04D0FA
:104350000121FFF7A0FF00F01F03184608BD10B5AC
:104360000446FFF7F0FF0F2811D1206BFCF760FE29
:1043700000214FF4997001F02BF901212046FFF73D
:104380008AFF00F01F00082884F83A00F5D110BD1C
:1043900010B50446406BFCF74BFE00213E2001F0B7
:1043A00017F9606BFCF73BFE00213E2001F010F98D
:1043B00001212046FFF76FFF00F01F0310F0170FD9
:1043C00084F83A30F4D110BD38B50821044600F025
:1043D000BAFC082105462046FFF75DFFE37E00F0AA
:1043E000E00203F01F0320461A430821FFF741FFB4
:1043F00029462046BDE8384000F0A5BC43680BB113
:1044000000211847704700002DE9F0470446884610
:1044100016461F46FFF797FF8146002C00F0EE80FE
:104420000F2840F0F080B8F1190F5ED02046FFF75A
:1044300096FFB8F1290F23D8DFE808F037221528B6
:104440002222302222222222222222224F22B3B6EC
:10445000A0A622AA222222B9BCBFC22222C5C822FB
:104460002222222243D7022F03D996490320FCF7A8
:1044700067FC3188204600F00FFBB9F10F0F5CD1CB
:10448000B8F1190F59D06FF085054FE0082FECD81F
:10449000D6E90023204600F00EFBEEE7022FE4D819
:1044A0003188204600F045FBE7E7022FDDD1317867
:1044B000A1F10B030F2B00F20181204600F02FFB2E
:1044C000DBE7022FD1D13378002B40F0F7800225B3
:1044D000B9F10F0F40F0948028E0022FC5D8B6F94B
:1044E0000010204600F040FBF1E7012FBDD83378E3
:1044F000013B052BC1D801A252F823F04B4500081F
:104500004F4500087B4400085345000875450008E6
:10451000154500080821204600F015FCB9F10F0FE1
:104520004FF001056CD1B8F1190F69D00F21204669
:1045300000F009FC15F1860F62D13B463246414638
:104540002046BDE8F04700F0B9BF0F21E3E7162190
:10455000E1E7238F5A06E1D594F83D3013B90123E2
:1045600084F83D301921204600F0EDFB2046FFF78E
:1045700029FED3E72046FFF797FDCFE78021327869
:10458000204600F06FFB0AE032784FF48071F7E7C5
:10459000012F3FF66AAF3178204600F0FAFA012584
:1045A00096E732784021EBE732782021E8E732784D
:1045B0000421E5E732780821E2E732780121DFE7DC
:1045C00032780221DCE732781021D9E7012F3FF65B
:1045D0004CAF238FDB0671D53378052B6ED896F957
:1045E0000010204600F0F0FAD9E7012F3FF63DAF6A
:1045F00096F90010204600F022FBD0E76FF012057C
:104600002846BDE8F087B8F1290F96D801A353F8E2
:1046100028F000BFAB4400083B4500086744000891
:104620008D4400083B4500083B4500089D440008B8
:104630003B4500083B4500083B4500083B4500085A
:104640003B4500083B4500083B4500083B4500084A
:104650003B450008DB4400083B450008A345000833
:10466000A94500087D450008894500083B4500082C
:10467000914500083B450008EB4400083B45000815
:10468000AF450008B5450008BB450008C145000816
:104690003B4500083B450008C7450008CD450008DC
:1046A0003B4500083B4500083B4500083B450008EA
:1046B0003B450008C3440008EB4500086FF01505B2
:1046C00006E700BFF86C00082DE9F0410446FFF74B
:1046D0003AFE0F2806463ED00F212046FFF7DBFDAD
:1046E000022107462046FFF7D6FD7B07054603D586
:1046F000636801212046984738072CD5162E01D033
:10470000112E08D1238F190725D502216368204671
:10471000BDE8F0411847192E01D0122E1BD194F894
:104720003D301BB912490320FCF70AFB013BDBB209
:1047300084F83D3023B994F83C10204600F003FB88
:10474000636843B1228F920705D505F0E005202D5F
:1047500009D002D83DB1BDE8F081602D05D0A02D73
:10476000F9D10621D3E70421D1E70721CFE700BF24
:10477000F86C000813B50446816A006AFFF73AFB3B
:104780000321206BFCF7F5FB206BFCF751FC0321A8
:10479000606BFCF7EEFB606BFCF741FC094B012200
:1047A00004210094E06AFCF74DFC2046FFF77CFCF6
:1047B0001C212046FFF76FFD033818BF4FF0FF3074
:1047C00002B010BDFD4300082DE9F34104460F4639
:1047D000092190461E4600F0B6FA2046FFF78EFDEE
:1047E00001220DF103012046FFF794FD9DF80350CF
:1047F00005F07F05023D5FB92046FFF797FDB8F150
:10480000000F11D094F83C10204600F09CFA0BE009
:1048100045450DD92046FFF789FD94F83C10204608
:1048200000F091FA6FF06805284602B0BDE8F0810B
:104830002A4639462046FFF76DFD022201A920468F
:10484000FFF768FD76B10122B11C2046FFF762FD3B
:104850002046FFF76BFD07212046FFF71CFD5B3864
:104860003080CFE72046FFF761FDCBE770B5064605
:104870000D460024FFF784FC3DB9338F5B0602D45C
:104880003046FFF79FFC204670BDAA68A31C134466
:104890007F2B07D8234669683046FFF783FC2D68D5
:1048A0000446E9E76FF08A00EEE7000008B5FFF77D
:1048B0004AFD0838C0B2112896BF024B0220185C8E
:1048C00008BD00BF938300082DE9F8430F46164644
:1048D00098460546002800F0AA80A1F11203162B85
:1048E00048D8DFE803F0242E47474747471C4732A4
:1048F000363A3F4747434747474747470C00B8F1D9
:10490000010F03D858490320FCF71AFA00237370EB
:1049100000F00DF9022430702046BDE8F883B8F1AC
:10492000000FEFD0FFF7C2FF30700124F4E7038FD0
:1049300013F0400F02D001243470EDE700233370F0
:10494000F3E7038F13F0200FF4E7038FC3F3800323
:10495000F5E7038FC3F3C003F1E790F8383003F0B5
:104960000103ECE7038FC3F34003E8E7038FC3F3CE
:104970000013E4E74346324600F0F6FC10F1860FE0
:104980000446C9D12846FFF7DEFC0F28814651D1E5
:104990002846FFF7E4FC172F24D00AD8102F15D093
:1049A000142F37D0012F4FD00F21284600F0CBF91C
:1049B000B2E7292F1FD0312F24D0222FF4D1B8F104
:1049C000000F9FD0284600F0F8F811E0B8F1010F71
:1049D00098D9284600F0BCF802243080B9F10F0FB6
:1049E0009AD1E1E7B8F1000F8CD0284600F0CAF860
:1049F00030700124F2E7B8F1000F83D0284600F0B0
:104A000014F9F5E7B8F1000F3FF47CAF284600F049
:104A100022F9EDE7B8F1000F3FF474AF2E212846DC
:104A2000FFF739FC80F01000C0F30010E0E76FF0F2
:104A3000120471E7172FD5D00ED8102FC6D0142F1F
:104A4000E8D0012F7FF468AFB8F1000F3FF45AAF00
:104A50002846FFF7CFFBCBE7292FCCD0312FD1D081
:104A6000222F7FF459AFAAE7F86C000838B50D463D
:104A700002210446FFF7FDFB162D07D02046FFF765
:104A800062FCA842FAD184F83A5038BD2046FFF7BC
:104A90005AFC1F28FAD0F6E710B504460A0A01743A
:104AA00042742021FFF7E5FB227C2046BDE8104040
:104AB0002121FFF7DEBB2DE9F843064617461D46C8
:104AC00000246FF0070900F11208E200C2F1200192
:104AD000A2F1200305FA01F127FA02F20A4325FAAE
:104AE00003F31A4309FB04F308F8012B03F138021E
:104AF000C2F1200105FA01F1183327FA02F20A4344
:104B000025FA03F31A4304F12401D2B2C9B23046A4
:104B10000134FFF7AEFB082CD7D1BDE8F883A1F133
:104B20000B020F2A02D8C176FFF74EBC7047002057
:104B3000704738B505460C46CAB22221FFF799FBEB
:104B4000220A2846BDE838402321FFF792BB000027
:104B500008B50521FFF79FFB024B00F00F0033F96A
:104B6000100008BDD6830008113109B21429A8BF6E
:104B70001421034B21EAE1715A5C0521FFF779BB4F
:104B8000C083000808B52C21FFF785FBC0F3071090
:104B900008BD38B50C462C210546FFF77CFB072CD9
:104BA00028BF072400F00F0040EA0412D2B22846C2
:104BB000BDE838402C21FFF75CBB08B52C21FFF77E
:104BC0006AFBC0F3420008BD38B50C1E054611DB78
:104BD000052CA8BF05242C212846FFF75CFB20F0FC
:104BE0000E0242EA44022846BDE83840D2B22C21E7
:104BF000FFF73FBB0724EEE738B505460C4699B1F1
:104C00000A782D21FFF735FB2E212846FFF743FBBD
:104C1000637800F0F80203F007031A432846BDE862
:104C200038402E21FFF725BB38BD08B50921FFF715
:104C300032FB00F00F0040005B3840B208BD002995
:104C4000C4BF494249B25B31C1F3430242F0C002E2
:104C50000921FFF70EBB08B50721FFF71CFB5B38E6
:104C600040B208BD38B50446038F15464AB10B4320
:104C7000202923872ED007D8042954D0102911D0F9
:104C800038BD23EA0103F3E780293FD0B1F5807FE7
:104C9000F6D12E212046FFF7FEFA002D50D040F02D
:104CA00020023EE07DB104F112012046FFF7A4FF8F
:104CB00004212046FFF788FF53222F212046BDE81C
:104CC0003840FFF7D6BA2046BDE838404FF0FF31F4
:104CD000FFF77ABF2E212046FFF7DDFA85B140F0BD
:104CE0001002D2B22E212046FFF7C3FA1721204628
:104CF000FFF7D1FA3DB140F00202D2B21721DDE751
:104D000000F0EF02EEE700F0FD02F7E72E2120466B
:104D1000FFF7C1FA1DB100F0EF022E21CEE740F0FF
:104D20001002D2B2F9E70E212046FFF7B4FA25B1FE
:104D300040F00402D2B20E21C0E700F0FB02FAE715
:104D400000F0DF02E9E770B504460D462046FFF7A4
:104D5000FAFAA0F11103DBB2012B0646F6D91F289F
:104D6000F4D0032D05D12A4608212046FFF77EFE08
:104D70001BE0A84219D0162819D1192D23D10922D8
:104D800020461146FFF772FE0F2D14D10322082191
:104D90002046FFF76BFE0F212046FFF77CFA206BC1
:104DA000FCF73DF90F2384F83A30304670BD1928DE
:104DB000EAD1162DE2E70F2E02D12046FFF7CFFAF7
:104DC0002A462946D1E70F2DFAD1DFE770B50E4606
:104DD00000210446FCF75AFE094D50B9E2882B88A1
:104DE00012B21BB29A4204D04EB901212046FCF700
:104DF0004DFE01202B88E380A3880133A38070BD82
:104E0000000400200021FFF7E1BF000008B50C4BB3
:104E1000C1881B8809B21BB2994203D009490320FB
:104E2000FBF78EFF8388002BF8D0013B9BB2838079
:104E300023B9C380BDE80840FCF758BE08BD00BFD9
:104E400000040020F86C0008F8B505460E46FBF794
:104E50001BFC354B354A1B8807461BB252F82330E2
:104E60001A6A002A4DD0D3E90541A14249D0611CFC
:104E70005961D9690C4046B9196931B9611C04D12D
:104E80003846FBF709FC2046F8BD002C3DDB02EB61
:104E9000C40103C985E803001E69002E37D03168BC
:104EA000002C19610CDBD3E906505969691A884254
:104EB000B1BF4FF0FF35691C0540996102EBC50594
:104EC000736893E8030085E8030016F8043C052B9B
:104ED00015D000230B217360A6F10800FBF79CF9A5
:104EE00016F8034C3846FBF7D7FB0E2C1AD8204691
:104EF000FBF7D2F916E03846FBF7CEFB12E00F24A1
:104F0000F0E74FF0FF34002EB6D0DD60C4E7002C90
:104F1000F1DA18460321FBF77FF93846FBF7BCFBB3
:104F2000FBF740FA0124AEE7000400205004002003
:104F300010B5D0E9063244691C1BA24201DA0020F8
:104F400010BD5C1C13408461F9D4026A03C902EBF2
:104F5000C30383E803000120F2E700002DE9F843D2
:104F60001E46264B074653F82150254B91461B8879
:104F700003803DB93046FBF78FFB4FF0FF342046EE
:104F8000BDE8F8832B79032B2ED01E4B0146284613
:104F9000D3F80080FFF7CCFF044650B13046FBF752
:104FA0007BFB98F80430052B01D1FBF7FBF90124BA
:104FB000E5E7B9F1000F03D13046FBF76DFBDEE703
:104FC00098F804304046052B0CBF05210421C8F891
:104FD0000C70FBF721F9414605F11000FBF716FFB5
:104FE0003046FBF759FBE0E7EB6803C883E80300B2
:104FF0000B212846FBF710F9F2E700BF5004002010
:10500000000400200404002038B50446FBF73CFBF4
:10501000074B21461B8805462380064B1868FFF77F
:1050200087FF04462846FBF737FB204638BD00BF04
:10503000000400200404002008B50F4B53F8213071
:10504000B3B1212202801A79032A0BD103C8DA688E
:1050500082E8030018460B21FBF7DEF80120074B1E
:10506000186008BD01461846BDE80840FFF760BF5C
:105070004FF0FF30F5E700BF500400200804002087
:1050800070B504460D46FBF70AFB28B129462046B9
:10509000BDE87040FFF7D0BF094B1B881BB2AB4285
:1050A00004D12046BDE87040FFF7AEBFFBF7ECFA35
:1050B0002946034601222046BDE87040FFF74EBF57
:1050C0000004002070B504460D46FBF7E8FA0646DA
:1050D00028B129462046BDE87040FFF7ADBF0A4B16
:1050E0001B881BB2AB4204D12046BDE87040FFF7DD
:1050F0008BBFFBF7C9FA3246034629462046BDE876
:105100007040FFF72BBF00BF000400202DE9F041E5
:10511000124F06463B880C461BB29342154603D1FC
:105120000F490320FBF70CFEFBF7AEFA80463A88E6
:105130000C4B12B253F8227005213846FBF76CF87D
:1051400096E80300FC60434684E8030001222946F8
:105150002046BDE8F041FFF701BF00BF000400207A
:10516000F86C00085004002070B504460D46FBF7AB
:105170008BFAB4F90020114B064653F822401CB9B3
:105180000F490320FBF7DCFD2379052B04D0FBF747
:1051900083FA4FF0FF3070BDE36895E8030083E8C1
:1051A00003000B212046FBF737F864793046FBF704
:1051B00073FA2046FBF770F80120ECE7500400205A
:1051C000F86C00080121FFF73FBE000008B5074B4F
:1051D0004A1E1B681140186203D005490320FBF7E3
:1051E000AFFDC3E90511DA6108BD00BF040400206A
:1051F000F86C0008BFF34F8F0549064BCA6802F4EC
:10520000E0621343CB60BFF34F8F00BFFDE700BFE9
:1052100000ED00E00400FA0538B1054B0A0901F081
:105220000F019A5C5B5C027043700220704700BF04
:10523000F683000803461A78591C0AB9181A7047F1
:105240000B46F8E7F8B505460F4616468C18BC42E3
:1052500001D17000F8BD284614F8011DFFF7DCFFEE
:105260000544F4E707B502AB43F8041D04221946D0
:10527000FFF7E8FF03B05DF804FB38B505460C46C0
:1052800004B938BD22462946012000F0A9FE0028B5
:10529000F7DB241A0544F3E707B5014601A8FFF739
:1052A000BBFF022101A8FFF7E8FF03B05DF804FB94
:1052B00007B501466846FFF7D5FF08216846FFF7A6
:1052C000DCFF03B05DF804FB10B50446FFF7B2FF46
:1052D00001462046BDE81040FFF7CFBF7FB50C4622
:1052E000054600B119B90D490320FBF729FD0A460F
:1052F00001AE232100F0C0FB304600F093F90023FB
:10530000B3FBF4F204FB1232F05CA95C01334140C0
:105310000C2BA954F4D104B070BD00BFF86C000888
:1053200010B50446FFF7DAFF034A1378591C1170D1
:1053300022785340237010BD2402002070B504462B
:10534000FDF7E4FB00232246A38323732323A076E7
:1053500022F80E3F236820465D690621AC46BDE871
:105360007040022360470000062938B505460C4608
:10537000104643D009D803292CD034D8002941D075
:1053800002291AD06FF0850336E0162940D008D8DC
:10539000082953D01129F5D1012B10D96623138088
:1053A00016E01A2940D0272944D01829EAD1012B28
:1053B00005D195F90C2002701EE0012B03D83E495F
:1053C0000320FBF7BDFC0A4605F1100100F049FB84
:1053D000022311E0072BF2D9082205F1120100F097
:1053E00040FB082308E0022BE9D1AA8B520702D523
:1053F0000822028000E00380184638BD022BDED16F
:10540000EA89F6E7022BDAD1EB7E13800123F3E77A
:10541000012BD4D1AB8B13F0200F02D001230370EA
:10542000EAE700230370F1E7012BC8D1AB8B13F03F
:10543000020FF2E7022BC2D10322DAE7072BBED913
:10544000AB8B00225B074BBF2346022305F1120101
:1054500005F11001042B4270027018D0082B03D004
:10546000022BBED1134619E00A7882F002020270C4
:105470004A7842708A788270CA78C2700A7902715A
:105480004A7942718A798271CA79C271B4E70B781C
:1054900083F0020303704B7843700223FF24002241
:1054A000C470FE24827004714271CA5C1944827116
:1054B0004B78C37195E700BFF86C000870B51546CE
:1054C0001C461A296CD8DFE801F00E6B1A2A3A3A0A
:1054D0004D6B6B6B6B6B6B6B6B6B6B6B6B6B6B6B3A
:1054E000526B656B5C00022C03D02F490320FBF745
:1054F00027FC1388FF2BF8D8C376204670BD022CFA
:10550000F3D800F1100602220021304600F0B4FA70
:1055100022462946304600F0A4FA0224EDE7082C82
:10552000E3D800F1120608220021304600F0A4FA68
:1055300022462946304600F094FA0824DDE7022C82
:10554000D3D11388022B04D0082B07D06FF0690445
:10555000D3E7838B23F004038383CEE7838B43F06D
:105560000403F9E7022CC0D11388C381C5E7127880
:10557000838B1AB143F020038383CEE723F020030B
:10558000FAE71278838B12B143F00203F4E723F0B9
:105590000203F1E7012CA8D192F900300373ACE7C4
:1055A0006FF08504A9E700BFF86C0008FCF79EBA0D
:1055B00038B504460020FBF7A3FF0546A4B200203F
:1055C000FBF79EFF401B80B2A042F8D338BD00001D
:1055D00030B587B004460D46FBF761F848B11DB100
:1055E0000E490320FBF7ACFB2046FFF7E1FF07B0B5
:1055F00030BD0B4B0090CDE90200012168460493B9
:10560000CDF814D0FCF742FA214601A82A46FBF750
:1056100041FB01216846FCF739FAE8E7F86C00081D
:10562000AD5500080C22014900F01BBAE8F7FF1F36
:1056300010B586B006AC04F8093D012301930DF1C5
:10564000170300932346FEF751FC9DF8170006B0A0
:1056500010BDF0B585B01F4604AB03F8012D002442
:10566000012205460E46CDE90042FEF73FFC3B46CF
:10567000224631462846FFF7DBFF05B0F0BD0A227F
:10568000002100F007BC00008A892DE9F0410546A1
:1056900010070C4658D44B68002B05DC0B6C002B14
:1056A00002DC0020BDE8F081E66A002EF9D000237C
:1056B00012F480522F68216A2B6032D0606DA3896A
:1056C0005A0705D56368C01A636B0BB1236CC01A07
:1056D00000230246E66A216A2846B047431CA38994
:1056E00006D129681D2948D8294ACA40D60744D579
:1056F000002262602269D904226004D5421C01D1D3
:105700002B6803B96065616B2F600029C9D004F173
:105710004403994202D0284600F0B6F900206063A5
:10572000C0E701232846B047411CC8D12B68002B95
:10573000C5D01D2B01D0162B01D12F60B1E7A38955
:1057400043F04003A381ADE70F69002FA9D0930771
:1057500018BF00230E6808BF4B69A6EB07080F604F
:105760008B60B8F1000F9CDD43463A46216A28461B
:10577000A66AB047002806DCA38943F04003A38152
:105780004FF0FF308EE70744A8EB0008E9E700BFC1
:105790000100402038B50B6905460C46DBB118B155
:1057A00083690BB900F072F80C4B9C4209D16C680C
:1057B000B4F90C307BB121462846BDE83840FFF7EC
:1057C00063BF074B9C4201D1AC68F1E7054B9C429B
:1057D00008BFEC68ECE7002038BD00BF2884000853
:1057E0004884000808840008014620B9044B054994
:1057F000186800F0D3B8044B1868FFF7CBBF00BFA0
:10580000688400089557000828020020002310B57E
:105810000446C0E90033836081814366C281C0E9E8
:1058200004338361194608225C3000F025F9054BEA
:1058300024626362044BA362044BE362044B236360
:1058400010BD00BFF55C0008175D00084F5D000843
:10585000735D0008014900F0A1B800BF955700082A
:1058600070B568254A1E55430E4605F1740100F0D7
:1058700057F9044640B10021C0E900160C30A06081
:1058800005F1680200F0F8F8204670BD836910B594
:10589000044633BBC0E912330365124B124A1B683E
:1058A0008262984204BF0123836100F01FF86060A8
:1058B000204600F01BF8A060204600F017F80022F8
:1058C000E06004216068FFF7A1FF01220921A068C0
:1058D000FFF79CFF02221221E068FFF797FF0123E8
:1058E000A36110BD6884000855580008F8B51B4B2B
:1058F00007461E68B36913B93046FFF7C7FF48363D
:10590000D6E90134013B03D5336833B13668F7E794
:10591000B4F90C506DB16834F4E704213846FFF750
:105920009FFF30600028F1D10C2304463B602046E5
:10593000F8BD0B4B6566C4E90055A560C4E90335A5
:10594000C4E905550822294604F15C0000F094F8EA
:10595000C4E90D55C4E91255E9E700BF68840008A1
:105960000100FFFF2DE9F0418846002600F14804C0
:1059700014B93046BDE8F081D4E90175013F01D585
:105980002468F5E7AB89012B06D9B5F90E30013350
:1059900002D02846C04706436835EFE72DE9F843B3
:1059A00080468946002600F1480414B93046BDE817
:1059B000F883D4E90175013F01D52468F5E7AB8987
:1059C000012B07D9B5F90E30013303D029464046E3
:1059D000C84706436835EEE7074B10B51C6824B18D
:1059E000A36913B92046FFF751FF61682046BDE85F
:1059F000104000F0BFBB00BF2802002070B500259A
:105A00000C4E0D4CA41BA410A54209D1FAF792FB31
:105A100000250A4E0A4CA41BA410A54205D170BD56
:105A200056F8253098470135EEE756F82530984767
:105A30000135F2E7A8850008A8850008A8850008B8
:105A4000A885000830B50024A24201D1002007E05B
:105A5000035D01340D1915F8015CAB42F4D0581BFD
:105A600030BD10B5431E0A44914200D110BD11F85B
:105A7000014B03F8014FF7E703460244934200D17C
:105A8000704703F8011BF9E738B50546002943D0F4
:105A900051F8043C0C1F002BB8BFE41800F010FCB8
:105AA0001E4A1368104633B9636014602846BDE887
:105AB000384000F006BCA3420BD92168621893421B
:105AC00001BF1A685B685218226063600460EDE7EA
:105AD00013465A680AB1A242FAD919685818A04266
